{
  "contractName": "Certificates",
  "abi": [
    {
      "inputs": [
        {
          "internalType": "address",
          "name": "participantsContractAddress",
          "type": "address"
        }
      ],
      "payable": false,
      "stateMutability": "nonpayable",
      "type": "constructor"
    },
    {
      "anonymous": false,
      "inputs": [
        {
          "indexed": false,
          "internalType": "uint256",
          "name": "id",
          "type": "uint256"
        },
        {
          "indexed": false,
          "internalType": "address",
          "name": "recipientAddr",
          "type": "address"
        },
        {
          "indexed": false,
          "internalType": "string",
          "name": "certificateHash",
          "type": "string"
        },
        {
          "indexed": false,
          "internalType": "string",
          "name": "ipfsHash",
          "type": "string"
        }
      ],
      "name": "certificateCreationEvent",
      "type": "event"
    },
    {
      "constant": true,
      "inputs": [],
      "name": "certificatesCount",
      "outputs": [
        {
          "internalType": "uint256",
          "name": "",
          "type": "uint256"
        }
      ],
      "payable": false,
      "stateMutability": "view",
      "type": "function"
    },
    {
      "constant": true,
      "inputs": [],
      "name": "owner",
      "outputs": [
        {
          "internalType": "address",
          "name": "",
          "type": "address"
        }
      ],
      "payable": false,
      "stateMutability": "view",
      "type": "function"
    },
    {
      "constant": true,
      "inputs": [],
      "name": "participants",
      "outputs": [
        {
          "internalType": "contract Participants",
          "name": "",
          "type": "address"
        }
      ],
      "payable": false,
      "stateMutability": "view",
      "type": "function"
    },
    {
      "constant": false,
      "inputs": [
        {
          "internalType": "address",
          "name": "newParticipantsContractAddress",
          "type": "address"
        }
      ],
      "name": "changeParticipantsContractAddress",
      "outputs": [
        {
          "internalType": "bool",
          "name": "",
          "type": "bool"
        }
      ],
      "payable": false,
      "stateMutability": "nonpayable",
      "type": "function"
    },
    {
      "constant": false,
      "inputs": [
        {
          "internalType": "address",
          "name": "_recipientAddr",
          "type": "address"
        },
        {
          "internalType": "string",
          "name": "_certificateHash",
          "type": "string"
        },
        {
          "internalType": "string",
          "name": "_ipfsHash",
          "type": "string"
        }
      ],
      "name": "createCertificate",
      "outputs": [],
      "payable": false,
      "stateMutability": "nonpayable",
      "type": "function"
    },
    {
      "constant": true,
      "inputs": [],
      "name": "getCertificateCount",
      "outputs": [
        {
          "internalType": "uint256",
          "name": "",
          "type": "uint256"
        }
      ],
      "payable": false,
      "stateMutability": "view",
      "type": "function"
    },
    {
      "constant": true,
      "inputs": [
        {
          "internalType": "uint256",
          "name": "_id",
          "type": "uint256"
        }
      ],
      "name": "getParticularCertificate",
      "outputs": [
        {
          "internalType": "address",
          "name": "",
          "type": "address"
        },
        {
          "internalType": "string",
          "name": "",
          "type": "string"
        },
        {
          "internalType": "string",
          "name": "",
          "type": "string"
        }
      ],
      "payable": false,
      "stateMutability": "view",
      "type": "function"
    },
    {
      "constant": true,
      "inputs": [
        {
          "internalType": "uint256",
          "name": "_id",
          "type": "uint256"
        }
      ],
      "name": "getParticularCertificateHash",
      "outputs": [
        {
          "internalType": "address",
          "name": "",
          "type": "address"
        },
        {
          "internalType": "string",
          "name": "",
          "type": "string"
        }
      ],
      "payable": false,
      "stateMutability": "view",
      "type": "function"
    }
  ],
  "bytecode": "0x6080604052600060035534801561001557600080fd5b506040516111c33803806111c38339818101604052602081101561003857600080fd5b8101908080519060200190929190505050806000806101000a81548173ffffffffffffffffffffffffffffffffffffffff021916908373ffffffffffffffffffffffffffffffffffffffff16021790555033600160006101000a81548173ffffffffffffffffffffffffffffffffffffffff021916908373ffffffffffffffffffffffffffffffffffffffff160217905550506110e9806100da6000396000f3fe608060405234801561001057600080fd5b50600436106100885760003560e01c8063b34b46481161005b578063b34b464814610285578063c7a805a6146102a3578063cd50a440146102ff578063f0e36115146103d957610088565b80630aef09ce1461008d5780636c4470fb146101d35780638809f7271461021d5780638da5cb5b1461023b575b600080fd5b6100b9600480360360208110156100a357600080fd5b810190808035906020019092919050505061054b565b604051808473ffffffffffffffffffffffffffffffffffffffff1673ffffffffffffffffffffffffffffffffffffffff1681526020018060200180602001838103835285818151815260200191508051906020019080838360005b8381101561012f578082015181840152602081019050610114565b50505050905090810190601f16801561015c5780820380516001836020036101000a031916815260200191505b50838103825284818151815260200191508051906020019080838360005b8381101561019557808201518184015260208101905061017a565b50505050905090810190601f1680156101c25780820380516001836020036101000a031916815260200191505b509550505050505060405180910390f35b6101db610778565b604051808273ffffffffffffffffffffffffffffffffffffffff1673ffffffffffffffffffffffffffffffffffffffff16815260200191505060405180910390f35b61022561079d565b6040518082815260200191505060405180910390f35b6102436107a7565b604051808273ffffffffffffffffffffffffffffffffffffffff1673ffffffffffffffffffffffffffffffffffffffff16815260200191505060405180910390f35b61028d6107cd565b6040518082815260200191505060405180910390f35b6102e5600480360360208110156102b957600080fd5b81019080803573ffffffffffffffffffffffffffffffffffffffff1690602001909291905050506107d3565b604051808215151515815260200191505060405180910390f35b61032b6004803603602081101561031557600080fd5b8101908080359060200190929190505050610878565b604051808373ffffffffffffffffffffffffffffffffffffffff1673ffffffffffffffffffffffffffffffffffffffff16815260200180602001828103825283818151815260200191508051906020019080838360005b8381101561039d578082015181840152602081019050610382565b50505050905090810190601f1680156103ca5780820380516001836020036101000a031916815260200191505b50935050505060405180910390f35b610549600480360360608110156103ef57600080fd5b81019080803573ffffffffffffffffffffffffffffffffffffffff1690602001909291908035906020019064010000000081111561042c57600080fd5b82018360208201111561043e57600080fd5b8035906020019184600183028401116401000000008311171561046057600080fd5b91908080601f016020809104026020016040519081016040528093929190818152602001838380828437600081840152601f19601f820116905080830192505050505050509192919290803590602001906401000000008111156104c357600080fd5b8201836020820111156104d557600080fd5b803590602001918460018302840111640100000000831117156104f757600080fd5b91908080601f016020809104026020016040519081016040528093929190818152602001838380828437600081840152601f19601f8201169050808301925050505050505091929192905050506109ee565b005b6000606080600115156002600086815260200190815260200160002060040160009054906101000a900460ff161515146105d0576040517f08c379a000000000000000000000000000000000000000000000000000000000815260040180806020018281038252603a81526020018061107b603a913960400191505060405180910390fd5b6002600085815260200190815260200160002060010160009054906101000a900473ffffffffffffffffffffffffffffffffffffffff166002600086815260200190815260200160002060020160026000878152602001908152602001600020600301818054600181600116156101000203166002900480601f0160208091040260200160405190810160405280929190818152602001828054600181600116156101000203166002900480156106c85780601f1061069d576101008083540402835291602001916106c8565b820191906000526020600020905b8154815290600101906020018083116106ab57829003601f168201915b50505050509150808054600181600116156101000203166002900480601f0160208091040260200160405190810160405280929190818152602001828054600181600116156101000203166002900480156107645780601f1061073957610100808354040283529160200191610764565b820191906000526020600020905b81548152906001019060200180831161074757829003601f168201915b505050505090509250925092509193909250565b6000809054906101000a900473ffffffffffffffffffffffffffffffffffffffff1681565b6000600354905090565b600160009054906101000a900473ffffffffffffffffffffffffffffffffffffffff1681565b60035481565b6000600160009054906101000a900473ffffffffffffffffffffffffffffffffffffffff1673ffffffffffffffffffffffffffffffffffffffff163373ffffffffffffffffffffffffffffffffffffffff161461082f57600080fd5b816000806101000a81548173ffffffffffffffffffffffffffffffffffffffff021916908373ffffffffffffffffffffffffffffffffffffffff16021790555060019050919050565b60006060600115156002600085815260200190815260200160002060040160009054906101000a900460ff161515146108fc576040517f08c379a000000000000000000000000000000000000000000000000000000000815260040180806020018281038252603a81526020018061107b603a913960400191505060405180910390fd5b6002600084815260200190815260200160002060010160009054906101000a900473ffffffffffffffffffffffffffffffffffffffff1660026000858152602001908152602001600020600201808054600181600116156101000203166002900480601f0160208091040260200160405190810160405280929190818152602001828054600181600116156101000203166002900480156109de5780601f106109b3576101008083540402835291602001916109de565b820191906000526020600020905b8154815290600101906020018083116109c157829003601f168201915b5050505050905091509150915091565b600115156000809054906101000a900473ffffffffffffffffffffffffffffffffffffffff1673ffffffffffffffffffffffffffffffffffffffff16639371de2b856040518263ffffffff1660e01b8152600401808273ffffffffffffffffffffffffffffffffffffffff1673ffffffffffffffffffffffffffffffffffffffff16815260200191505060206040518083038186803b158015610a9057600080fd5b505afa158015610aa4573d6000803e3d6000fd5b505050506040513d6020811015610aba57600080fd5b8101908080519060200190929190505050151514610b23576040517f08c379a000000000000000000000000000000000000000000000000000000000815260040180806020018281038252602181526020018061105a6021913960400191505060405180910390fd5b60026000809054906101000a900473ffffffffffffffffffffffffffffffffffffffff1673ffffffffffffffffffffffffffffffffffffffff1663256dced2336040518263ffffffff1660e01b8152600401808273ffffffffffffffffffffffffffffffffffffffff1673ffffffffffffffffffffffffffffffffffffffff16815260200191505060206040518083038186803b158015610bc357600080fd5b505afa158015610bd7573d6000803e3d6000fd5b505050506040513d6020811015610bed57600080fd5b8101908080519060200190929190505050148015610ce3575060036000809054906101000a900473ffffffffffffffffffffffffffffffffffffffff1673ffffffffffffffffffffffffffffffffffffffff1663256dced2856040518263ffffffff1660e01b8152600401808273ffffffffffffffffffffffffffffffffffffffff1673ffffffffffffffffffffffffffffffffffffffff16815260200191505060206040518083038186803b158015610ca657600080fd5b505afa158015610cba573d6000803e3d6000fd5b505050506040513d6020811015610cd057600080fd5b8101908080519060200190929190505050145b610d55576040517f08c379a00000000000000000000000000000000000000000000000000000000081526004018080602001828103825260118152602001807f5065726d697373696f6e2064656e69656400000000000000000000000000000081525060200191505060405180910390fd5b6040518060a0016040528060035481526020018473ffffffffffffffffffffffffffffffffffffffff1681526020018381526020018281526020016001151581525060026000600360008154809291906001019190505581526020019081526020016000206000820151816000015560208201518160010160006101000a81548173ffffffffffffffffffffffffffffffffffffffff021916908373ffffffffffffffffffffffffffffffffffffffff1602179055506040820151816002019080519060200190610e27929190610fb4565b506060820151816003019080519060200190610e44929190610fb4565b5060808201518160040160006101000a81548160ff0219169083151502179055509050507fe2868246f63337ec0153fc26aec8b77c47f2a457d83939e8f6535d7d58696ab6600354848484604051808581526020018473ffffffffffffffffffffffffffffffffffffffff1673ffffffffffffffffffffffffffffffffffffffff1681526020018060200180602001838103835285818151815260200191508051906020019080838360005b83811015610f0b578082015181840152602081019050610ef0565b50505050905090810190601f168015610f385780820380516001836020036101000a031916815260200191505b50838103825284818151815260200191508051906020019080838360005b83811015610f71578082015181840152602081019050610f56565b50505050905090810190601f168015610f9e5780820380516001836020036101000a031916815260200191505b50965050505050505060405180910390a1505050565b828054600181600116156101000203166002900490600052602060002090601f016020900481019282601f10610ff557805160ff1916838001178555611023565b82800160010185558215611023579182015b82811115611022578251825591602001919060010190611007565b5b5090506110309190611034565b5090565b61105691905b8082111561105257600081600090555060010161103a565b5090565b9056fe5573657220646f6573206e6f7420657869737420696e207468652073797374656d436572746966696361746520776974682074686520676976656e20494420646f6573206e6f7420657869737420696e207468652073797374656da265627a7a723158207be5bf1d77e7b7dd32074922463fd5ac0a0a07995395e8b5a45d2d42013c1f1264736f6c63430005100032",
  "source": "pragma solidity  >=0.4.22;\r\nimport \"./Participants.sol\";\r\n\r\ncontract Certificates {\r\n    \r\n    Participants public participants;\r\n    address public owner;\r\n    mapping (uint => Certificate) certificatesList;\r\n    uint public certificatesCount = 0;\r\n    \r\n    struct Certificate {\r\n        uint id;\r\n        address recipientAddr;\r\n        string certificateHash;\r\n        string ipfsHash;\r\n        bool exists;\r\n    }\r\n    \r\n    event certificateCreationEvent\r\n    (\r\n        uint id,\r\n        address recipientAddr,\r\n        string certificateHash,\r\n        string ipfsHash\r\n    );\r\n    \r\n    modifier onlyOwner {\r\n      require(msg.sender == owner);\r\n      _;\r\n    }\r\n    \r\n    constructor(address participantsContractAddress) public {\r\n        participants = Participants(participantsContractAddress);\r\n        owner = msg.sender;\r\n    }\r\n    \r\n    function changeParticipantsContractAddress(address newParticipantsContractAddress) public onlyOwner returns(bool) {\r\n      participants = Participants(newParticipantsContractAddress);\r\n      return true;\r\n    }\r\n    \r\n    function createCertificate(address _recipientAddr, string memory _certificateHash, string memory _ipfsHash) public\r\n    {\r\n        require(participants.checkIfUserExists(_recipientAddr)==true , \"User does not exist in the system\");\r\n        require(participants.getParticularUsersType(msg.sender)==2 && participants.getParticularUsersType(_recipientAddr)==3, \"Permission denied\");\r\n        certificatesList[certificatesCount++] = Certificate(certificatesCount,_recipientAddr, _certificateHash, _ipfsHash,true);\r\n        emit certificateCreationEvent(certificatesCount,_recipientAddr, _certificateHash, _ipfsHash);\r\n    }\r\n    \r\n    \r\n    // function getUserCertificates() public returns(uint, uint[] memory) {\r\n    //     require(participants.checkIfUserExists(msg.sender)==true, \"User does not exist in the system\");\r\n    //     uint[] memory certificatesId;\r\n    //     uint cnt=0;\r\n    //     for(uint i=0; i<certificatesCount; i++){\r\n    //         a = certificatesList[i].recipientAddr;\r\n    //         if(certificatesList[i].recipientAddr == msg.sender){\r\n                \r\n    //             ++c;\r\n    //             certificatesId[cnt++]=certificatesList[i].id;\r\n    //         }\r\n    //     }\r\n    //     return (cnt, certificatesId);\r\n    // }\r\n    \r\n    function getCertificateCount() view public returns(uint){\r\n        return certificatesCount;\r\n    }\r\n    \r\n    function getParticularCertificate(uint _id) view public returns(address, string memory, string memory) {\r\n        require(certificatesList[_id].exists==true, \"Certificate with the given ID does not exist in the system\");\r\n        return (certificatesList[_id].recipientAddr, certificatesList[_id].certificateHash, certificatesList[_id].ipfsHash);\r\n    }\r\n    \r\n    function getParticularCertificateHash(uint _id) view public returns(address, string memory) {\r\n        require(certificatesList[_id].exists==true, \"Certificate with the given ID does not exist in the system\");\r\n        return (certificatesList[_id].recipientAddr, certificatesList[_id].certificateHash);\r\n    }\r\n    \r\n    // function getParticularInstitutionCertificates(string memory _institution) view public returns(uint[] memory) {\r\n    //     require(participants.checkIfInstitutionExists(_institution)==true, \"Given institution does not exist in the system\");uint[] memory certificatesId;\r\n    //     uint cnt=0;\r\n    //     uint[] memory certificatesId;\r\n    //     for(uint i=0; i<certificatesCount; i++){\r\n    //         if(keccak256(abi.encodePacked(participants.getParticularUsersInstitution(certificatesList[i].recipientAddr)))\r\n    //         == keccak256(abi.encodePacked(_institution))){\r\n    //             certificatesId[cnt++]=certificatesList[i].id;\r\n    //         }\r\n    //     }\r\n    //     return certificatesId;\r\n    // }\r\n}\r\n    \r\n",
  "sourcePath": "C:/Users/WELCOME/Desktop/DAPP-FYP/contracts/Certificates.sol",
  "compiler": {
    "name": "solc",
    "version": "0.5.16+commit.9c3226ce.Emscripten.clang"
  },
  "schemaVersion": "3.3.2",
  "updatedAt": "2021-02-27T06:39:02.189Z",
  "networkType": "ethereum",
  "devdoc": {
    "methods": {}
  },
  "userdoc": {
    "methods": {}
  }
}