{
  "contractName": "Certificates",
  "abi": [
    {
      "inputs": [
        {
          "internalType": "address",
          "name": "participantsContractAddress",
          "type": "address"
        }
      ],
      "payable": false,
      "stateMutability": "nonpayable",
      "type": "constructor"
    },
    {
      "anonymous": false,
      "inputs": [
        {
          "indexed": false,
          "internalType": "uint256",
          "name": "id",
          "type": "uint256"
        },
        {
          "indexed": false,
          "internalType": "address",
          "name": "recipientAddr",
          "type": "address"
        },
        {
          "indexed": false,
          "internalType": "string",
          "name": "certificateHash",
          "type": "string"
        },
        {
          "indexed": false,
          "internalType": "string",
          "name": "ipfsHash",
          "type": "string"
        },
        {
          "indexed": false,
          "internalType": "string",
          "name": "encKey",
          "type": "string"
        }
      ],
      "name": "certificateCreationEvent",
      "type": "event"
    },
    {
      "constant": true,
      "inputs": [],
      "name": "certificatesCount",
      "outputs": [
        {
          "internalType": "uint256",
          "name": "",
          "type": "uint256"
        }
      ],
      "payable": false,
      "stateMutability": "view",
      "type": "function"
    },
    {
      "constant": true,
      "inputs": [],
      "name": "owner",
      "outputs": [
        {
          "internalType": "address",
          "name": "",
          "type": "address"
        }
      ],
      "payable": false,
      "stateMutability": "view",
      "type": "function"
    },
    {
      "constant": true,
      "inputs": [],
      "name": "participants",
      "outputs": [
        {
          "internalType": "contract Participants",
          "name": "",
          "type": "address"
        }
      ],
      "payable": false,
      "stateMutability": "view",
      "type": "function"
    },
    {
      "constant": true,
      "inputs": [],
      "name": "totalCertificatesCount",
      "outputs": [
        {
          "internalType": "uint256",
          "name": "",
          "type": "uint256"
        }
      ],
      "payable": false,
      "stateMutability": "view",
      "type": "function"
    },
    {
      "constant": false,
      "inputs": [
        {
          "internalType": "address",
          "name": "newParticipantsContractAddress",
          "type": "address"
        }
      ],
      "name": "changeParticipantsContractAddress",
      "outputs": [
        {
          "internalType": "bool",
          "name": "",
          "type": "bool"
        }
      ],
      "payable": false,
      "stateMutability": "nonpayable",
      "type": "function"
    },
    {
      "constant": false,
      "inputs": [
        {
          "internalType": "address",
          "name": "_recipientAddr",
          "type": "address"
        },
        {
          "internalType": "string",
          "name": "_certificateHash",
          "type": "string"
        },
        {
          "internalType": "string",
          "name": "_ipfsHash",
          "type": "string"
        },
        {
          "internalType": "string",
          "name": "_encKey",
          "type": "string"
        }
      ],
      "name": "createCertificate",
      "outputs": [],
      "payable": false,
      "stateMutability": "nonpayable",
      "type": "function"
    },
    {
      "constant": true,
      "inputs": [],
      "name": "getCertificatesCount",
      "outputs": [
        {
          "internalType": "uint256",
          "name": "",
          "type": "uint256"
        }
      ],
      "payable": false,
      "stateMutability": "view",
      "type": "function"
    },
    {
      "constant": true,
      "inputs": [],
      "name": "getTotalCertificatesCount",
      "outputs": [
        {
          "internalType": "uint256",
          "name": "",
          "type": "uint256"
        }
      ],
      "payable": false,
      "stateMutability": "view",
      "type": "function"
    },
    {
      "constant": true,
      "inputs": [
        {
          "internalType": "uint256",
          "name": "_id",
          "type": "uint256"
        }
      ],
      "name": "checkIfCertificateExists",
      "outputs": [
        {
          "internalType": "bool",
          "name": "",
          "type": "bool"
        }
      ],
      "payable": false,
      "stateMutability": "view",
      "type": "function"
    },
    {
      "constant": true,
      "inputs": [
        {
          "internalType": "uint256",
          "name": "_id",
          "type": "uint256"
        }
      ],
      "name": "getParticularCertificate",
      "outputs": [
        {
          "internalType": "address",
          "name": "",
          "type": "address"
        },
        {
          "internalType": "string",
          "name": "",
          "type": "string"
        },
        {
          "internalType": "string",
          "name": "",
          "type": "string"
        },
        {
          "internalType": "string",
          "name": "",
          "type": "string"
        },
        {
          "internalType": "address",
          "name": "",
          "type": "address"
        }
      ],
      "payable": false,
      "stateMutability": "view",
      "type": "function"
    },
    {
      "constant": true,
      "inputs": [
        {
          "internalType": "uint256",
          "name": "_id",
          "type": "uint256"
        }
      ],
      "name": "getParticularCertificateRecipientAddress",
      "outputs": [
        {
          "internalType": "address",
          "name": "",
          "type": "address"
        }
      ],
      "payable": false,
      "stateMutability": "view",
      "type": "function"
    },
    {
      "constant": true,
      "inputs": [
        {
          "internalType": "uint256",
          "name": "_id",
          "type": "uint256"
        }
      ],
      "name": "getParticularCertificateIssuerAddress",
      "outputs": [
        {
          "internalType": "address",
          "name": "",
          "type": "address"
        }
      ],
      "payable": false,
      "stateMutability": "view",
      "type": "function"
    },
    {
      "constant": false,
      "inputs": [
        {
          "internalType": "uint256",
          "name": "_id",
          "type": "uint256"
        }
      ],
      "name": "revokeCertificate",
      "outputs": [],
      "payable": false,
      "stateMutability": "nonpayable",
      "type": "function"
    }
  ],
  "bytecode": "0x60806040526000600355600060045534801561001a57600080fd5b506040516118a03803806118a08339818101604052602081101561003d57600080fd5b8101908080519060200190929190505050806000806101000a81548173ffffffffffffffffffffffffffffffffffffffff021916908373ffffffffffffffffffffffffffffffffffffffff16021790555033600160006101000a81548173ffffffffffffffffffffffffffffffffffffffff021916908373ffffffffffffffffffffffffffffffffffffffff160217905550506117c1806100df6000396000f3fe608060405234801561001057600080fd5b50600436106100cf5760003560e01c80638da5cb5b1161008c578063a6d8801711610066578063a6d88017146104d9578063b34b4648146106e2578063b705eea414610700578063c7a805a61461071e576100cf565b80638da5cb5b146104035780638fb03a021461044d57806394ca703e1461046b576100cf565b806306f5497e146100d45780630aef09ce1461010257806328f5739c146102e757806365562d4f146103055780636c4470fb1461034b5780637d7b3ace14610395575b600080fd5b610100600480360360208110156100ea57600080fd5b810190808035906020019092919050505061077a565b005b61012e6004803603602081101561011857600080fd5b8101908080359060200190929190505050610a0c565b604051808673ffffffffffffffffffffffffffffffffffffffff1673ffffffffffffffffffffffffffffffffffffffff1681526020018060200180602001806020018573ffffffffffffffffffffffffffffffffffffffff1673ffffffffffffffffffffffffffffffffffffffff168152602001848103845288818151815260200191508051906020019080838360005b838110156101da5780820151818401526020810190506101bf565b50505050905090810190601f1680156102075780820380516001836020036101000a031916815260200191505b50848103835287818151815260200191508051906020019080838360005b83811015610240578082015181840152602081019050610225565b50505050905090810190601f16801561026d5780820380516001836020036101000a031916815260200191505b50848103825286818151815260200191508051906020019080838360005b838110156102a657808201518184015260208101905061028b565b50505050905090810190601f1680156102d35780820380516001836020036101000a031916815260200191505b509850505050505050505060405180910390f35b6102ef610cac565b6040518082815260200191505060405180910390f35b6103316004803603602081101561031b57600080fd5b8101908080359060200190929190505050610cb2565b604051808215151515815260200191505060405180910390f35b610353610cf0565b604051808273ffffffffffffffffffffffffffffffffffffffff1673ffffffffffffffffffffffffffffffffffffffff16815260200191505060405180910390f35b6103c1600480360360208110156103ab57600080fd5b8101908080359060200190929190505050610d15565b604051808273ffffffffffffffffffffffffffffffffffffffff1673ffffffffffffffffffffffffffffffffffffffff16815260200191505060405180910390f35b61040b610dd5565b604051808273ffffffffffffffffffffffffffffffffffffffff1673ffffffffffffffffffffffffffffffffffffffff16815260200191505060405180910390f35b610455610dfb565b6040518082815260200191505060405180910390f35b6104976004803603602081101561048157600080fd5b8101908080359060200190929190505050610e05565b604051808273ffffffffffffffffffffffffffffffffffffffff1673ffffffffffffffffffffffffffffffffffffffff16815260200191505060405180910390f35b6106e0600480360360808110156104ef57600080fd5b81019080803573ffffffffffffffffffffffffffffffffffffffff1690602001909291908035906020019064010000000081111561052c57600080fd5b82018360208201111561053e57600080fd5b8035906020019184600183028401116401000000008311171561056057600080fd5b91908080601f016020809104026020016040519081016040528093929190818152602001838380828437600081840152601f19601f820116905080830192505050505050509192919290803590602001906401000000008111156105c357600080fd5b8201836020820111156105d557600080fd5b803590602001918460018302840111640100000000831117156105f757600080fd5b91908080601f016020809104026020016040519081016040528093929190818152602001838380828437600081840152601f19601f8201169050808301925050505050505091929192908035906020019064010000000081111561065a57600080fd5b82018360208201111561066c57600080fd5b8035906020019184600183028401116401000000008311171561068e57600080fd5b91908080601f016020809104026020016040519081016040528093929190818152602001838380828437600081840152601f19601f820116905080830192505050505050509192919290505050610ec5565b005b6106ea61158f565b6040518082815260200191505060405180910390f35b610708611595565b6040518082815260200191505060405180910390f35b6107606004803603602081101561073457600080fd5b81019080803573ffffffffffffffffffffffffffffffffffffffff16906020019092919050505061159f565b604051808215151515815260200191505060405180910390f35b600115156002600083815260200190815260200160002060060160009054906101000a900460ff161515146107fa576040517f08c379a000000000000000000000000000000000000000000000000000000000815260040180806020018281038252603a815260200180611753603a913960400191505060405180910390fd5b60026000809054906101000a900473ffffffffffffffffffffffffffffffffffffffff1673ffffffffffffffffffffffffffffffffffffffff1663256dced2336040518263ffffffff1660e01b8152600401808273ffffffffffffffffffffffffffffffffffffffff1673ffffffffffffffffffffffffffffffffffffffff16815260200191505060206040518083038186803b15801561089a57600080fd5b505afa1580156108ae573d6000803e3d6000fd5b505050506040513d60208110156108c457600080fd5b810190808051906020019092919050505014610948576040517f08c379a00000000000000000000000000000000000000000000000000000000081526004018080602001828103825260118152602001807f5065726d697373696f6e2064656e69656400000000000000000000000000000081525060200191505060405180910390fd5b6003600081546001900391905081905550600260008281526020019081526020016000206000808201600090556001820160006101000a81549073ffffffffffffffffffffffffffffffffffffffff02191690556002820160006101000a81549073ffffffffffffffffffffffffffffffffffffffff02191690556003820160006109d39190611644565b6004820160006109e39190611644565b6005820160006109f39190611644565b6006820160006101000a81549060ff0219169055505050565b6000606080606060006002600087815260200190815260200160002060020160009054906101000a900473ffffffffffffffffffffffffffffffffffffffff166002600088815260200190815260200160002060030160026000898152602001908152602001600020600401600260008a8152602001908152602001600020600501600260008b815260200190815260200160002060010160009054906101000a900473ffffffffffffffffffffffffffffffffffffffff16838054600181600116156101000203166002900480601f016020809104026020016040519081016040528092919081815260200182805460018160011615610100020316600290048015610b5a5780601f10610b2f57610100808354040283529160200191610b5a565b820191906000526020600020905b815481529060010190602001808311610b3d57829003601f168201915b50505050509350828054600181600116156101000203166002900480601f016020809104026020016040519081016040528092919081815260200182805460018160011615610100020316600290048015610bf65780601f10610bcb57610100808354040283529160200191610bf6565b820191906000526020600020905b815481529060010190602001808311610bd957829003601f168201915b50505050509250818054600181600116156101000203166002900480601f016020809104026020016040519081016040528092919081815260200182805460018160011615610100020316600290048015610c925780601f10610c6757610100808354040283529160200191610c92565b820191906000526020600020905b815481529060010190602001808311610c7557829003601f168201915b505050505091509450945094509450945091939590929450565b60045481565b60006002600083815260200190815260200160002060060160009054906101000a900460ff1615610ce65760019050610ceb565b600090505b919050565b6000809054906101000a900473ffffffffffffffffffffffffffffffffffffffff1681565b6000600115156002600084815260200190815260200160002060060160009054906101000a900460ff16151514610d97576040517f08c379a000000000000000000000000000000000000000000000000000000000815260040180806020018281038252603a815260200180611753603a913960400191505060405180910390fd5b6002600083815260200190815260200160002060020160009054906101000a900473ffffffffffffffffffffffffffffffffffffffff169050919050565b600160009054906101000a900473ffffffffffffffffffffffffffffffffffffffff1681565b6000600354905090565b6000600115156002600084815260200190815260200160002060060160009054906101000a900460ff16151514610e87576040517f08c379a000000000000000000000000000000000000000000000000000000000815260040180806020018281038252603a815260200180611753603a913960400191505060405180910390fd5b6002600083815260200190815260200160002060010160009054906101000a900473ffffffffffffffffffffffffffffffffffffffff169050919050565b600115156000809054906101000a900473ffffffffffffffffffffffffffffffffffffffff1673ffffffffffffffffffffffffffffffffffffffff16639371de2b866040518263ffffffff1660e01b8152600401808273ffffffffffffffffffffffffffffffffffffffff1673ffffffffffffffffffffffffffffffffffffffff16815260200191505060206040518083038186803b158015610f6757600080fd5b505afa158015610f7b573d6000803e3d6000fd5b505050506040513d6020811015610f9157600080fd5b8101908080519060200190929190505050151514610ffa576040517f08c379a00000000000000000000000000000000000000000000000000000000081526004018080602001828103825260218152602001806117326021913960400191505060405180910390fd5b60026000809054906101000a900473ffffffffffffffffffffffffffffffffffffffff1673ffffffffffffffffffffffffffffffffffffffff1663256dced2336040518263ffffffff1660e01b8152600401808273ffffffffffffffffffffffffffffffffffffffff1673ffffffffffffffffffffffffffffffffffffffff16815260200191505060206040518083038186803b15801561109a57600080fd5b505afa1580156110ae573d6000803e3d6000fd5b505050506040513d60208110156110c457600080fd5b81019080805190602001909291905050501480156111ba575060036000809054906101000a900473ffffffffffffffffffffffffffffffffffffffff1673ffffffffffffffffffffffffffffffffffffffff1663256dced2866040518263ffffffff1660e01b8152600401808273ffffffffffffffffffffffffffffffffffffffff1673ffffffffffffffffffffffffffffffffffffffff16815260200191505060206040518083038186803b15801561117d57600080fd5b505afa158015611191573d6000803e3d6000fd5b505050506040513d60208110156111a757600080fd5b8101908080519060200190929190505050145b61122c576040517f08c379a00000000000000000000000000000000000000000000000000000000081526004018080602001828103825260118152602001807f5065726d697373696f6e2064656e69656400000000000000000000000000000081525060200191505060405180910390fd5b600360008154600101919050819055506040518060e0016040528060045481526020013373ffffffffffffffffffffffffffffffffffffffff1681526020018573ffffffffffffffffffffffffffffffffffffffff1681526020018481526020018381526020018281526020016001151581525060026000600460008154809291906001019190505581526020019081526020016000206000820151816000015560208201518160010160006101000a81548173ffffffffffffffffffffffffffffffffffffffff021916908373ffffffffffffffffffffffffffffffffffffffff16021790555060408201518160020160006101000a81548173ffffffffffffffffffffffffffffffffffffffff021916908373ffffffffffffffffffffffffffffffffffffffff160217905550606082015181600301908051906020019061137792919061168c565b50608082015181600401908051906020019061139492919061168c565b5060a08201518160050190805190602001906113b192919061168c565b5060c08201518160060160006101000a81548160ff0219169083151502179055509050507fb6e5c25f42b87347c37285e3250ef625ba87d2deab893640cf0877311d8cf94d60045485858585604051808681526020018573ffffffffffffffffffffffffffffffffffffffff1673ffffffffffffffffffffffffffffffffffffffff168152602001806020018060200180602001848103845287818151815260200191508051906020019080838360005b8381101561147d578082015181840152602081019050611462565b50505050905090810190601f1680156114aa5780820380516001836020036101000a031916815260200191505b50848103835286818151815260200191508051906020019080838360005b838110156114e35780820151818401526020810190506114c8565b50505050905090810190601f1680156115105780820380516001836020036101000a031916815260200191505b50848103825285818151815260200191508051906020019080838360005b8381101561154957808201518184015260208101905061152e565b50505050905090810190601f1680156115765780820380516001836020036101000a031916815260200191505b509850505050505050505060405180910390a150505050565b60035481565b6000600454905090565b6000600160009054906101000a900473ffffffffffffffffffffffffffffffffffffffff1673ffffffffffffffffffffffffffffffffffffffff163373ffffffffffffffffffffffffffffffffffffffff16146115fb57600080fd5b816000806101000a81548173ffffffffffffffffffffffffffffffffffffffff021916908373ffffffffffffffffffffffffffffffffffffffff16021790555060019050919050565b50805460018160011615610100020316600290046000825580601f1061166a5750611689565b601f016020900490600052602060002090810190611688919061170c565b5b50565b828054600181600116156101000203166002900490600052602060002090601f016020900481019282601f106116cd57805160ff19168380011785556116fb565b828001600101855582156116fb579182015b828111156116fa5782518255916020019190600101906116df565b5b509050611708919061170c565b5090565b61172e91905b8082111561172a576000816000905550600101611712565b5090565b9056fe5573657220646f6573206e6f7420657869737420696e207468652073797374656d436572746966696361746520776974682074686520676976656e20494420646f6573206e6f7420657869737420696e207468652073797374656da265627a7a72315820784b60eb60397b9459dec22e6bfbff2a652cf5d8e6e9616171a4735caaec73c864736f6c63430005100032",
  "source": "pragma solidity >=0.4.22;\r\nimport \"./Participants.sol\";\r\n\r\ncontract Certificates {\r\n    Participants public participants;\r\n    address public owner;\r\n    mapping(uint256 => Certificate) certificatesList;\r\n    uint256 public certificatesCount = 0;\r\n    uint256 public totalCertificatesCount = 0;\r\n\r\n    struct Certificate {\r\n        uint256 id;\r\n        address issuerAddr;\r\n        address recipientAddr;\r\n        string certificateHash;\r\n        string ipfsHash;\r\n        string encKey;\r\n        bool exists;\r\n    }\r\n\r\n    event certificateCreationEvent(\r\n        uint256 id,\r\n        address recipientAddr,\r\n        string certificateHash,\r\n        string ipfsHash,\r\n        string encKey\r\n    );\r\n\r\n    modifier onlyOwner {\r\n        require(msg.sender == owner);\r\n        _;\r\n    }\r\n\r\n    constructor(address participantsContractAddress) public {\r\n        participants = Participants(participantsContractAddress);\r\n        owner = msg.sender;\r\n    }\r\n\r\n    function changeParticipantsContractAddress(\r\n        address newParticipantsContractAddress\r\n    ) public onlyOwner returns (bool) {\r\n        participants = Participants(newParticipantsContractAddress);\r\n        return true;\r\n    }\r\n\r\n    function createCertificate(\r\n        address _recipientAddr,\r\n        string memory _certificateHash,\r\n        string memory _ipfsHash,\r\n        string memory _encKey\r\n    ) public {\r\n        require(\r\n            participants.checkIfUserExists(_recipientAddr) == true,\r\n            \"User does not exist in the system\"\r\n        );\r\n        require(\r\n            participants.getParticularUsersType(msg.sender) == 2 &&\r\n                participants.getParticularUsersType(_recipientAddr) == 3,\r\n            \"Permission denied\"\r\n        );\r\n        ++certificatesCount;\r\n        certificatesList[totalCertificatesCount++] = Certificate(\r\n            totalCertificatesCount,\r\n            msg.sender,\r\n            _recipientAddr,\r\n            _certificateHash,\r\n            _ipfsHash,\r\n            _encKey,\r\n            true\r\n        );\r\n        emit certificateCreationEvent(\r\n            totalCertificatesCount,\r\n            _recipientAddr,\r\n            _certificateHash,\r\n            _ipfsHash,\r\n            _encKey\r\n        );\r\n    }\r\n\r\n    // function getUserCertificates() public returns(uint, uint[] memory) {\r\n    //     require(participants.checkIfUserExists(msg.sender)==true, \"User does not exist in the system\");\r\n    //     uint[] memory certificatesId;\r\n    //     uint cnt=0;\r\n    //     for(uint i=0; i<certificatesCount; i++){\r\n    //         a = certificatesList[i].recipientAddr;\r\n    //         if(certificatesList[i].recipientAddr == msg.sender){\r\n\r\n    //             ++c;\r\n    //             certificatesId[cnt++]=certificatesList[i].id;\r\n    //         }\r\n    //     }\r\n    //     return (cnt, certificatesId);\r\n    // }\r\n\r\n    function getCertificatesCount() public view returns (uint256) {\r\n        return certificatesCount;\r\n    }\r\n    function getTotalCertificatesCount() public view returns (uint256) {\r\n        return totalCertificatesCount;\r\n    }\r\n    function checkIfCertificateExists(uint256 _id) public view returns (bool) {\r\n        if(certificatesList[_id].exists) return true;\r\n        return false;\r\n    }\r\n\r\n    function getParticularCertificate(uint256 _id)\r\n        public\r\n        view\r\n        returns (\r\n            address,\r\n            string memory,\r\n            string memory,\r\n            string memory,\r\n            address \r\n        )\r\n    {\r\n        /*require(\r\n            certificatesList[_id].exists == true,\r\n            \"Certificate with the given ID does not exist in the system\"\r\n        );*/\r\n        return (\r\n            certificatesList[_id].recipientAddr,\r\n            certificatesList[_id].certificateHash,\r\n            certificatesList[_id].ipfsHash,\r\n            certificatesList[_id].encKey,\r\n            certificatesList[_id].issuerAddr\r\n        );\r\n    }\r\n\r\n    function getParticularCertificateRecipientAddress(uint256 _id)\r\n        public\r\n        view\r\n        returns (address)\r\n    {\r\n        require(\r\n            certificatesList[_id].exists == true,\r\n            \"Certificate with the given ID does not exist in the system\"\r\n        );\r\n        \r\n        return (\r\n            certificatesList[_id].recipientAddr            \r\n        );\r\n    }\r\n    function getParticularCertificateIssuerAddress(uint256 _id)\r\n        public\r\n        view\r\n        returns (address)\r\n    {\r\n        require(\r\n            certificatesList[_id].exists == true,\r\n            \"Certificate with the given ID does not exist in the system\"\r\n        );\r\n        \r\n        return (\r\n            certificatesList[_id].issuerAddr            \r\n        );\r\n    }\r\n    \r\n    function revokeCertificate(uint256 _id)\r\n        public\r\n    {\r\n        require(\r\n            certificatesList[_id].exists == true,\r\n            \"Certificate with the given ID does not exist in the system\"\r\n        );\r\n        require(\r\n            participants.getParticularUsersType(msg.sender) == 2,\r\n            \"Permission denied\"\r\n        );\r\n        --certificatesCount;\r\n        delete certificatesList[_id];\r\n    }\r\n\r\n    // function getParticularInstitutionCertificates(string memory _institution) view public returns(uint[] memory) {\r\n    //     require(participants.checkIfInstitutionExists(_institution)==true, \"Given institution does not exist in the system\");uint[] memory certificatesId;\r\n    //     uint cnt=0;\r\n    //     uint[] memory certificatesId;\r\n    //     for(uint i=0; i<certificatesCount; i++){\r\n    //         if(keccak256(abi.encodePacked(participants.getParticularUsersInstitution(certificatesList[i].recipientAddr)))\r\n    //         == keccak256(abi.encodePacked(_institution))){\r\n    //             certificatesId[cnt++]=certificatesList[i].id;\r\n    //         }\r\n    //     }\r\n    //     return certificatesId;\r\n    // }\r\n}\r\n",
  "sourcePath": "C:/Users/smuth/Desktop/DAPP-FYP/contracts/Certificates.sol",
  "compiler": {
    "name": "solc",
    "version": "0.5.16+commit.9c3226ce.Emscripten.clang"
  },
  "schemaVersion": "3.3.2",
  "updatedAt": "2021-04-07T03:32:48.307Z",
  "networkType": "ethereum",
  "devdoc": {
    "methods": {}
  },
  "userdoc": {
    "methods": {}
  }
}