{
  "contractName": "Certificates",
  "abi": [
    {
      "inputs": [
        {
          "internalType": "address",
          "name": "participantsContractAddress",
          "type": "address"
        }
      ],
      "payable": false,
      "stateMutability": "nonpayable",
      "type": "constructor"
    },
    {
      "anonymous": false,
      "inputs": [
        {
          "indexed": false,
          "internalType": "uint256",
          "name": "id",
          "type": "uint256"
        },
        {
          "indexed": false,
          "internalType": "address",
          "name": "recipientAddr",
          "type": "address"
        },
        {
          "indexed": false,
          "internalType": "string",
          "name": "certificateHash",
          "type": "string"
        },
        {
          "indexed": false,
          "internalType": "string",
          "name": "ipfsHash",
          "type": "string"
        },
        {
          "indexed": false,
          "internalType": "string",
          "name": "encKey",
          "type": "string"
        }
      ],
      "name": "certificateCreationEvent",
      "type": "event"
    },
    {
      "constant": true,
      "inputs": [],
      "name": "certificatesCount",
      "outputs": [
        {
          "internalType": "uint256",
          "name": "",
          "type": "uint256"
        }
      ],
      "payable": false,
      "stateMutability": "view",
      "type": "function"
    },
    {
      "constant": true,
      "inputs": [],
      "name": "owner",
      "outputs": [
        {
          "internalType": "address",
          "name": "",
          "type": "address"
        }
      ],
      "payable": false,
      "stateMutability": "view",
      "type": "function"
    },
    {
      "constant": true,
      "inputs": [],
      "name": "participants",
      "outputs": [
        {
          "internalType": "contract Participants",
          "name": "",
          "type": "address"
        }
      ],
      "payable": false,
      "stateMutability": "view",
      "type": "function"
    },
    {
      "constant": true,
      "inputs": [],
      "name": "totalCertificatesCount",
      "outputs": [
        {
          "internalType": "uint256",
          "name": "",
          "type": "uint256"
        }
      ],
      "payable": false,
      "stateMutability": "view",
      "type": "function"
    },
    {
      "constant": false,
      "inputs": [
        {
          "internalType": "address",
          "name": "newParticipantsContractAddress",
          "type": "address"
        }
      ],
      "name": "changeParticipantsContractAddress",
      "outputs": [
        {
          "internalType": "bool",
          "name": "",
          "type": "bool"
        }
      ],
      "payable": false,
      "stateMutability": "nonpayable",
      "type": "function"
    },
    {
      "constant": false,
      "inputs": [
        {
          "internalType": "address",
          "name": "_recipientAddr",
          "type": "address"
        },
        {
          "internalType": "string",
          "name": "_certificateHash",
          "type": "string"
        },
        {
          "internalType": "string",
          "name": "_ipfsHash",
          "type": "string"
        },
        {
          "internalType": "string",
          "name": "_encKey",
          "type": "string"
        }
      ],
      "name": "createCertificate",
      "outputs": [],
      "payable": false,
      "stateMutability": "nonpayable",
      "type": "function"
    },
    {
      "constant": true,
      "inputs": [],
      "name": "getCertificatesCount",
      "outputs": [
        {
          "internalType": "uint256",
          "name": "",
          "type": "uint256"
        }
      ],
      "payable": false,
      "stateMutability": "view",
      "type": "function"
    },
    {
      "constant": true,
      "inputs": [],
      "name": "getTotalCertificatesCount",
      "outputs": [
        {
          "internalType": "uint256",
          "name": "",
          "type": "uint256"
        }
      ],
      "payable": false,
      "stateMutability": "view",
      "type": "function"
    },
    {
      "constant": true,
      "inputs": [
        {
          "internalType": "uint256",
          "name": "_id",
          "type": "uint256"
        }
      ],
      "name": "checkIfCertificateExists",
      "outputs": [
        {
          "internalType": "bool",
          "name": "",
          "type": "bool"
        }
      ],
      "payable": false,
      "stateMutability": "view",
      "type": "function"
    },
    {
      "constant": true,
      "inputs": [
        {
          "internalType": "uint256",
          "name": "_id",
          "type": "uint256"
        }
      ],
      "name": "getParticularCertificate",
      "outputs": [
        {
          "internalType": "address",
          "name": "",
          "type": "address"
        },
        {
          "internalType": "string",
          "name": "",
          "type": "string"
        },
        {
          "internalType": "string",
          "name": "",
          "type": "string"
        },
        {
          "internalType": "string",
          "name": "",
          "type": "string"
        }
      ],
      "payable": false,
      "stateMutability": "view",
      "type": "function"
    },
    {
      "constant": true,
      "inputs": [
        {
          "internalType": "uint256",
          "name": "_id",
          "type": "uint256"
        }
      ],
      "name": "getParticularCertificateRecipientAddress",
      "outputs": [
        {
          "internalType": "address",
          "name": "",
          "type": "address"
        }
      ],
      "payable": false,
      "stateMutability": "view",
      "type": "function"
    },
    {
      "constant": true,
      "inputs": [
        {
          "internalType": "uint256",
          "name": "_id",
          "type": "uint256"
        }
      ],
      "name": "getParticularCertificateIssuerAddress",
      "outputs": [
        {
          "internalType": "address",
          "name": "",
          "type": "address"
        }
      ],
      "payable": false,
      "stateMutability": "view",
      "type": "function"
    },
    {
      "constant": false,
      "inputs": [
        {
          "internalType": "uint256",
          "name": "_id",
          "type": "uint256"
        }
      ],
      "name": "revokeCertificate",
      "outputs": [],
      "payable": false,
      "stateMutability": "nonpayable",
      "type": "function"
    }
  ],
  "bytecode": "0x60806040526000600355600060045534801561001a57600080fd5b506040516118303803806118308339818101604052602081101561003d57600080fd5b8101908080519060200190929190505050806000806101000a81548173ffffffffffffffffffffffffffffffffffffffff021916908373ffffffffffffffffffffffffffffffffffffffff16021790555033600160006101000a81548173ffffffffffffffffffffffffffffffffffffffff021916908373ffffffffffffffffffffffffffffffffffffffff16021790555050611751806100df6000396000f3fe608060405234801561001057600080fd5b50600436106100cf5760003560e01c80638da5cb5b1161008c578063a6d8801711610066578063a6d88017146104a6578063b34b4648146106af578063b705eea4146106cd578063c7a805a6146106eb576100cf565b80638da5cb5b146103d05780638fb03a021461041a57806394ca703e14610438576100cf565b806306f5497e146100d45780630aef09ce1461010257806328f5739c146102b457806365562d4f146102d25780636c4470fb146103185780637d7b3ace14610362575b600080fd5b610100600480360360208110156100ea57600080fd5b8101908080359060200190929190505050610747565b005b61012e6004803603602081101561011857600080fd5b81019080803590602001909291905050506109d9565b604051808573ffffffffffffffffffffffffffffffffffffffff1673ffffffffffffffffffffffffffffffffffffffff168152602001806020018060200180602001848103845287818151815260200191508051906020019080838360005b838110156101a857808201518184015260208101905061018d565b50505050905090810190601f1680156101d55780820380516001836020036101000a031916815260200191505b50848103835286818151815260200191508051906020019080838360005b8381101561020e5780820151818401526020810190506101f3565b50505050905090810190601f16801561023b5780820380516001836020036101000a031916815260200191505b50848103825285818151815260200191508051906020019080838360005b83811015610274578082015181840152602081019050610259565b50505050905090810190601f1680156102a15780820380516001836020036101000a031916815260200191505b5097505050505050505060405180910390f35b6102bc610c3c565b6040518082815260200191505060405180910390f35b6102fe600480360360208110156102e857600080fd5b8101908080359060200190929190505050610c42565b604051808215151515815260200191505060405180910390f35b610320610c80565b604051808273ffffffffffffffffffffffffffffffffffffffff1673ffffffffffffffffffffffffffffffffffffffff16815260200191505060405180910390f35b61038e6004803603602081101561037857600080fd5b8101908080359060200190929190505050610ca5565b604051808273ffffffffffffffffffffffffffffffffffffffff1673ffffffffffffffffffffffffffffffffffffffff16815260200191505060405180910390f35b6103d8610d65565b604051808273ffffffffffffffffffffffffffffffffffffffff1673ffffffffffffffffffffffffffffffffffffffff16815260200191505060405180910390f35b610422610d8b565b6040518082815260200191505060405180910390f35b6104646004803603602081101561044e57600080fd5b8101908080359060200190929190505050610d95565b604051808273ffffffffffffffffffffffffffffffffffffffff1673ffffffffffffffffffffffffffffffffffffffff16815260200191505060405180910390f35b6106ad600480360360808110156104bc57600080fd5b81019080803573ffffffffffffffffffffffffffffffffffffffff169060200190929190803590602001906401000000008111156104f957600080fd5b82018360208201111561050b57600080fd5b8035906020019184600183028401116401000000008311171561052d57600080fd5b91908080601f016020809104026020016040519081016040528093929190818152602001838380828437600081840152601f19601f8201169050808301925050505050505091929192908035906020019064010000000081111561059057600080fd5b8201836020820111156105a257600080fd5b803590602001918460018302840111640100000000831117156105c457600080fd5b91908080601f016020809104026020016040519081016040528093929190818152602001838380828437600081840152601f19601f8201169050808301925050505050505091929192908035906020019064010000000081111561062757600080fd5b82018360208201111561063957600080fd5b8035906020019184600183028401116401000000008311171561065b57600080fd5b91908080601f016020809104026020016040519081016040528093929190818152602001838380828437600081840152601f19601f820116905080830192505050505050509192919290505050610e55565b005b6106b761151f565b6040518082815260200191505060405180910390f35b6106d5611525565b6040518082815260200191505060405180910390f35b61072d6004803603602081101561070157600080fd5b81019080803573ffffffffffffffffffffffffffffffffffffffff16906020019092919050505061152f565b604051808215151515815260200191505060405180910390f35b600115156002600083815260200190815260200160002060060160009054906101000a900460ff161515146107c7576040517f08c379a000000000000000000000000000000000000000000000000000000000815260040180806020018281038252603a8152602001806116e3603a913960400191505060405180910390fd5b60026000809054906101000a900473ffffffffffffffffffffffffffffffffffffffff1673ffffffffffffffffffffffffffffffffffffffff1663256dced2336040518263ffffffff1660e01b8152600401808273ffffffffffffffffffffffffffffffffffffffff1673ffffffffffffffffffffffffffffffffffffffff16815260200191505060206040518083038186803b15801561086757600080fd5b505afa15801561087b573d6000803e3d6000fd5b505050506040513d602081101561089157600080fd5b810190808051906020019092919050505014610915576040517f08c379a00000000000000000000000000000000000000000000000000000000081526004018080602001828103825260118152602001807f5065726d697373696f6e2064656e69656400000000000000000000000000000081525060200191505060405180910390fd5b6003600081546001900391905081905550600260008281526020019081526020016000206000808201600090556001820160006101000a81549073ffffffffffffffffffffffffffffffffffffffff02191690556002820160006101000a81549073ffffffffffffffffffffffffffffffffffffffff02191690556003820160006109a091906115d4565b6004820160006109b091906115d4565b6005820160006109c091906115d4565b6006820160006101000a81549060ff0219169055505050565b600060608060606002600086815260200190815260200160002060020160009054906101000a900473ffffffffffffffffffffffffffffffffffffffff16600260008781526020019081526020016000206003016002600088815260200190815260200160002060040160026000898152602001908152602001600020600501828054600181600116156101000203166002900480601f016020809104026020016040519081016040528092919081815260200182805460018160011615610100020316600290048015610aee5780601f10610ac357610100808354040283529160200191610aee565b820191906000526020600020905b815481529060010190602001808311610ad157829003601f168201915b50505050509250818054600181600116156101000203166002900480601f016020809104026020016040519081016040528092919081815260200182805460018160011615610100020316600290048015610b8a5780601f10610b5f57610100808354040283529160200191610b8a565b820191906000526020600020905b815481529060010190602001808311610b6d57829003601f168201915b50505050509150808054600181600116156101000203166002900480601f016020809104026020016040519081016040528092919081815260200182805460018160011615610100020316600290048015610c265780601f10610bfb57610100808354040283529160200191610c26565b820191906000526020600020905b815481529060010190602001808311610c0957829003601f168201915b5050505050905093509350935093509193509193565b60045481565b60006002600083815260200190815260200160002060060160009054906101000a900460ff1615610c765760019050610c7b565b600090505b919050565b6000809054906101000a900473ffffffffffffffffffffffffffffffffffffffff1681565b6000600115156002600084815260200190815260200160002060060160009054906101000a900460ff16151514610d27576040517f08c379a000000000000000000000000000000000000000000000000000000000815260040180806020018281038252603a8152602001806116e3603a913960400191505060405180910390fd5b6002600083815260200190815260200160002060020160009054906101000a900473ffffffffffffffffffffffffffffffffffffffff169050919050565b600160009054906101000a900473ffffffffffffffffffffffffffffffffffffffff1681565b6000600354905090565b6000600115156002600084815260200190815260200160002060060160009054906101000a900460ff16151514610e17576040517f08c379a000000000000000000000000000000000000000000000000000000000815260040180806020018281038252603a8152602001806116e3603a913960400191505060405180910390fd5b6002600083815260200190815260200160002060010160009054906101000a900473ffffffffffffffffffffffffffffffffffffffff169050919050565b600115156000809054906101000a900473ffffffffffffffffffffffffffffffffffffffff1673ffffffffffffffffffffffffffffffffffffffff16639371de2b866040518263ffffffff1660e01b8152600401808273ffffffffffffffffffffffffffffffffffffffff1673ffffffffffffffffffffffffffffffffffffffff16815260200191505060206040518083038186803b158015610ef757600080fd5b505afa158015610f0b573d6000803e3d6000fd5b505050506040513d6020811015610f2157600080fd5b8101908080519060200190929190505050151514610f8a576040517f08c379a00000000000000000000000000000000000000000000000000000000081526004018080602001828103825260218152602001806116c26021913960400191505060405180910390fd5b60026000809054906101000a900473ffffffffffffffffffffffffffffffffffffffff1673ffffffffffffffffffffffffffffffffffffffff1663256dced2336040518263ffffffff1660e01b8152600401808273ffffffffffffffffffffffffffffffffffffffff1673ffffffffffffffffffffffffffffffffffffffff16815260200191505060206040518083038186803b15801561102a57600080fd5b505afa15801561103e573d6000803e3d6000fd5b505050506040513d602081101561105457600080fd5b810190808051906020019092919050505014801561114a575060036000809054906101000a900473ffffffffffffffffffffffffffffffffffffffff1673ffffffffffffffffffffffffffffffffffffffff1663256dced2866040518263ffffffff1660e01b8152600401808273ffffffffffffffffffffffffffffffffffffffff1673ffffffffffffffffffffffffffffffffffffffff16815260200191505060206040518083038186803b15801561110d57600080fd5b505afa158015611121573d6000803e3d6000fd5b505050506040513d602081101561113757600080fd5b8101908080519060200190929190505050145b6111bc576040517f08c379a00000000000000000000000000000000000000000000000000000000081526004018080602001828103825260118152602001807f5065726d697373696f6e2064656e69656400000000000000000000000000000081525060200191505060405180910390fd5b600360008154600101919050819055506040518060e0016040528060045481526020013373ffffffffffffffffffffffffffffffffffffffff1681526020018573ffffffffffffffffffffffffffffffffffffffff1681526020018481526020018381526020018281526020016001151581525060026000600460008154809291906001019190505581526020019081526020016000206000820151816000015560208201518160010160006101000a81548173ffffffffffffffffffffffffffffffffffffffff021916908373ffffffffffffffffffffffffffffffffffffffff16021790555060408201518160020160006101000a81548173ffffffffffffffffffffffffffffffffffffffff021916908373ffffffffffffffffffffffffffffffffffffffff160217905550606082015181600301908051906020019061130792919061161c565b50608082015181600401908051906020019061132492919061161c565b5060a082015181600501908051906020019061134192919061161c565b5060c08201518160060160006101000a81548160ff0219169083151502179055509050507fb6e5c25f42b87347c37285e3250ef625ba87d2deab893640cf0877311d8cf94d60045485858585604051808681526020018573ffffffffffffffffffffffffffffffffffffffff1673ffffffffffffffffffffffffffffffffffffffff168152602001806020018060200180602001848103845287818151815260200191508051906020019080838360005b8381101561140d5780820151818401526020810190506113f2565b50505050905090810190601f16801561143a5780820380516001836020036101000a031916815260200191505b50848103835286818151815260200191508051906020019080838360005b83811015611473578082015181840152602081019050611458565b50505050905090810190601f1680156114a05780820380516001836020036101000a031916815260200191505b50848103825285818151815260200191508051906020019080838360005b838110156114d95780820151818401526020810190506114be565b50505050905090810190601f1680156115065780820380516001836020036101000a031916815260200191505b509850505050505050505060405180910390a150505050565b60035481565b6000600454905090565b6000600160009054906101000a900473ffffffffffffffffffffffffffffffffffffffff1673ffffffffffffffffffffffffffffffffffffffff163373ffffffffffffffffffffffffffffffffffffffff161461158b57600080fd5b816000806101000a81548173ffffffffffffffffffffffffffffffffffffffff021916908373ffffffffffffffffffffffffffffffffffffffff16021790555060019050919050565b50805460018160011615610100020316600290046000825580601f106115fa5750611619565b601f016020900490600052602060002090810190611618919061169c565b5b50565b828054600181600116156101000203166002900490600052602060002090601f016020900481019282601f1061165d57805160ff191683800117855561168b565b8280016001018555821561168b579182015b8281111561168a57825182559160200191906001019061166f565b5b509050611698919061169c565b5090565b6116be91905b808211156116ba5760008160009055506001016116a2565b5090565b9056fe5573657220646f6573206e6f7420657869737420696e207468652073797374656d436572746966696361746520776974682074686520676976656e20494420646f6573206e6f7420657869737420696e207468652073797374656da265627a7a723158201e2130ae2c3f54e4b4c1b4136d4a0e387ed2bed23132dc55438d668169f8eee664736f6c63430005100032",
  "source": "pragma solidity >=0.4.22;\r\nimport \"./Participants.sol\";\r\n\r\ncontract Certificates {\r\n    Participants public participants;\r\n    address public owner;\r\n    mapping(uint256 => Certificate) certificatesList;\r\n    uint256 public certificatesCount = 0;\r\n    uint256 public totalCertificatesCount = 0;\r\n\r\n    struct Certificate {\r\n        uint256 id;\r\n        address issuerAddr;\r\n        address recipientAddr;\r\n        string certificateHash;\r\n        string ipfsHash;\r\n        string encKey;\r\n        bool exists;\r\n    }\r\n\r\n    event certificateCreationEvent(\r\n        uint256 id,\r\n        address recipientAddr,\r\n        string certificateHash,\r\n        string ipfsHash,\r\n        string encKey\r\n    );\r\n\r\n    modifier onlyOwner {\r\n        require(msg.sender == owner);\r\n        _;\r\n    }\r\n\r\n    constructor(address participantsContractAddress) public {\r\n        participants = Participants(participantsContractAddress);\r\n        owner = msg.sender;\r\n    }\r\n\r\n    function changeParticipantsContractAddress(\r\n        address newParticipantsContractAddress\r\n    ) public onlyOwner returns (bool) {\r\n        participants = Participants(newParticipantsContractAddress);\r\n        return true;\r\n    }\r\n\r\n    function createCertificate(\r\n        address _recipientAddr,\r\n        string memory _certificateHash,\r\n        string memory _ipfsHash,\r\n        string memory _encKey\r\n    ) public {\r\n        require(\r\n            participants.checkIfUserExists(_recipientAddr) == true,\r\n            \"User does not exist in the system\"\r\n        );\r\n        require(\r\n            participants.getParticularUsersType(msg.sender) == 2 &&\r\n                participants.getParticularUsersType(_recipientAddr) == 3,\r\n            \"Permission denied\"\r\n        );\r\n        ++certificatesCount;\r\n        certificatesList[totalCertificatesCount++] = Certificate(\r\n            totalCertificatesCount,\r\n            msg.sender,\r\n            _recipientAddr,\r\n            _certificateHash,\r\n            _ipfsHash,\r\n            _encKey,\r\n            true\r\n        );\r\n        emit certificateCreationEvent(\r\n            totalCertificatesCount,\r\n            _recipientAddr,\r\n            _certificateHash,\r\n            _ipfsHash,\r\n            _encKey\r\n        );\r\n    }\r\n\r\n    // function getUserCertificates() public returns(uint, uint[] memory) {\r\n    //     require(participants.checkIfUserExists(msg.sender)==true, \"User does not exist in the system\");\r\n    //     uint[] memory certificatesId;\r\n    //     uint cnt=0;\r\n    //     for(uint i=0; i<certificatesCount; i++){\r\n    //         a = certificatesList[i].recipientAddr;\r\n    //         if(certificatesList[i].recipientAddr == msg.sender){\r\n\r\n    //             ++c;\r\n    //             certificatesId[cnt++]=certificatesList[i].id;\r\n    //         }\r\n    //     }\r\n    //     return (cnt, certificatesId);\r\n    // }\r\n\r\n    function getCertificatesCount() public view returns (uint256) {\r\n        return certificatesCount;\r\n    }\r\n    function getTotalCertificatesCount() public view returns (uint256) {\r\n        return totalCertificatesCount;\r\n    }\r\n    function checkIfCertificateExists(uint256 _id) public view returns (bool) {\r\n        if(certificatesList[_id].exists) return true;\r\n        return false;\r\n    }\r\n\r\n    function getParticularCertificate(uint256 _id)\r\n        public\r\n        view\r\n        returns (\r\n            address,\r\n            string memory,\r\n            string memory,\r\n            string memory\r\n        )\r\n    {\r\n        /*require(\r\n            certificatesList[_id].exists == true,\r\n            \"Certificate with the given ID does not exist in the system\"\r\n        );*/\r\n        return (\r\n            certificatesList[_id].recipientAddr,\r\n            certificatesList[_id].certificateHash,\r\n            certificatesList[_id].ipfsHash,\r\n            certificatesList[_id].encKey\r\n        );\r\n    }\r\n\r\n    function getParticularCertificateRecipientAddress(uint256 _id)\r\n        public\r\n        view\r\n        returns (address)\r\n    {\r\n        require(\r\n            certificatesList[_id].exists == true,\r\n            \"Certificate with the given ID does not exist in the system\"\r\n        );\r\n        \r\n        return (\r\n            certificatesList[_id].recipientAddr            \r\n        );\r\n    }\r\n    function getParticularCertificateIssuerAddress(uint256 _id)\r\n        public\r\n        view\r\n        returns (address)\r\n    {\r\n        require(\r\n            certificatesList[_id].exists == true,\r\n            \"Certificate with the given ID does not exist in the system\"\r\n        );\r\n        \r\n        return (\r\n            certificatesList[_id].issuerAddr            \r\n        );\r\n    }\r\n    \r\n    function revokeCertificate(uint256 _id)\r\n        public\r\n    {\r\n        require(\r\n            certificatesList[_id].exists == true,\r\n            \"Certificate with the given ID does not exist in the system\"\r\n        );\r\n        require(\r\n            participants.getParticularUsersType(msg.sender) == 2,\r\n            \"Permission denied\"\r\n        );\r\n        --certificatesCount;\r\n        delete certificatesList[_id];\r\n    }\r\n\r\n    // function getParticularInstitutionCertificates(string memory _institution) view public returns(uint[] memory) {\r\n    //     require(participants.checkIfInstitutionExists(_institution)==true, \"Given institution does not exist in the system\");uint[] memory certificatesId;\r\n    //     uint cnt=0;\r\n    //     uint[] memory certificatesId;\r\n    //     for(uint i=0; i<certificatesCount; i++){\r\n    //         if(keccak256(abi.encodePacked(participants.getParticularUsersInstitution(certificatesList[i].recipientAddr)))\r\n    //         == keccak256(abi.encodePacked(_institution))){\r\n    //             certificatesId[cnt++]=certificatesList[i].id;\r\n    //         }\r\n    //     }\r\n    //     return certificatesId;\r\n    // }\r\n}\r\n",
  "sourcePath": "E:/FYP/DAPP-FYP/contracts/Certificates.sol",
  "compiler": {
    "name": "solc",
    "version": "0.5.16+commit.9c3226ce.Emscripten.clang"
  },
  "schemaVersion": "3.3.2",
  "updatedAt": "2021-04-04T10:38:01.995Z",
  "networkType": "ethereum",
  "devdoc": {
    "methods": {}
  },
  "userdoc": {
    "methods": {}
  }
}