{
  "contractName": "Certificates",
  "abi": [
    {
      "inputs": [
        {
          "internalType": "address",
          "name": "participantsContractAddress",
          "type": "address"
        }
      ],
      "payable": false,
      "stateMutability": "nonpayable",
      "type": "constructor"
    },
    {
      "anonymous": false,
      "inputs": [
        {
          "indexed": false,
          "internalType": "uint256",
          "name": "id",
          "type": "uint256"
        },
        {
          "indexed": false,
          "internalType": "address",
          "name": "recipientAddr",
          "type": "address"
        },
        {
          "indexed": false,
          "internalType": "string",
          "name": "certificateHash",
          "type": "string"
        },
        {
          "indexed": false,
          "internalType": "string",
          "name": "ipfsHash",
          "type": "string"
        },
        {
          "indexed": false,
          "internalType": "string",
          "name": "encKey",
          "type": "string"
        }
      ],
      "name": "certificateCreationEvent",
      "type": "event"
    },
    {
      "constant": true,
      "inputs": [],
      "name": "certificatesCount",
      "outputs": [
        {
          "internalType": "uint256",
          "name": "",
          "type": "uint256"
        }
      ],
      "payable": false,
      "stateMutability": "view",
      "type": "function"
    },
    {
      "constant": true,
      "inputs": [],
      "name": "owner",
      "outputs": [
        {
          "internalType": "address",
          "name": "",
          "type": "address"
        }
      ],
      "payable": false,
      "stateMutability": "view",
      "type": "function"
    },
    {
      "constant": true,
      "inputs": [],
      "name": "participants",
      "outputs": [
        {
          "internalType": "contract Participants",
          "name": "",
          "type": "address"
        }
      ],
      "payable": false,
      "stateMutability": "view",
      "type": "function"
    },
    {
      "constant": false,
      "inputs": [
        {
          "internalType": "address",
          "name": "newParticipantsContractAddress",
          "type": "address"
        }
      ],
      "name": "changeParticipantsContractAddress",
      "outputs": [
        {
          "internalType": "bool",
          "name": "",
          "type": "bool"
        }
      ],
      "payable": false,
      "stateMutability": "nonpayable",
      "type": "function"
    },
    {
      "constant": false,
      "inputs": [
        {
          "internalType": "address",
          "name": "_recipientAddr",
          "type": "address"
        },
        {
          "internalType": "string",
          "name": "_certificateHash",
          "type": "string"
        },
        {
          "internalType": "string",
          "name": "_ipfsHash",
          "type": "string"
        },
        {
          "internalType": "string",
          "name": "_encKey",
          "type": "string"
        }
      ],
      "name": "createCertificate",
      "outputs": [],
      "payable": false,
      "stateMutability": "nonpayable",
      "type": "function"
    },
    {
      "constant": true,
      "inputs": [],
      "name": "getCertificateCount",
      "outputs": [
        {
          "internalType": "uint256",
          "name": "",
          "type": "uint256"
        }
      ],
      "payable": false,
      "stateMutability": "view",
      "type": "function"
    },
    {
      "constant": true,
      "inputs": [
        {
          "internalType": "uint256",
          "name": "_id",
          "type": "uint256"
        }
      ],
      "name": "getParticularCertificate",
      "outputs": [
        {
          "internalType": "address",
          "name": "",
          "type": "address"
        },
        {
          "internalType": "string",
          "name": "",
          "type": "string"
        },
        {
          "internalType": "string",
          "name": "",
          "type": "string"
        },
        {
          "internalType": "string",
          "name": "",
          "type": "string"
        }
      ],
      "payable": false,
      "stateMutability": "view",
      "type": "function"
    },
    {
      "constant": true,
      "inputs": [
        {
          "internalType": "uint256",
          "name": "_id",
          "type": "uint256"
        }
      ],
      "name": "getParticularCertificateHash",
      "outputs": [
        {
          "internalType": "address",
          "name": "",
          "type": "address"
        },
        {
          "internalType": "string",
          "name": "",
          "type": "string"
        }
      ],
      "payable": false,
      "stateMutability": "view",
      "type": "function"
    }
  ],
  "bytecode": "0x6080604052600060035534801561001557600080fd5b5060405161140d38038061140d8339818101604052602081101561003857600080fd5b8101908080519060200190929190505050806000806101000a81548173ffffffffffffffffffffffffffffffffffffffff021916908373ffffffffffffffffffffffffffffffffffffffff16021790555033600160006101000a81548173ffffffffffffffffffffffffffffffffffffffff021916908373ffffffffffffffffffffffffffffffffffffffff16021790555050611333806100da6000396000f3fe608060405234801561001057600080fd5b50600436106100885760003560e01c8063a6d880171161005b578063a6d88017146102f1578063b34b4648146104fa578063c7a805a614610518578063cd50a4401461057457610088565b80630aef09ce1461008d5780636c4470fb1461023f5780638809f727146102895780638da5cb5b146102a7575b600080fd5b6100b9600480360360208110156100a357600080fd5b810190808035906020019092919050505061064e565b604051808573ffffffffffffffffffffffffffffffffffffffff1673ffffffffffffffffffffffffffffffffffffffff168152602001806020018060200180602001848103845287818151815260200191508051906020019080838360005b83811015610133578082015181840152602081019050610118565b50505050905090810190601f1680156101605780820380516001836020036101000a031916815260200191505b50848103835286818151815260200191508051906020019080838360005b8381101561019957808201518184015260208101905061017e565b50505050905090810190601f1680156101c65780820380516001836020036101000a031916815260200191505b50848103825285818151815260200191508051906020019080838360005b838110156101ff5780820151818401526020810190506101e4565b50505050905090810190601f16801561022c5780820380516001836020036101000a031916815260200191505b5097505050505050505060405180910390f35b610247610931565b604051808273ffffffffffffffffffffffffffffffffffffffff1673ffffffffffffffffffffffffffffffffffffffff16815260200191505060405180910390f35b610291610956565b6040518082815260200191505060405180910390f35b6102af610960565b604051808273ffffffffffffffffffffffffffffffffffffffff1673ffffffffffffffffffffffffffffffffffffffff16815260200191505060405180910390f35b6104f86004803603608081101561030757600080fd5b81019080803573ffffffffffffffffffffffffffffffffffffffff1690602001909291908035906020019064010000000081111561034457600080fd5b82018360208201111561035657600080fd5b8035906020019184600183028401116401000000008311171561037857600080fd5b91908080601f016020809104026020016040519081016040528093929190818152602001838380828437600081840152601f19601f820116905080830192505050505050509192919290803590602001906401000000008111156103db57600080fd5b8201836020820111156103ed57600080fd5b8035906020019184600183028401116401000000008311171561040f57600080fd5b91908080601f016020809104026020016040519081016040528093929190818152602001838380828437600081840152601f19601f8201169050808301925050505050505091929192908035906020019064010000000081111561047257600080fd5b82018360208201111561048457600080fd5b803590602001918460018302840111640100000000831117156104a657600080fd5b91908080601f016020809104026020016040519081016040528093929190818152602001838380828437600081840152601f19601f820116905080830192505050505050509192919290505050610986565b005b610502610fdd565b6040518082815260200191505060405180910390f35b61055a6004803603602081101561052e57600080fd5b81019080803573ffffffffffffffffffffffffffffffffffffffff169060200190929190505050610fe3565b604051808215151515815260200191505060405180910390f35b6105a06004803603602081101561058a57600080fd5b8101908080359060200190929190505050611088565b604051808373ffffffffffffffffffffffffffffffffffffffff1673ffffffffffffffffffffffffffffffffffffffff16815260200180602001828103825283818151815260200191508051906020019080838360005b838110156106125780820151818401526020810190506105f7565b50505050905090810190601f16801561063f5780820380516001836020036101000a031916815260200191505b50935050505060405180910390f35b60006060806060600115156002600087815260200190815260200160002060050160009054906101000a900460ff161515146106d5576040517f08c379a000000000000000000000000000000000000000000000000000000000815260040180806020018281038252603a8152602001806112c5603a913960400191505060405180910390fd5b6002600086815260200190815260200160002060010160009054906101000a900473ffffffffffffffffffffffffffffffffffffffff16600260008781526020019081526020016000206002016002600088815260200190815260200160002060030160026000898152602001908152602001600020600401828054600181600116156101000203166002900480601f0160208091040260200160405190810160405280929190818152602001828054600181600116156101000203166002900480156107e35780601f106107b8576101008083540402835291602001916107e3565b820191906000526020600020905b8154815290600101906020018083116107c657829003601f168201915b50505050509250818054600181600116156101000203166002900480601f01602080910402602001604051908101604052809291908181526020018280546001816001161561010002031660029004801561087f5780601f106108545761010080835404028352916020019161087f565b820191906000526020600020905b81548152906001019060200180831161086257829003601f168201915b50505050509150808054600181600116156101000203166002900480601f01602080910402602001604051908101604052809291908181526020018280546001816001161561010002031660029004801561091b5780601f106108f05761010080835404028352916020019161091b565b820191906000526020600020905b8154815290600101906020018083116108fe57829003601f168201915b5050505050905093509350935093509193509193565b6000809054906101000a900473ffffffffffffffffffffffffffffffffffffffff1681565b6000600354905090565b600160009054906101000a900473ffffffffffffffffffffffffffffffffffffffff1681565b600115156000809054906101000a900473ffffffffffffffffffffffffffffffffffffffff1673ffffffffffffffffffffffffffffffffffffffff16639371de2b866040518263ffffffff1660e01b8152600401808273ffffffffffffffffffffffffffffffffffffffff1673ffffffffffffffffffffffffffffffffffffffff16815260200191505060206040518083038186803b158015610a2857600080fd5b505afa158015610a3c573d6000803e3d6000fd5b505050506040513d6020811015610a5257600080fd5b8101908080519060200190929190505050151514610abb576040517f08c379a00000000000000000000000000000000000000000000000000000000081526004018080602001828103825260218152602001806112a46021913960400191505060405180910390fd5b60026000809054906101000a900473ffffffffffffffffffffffffffffffffffffffff1673ffffffffffffffffffffffffffffffffffffffff1663256dced2336040518263ffffffff1660e01b8152600401808273ffffffffffffffffffffffffffffffffffffffff1673ffffffffffffffffffffffffffffffffffffffff16815260200191505060206040518083038186803b158015610b5b57600080fd5b505afa158015610b6f573d6000803e3d6000fd5b505050506040513d6020811015610b8557600080fd5b8101908080519060200190929190505050148015610c7b575060036000809054906101000a900473ffffffffffffffffffffffffffffffffffffffff1673ffffffffffffffffffffffffffffffffffffffff1663256dced2866040518263ffffffff1660e01b8152600401808273ffffffffffffffffffffffffffffffffffffffff1673ffffffffffffffffffffffffffffffffffffffff16815260200191505060206040518083038186803b158015610c3e57600080fd5b505afa158015610c52573d6000803e3d6000fd5b505050506040513d6020811015610c6857600080fd5b8101908080519060200190929190505050145b610ced576040517f08c379a00000000000000000000000000000000000000000000000000000000081526004018080602001828103825260118152602001807f5065726d697373696f6e2064656e69656400000000000000000000000000000081525060200191505060405180910390fd5b6040518060c0016040528060035481526020018573ffffffffffffffffffffffffffffffffffffffff1681526020018481526020018381526020018281526020016001151581525060026000600360008154809291906001019190505581526020019081526020016000206000820151816000015560208201518160010160006101000a81548173ffffffffffffffffffffffffffffffffffffffff021916908373ffffffffffffffffffffffffffffffffffffffff1602179055506040820151816002019080519060200190610dc59291906111fe565b506060820151816003019080519060200190610de29291906111fe565b506080820151816004019080519060200190610dff9291906111fe565b5060a08201518160050160006101000a81548160ff0219169083151502179055509050507fb6e5c25f42b87347c37285e3250ef625ba87d2deab893640cf0877311d8cf94d60035485858585604051808681526020018573ffffffffffffffffffffffffffffffffffffffff1673ffffffffffffffffffffffffffffffffffffffff168152602001806020018060200180602001848103845287818151815260200191508051906020019080838360005b83811015610ecb578082015181840152602081019050610eb0565b50505050905090810190601f168015610ef85780820380516001836020036101000a031916815260200191505b50848103835286818151815260200191508051906020019080838360005b83811015610f31578082015181840152602081019050610f16565b50505050905090810190601f168015610f5e5780820380516001836020036101000a031916815260200191505b50848103825285818151815260200191508051906020019080838360005b83811015610f97578082015181840152602081019050610f7c565b50505050905090810190601f168015610fc45780820380516001836020036101000a031916815260200191505b509850505050505050505060405180910390a150505050565b60035481565b6000600160009054906101000a900473ffffffffffffffffffffffffffffffffffffffff1673ffffffffffffffffffffffffffffffffffffffff163373ffffffffffffffffffffffffffffffffffffffff161461103f57600080fd5b816000806101000a81548173ffffffffffffffffffffffffffffffffffffffff021916908373ffffffffffffffffffffffffffffffffffffffff16021790555060019050919050565b60006060600115156002600085815260200190815260200160002060050160009054906101000a900460ff1615151461110c576040517f08c379a000000000000000000000000000000000000000000000000000000000815260040180806020018281038252603a8152602001806112c5603a913960400191505060405180910390fd5b6002600084815260200190815260200160002060010160009054906101000a900473ffffffffffffffffffffffffffffffffffffffff1660026000858152602001908152602001600020600201808054600181600116156101000203166002900480601f0160208091040260200160405190810160405280929190818152602001828054600181600116156101000203166002900480156111ee5780601f106111c3576101008083540402835291602001916111ee565b820191906000526020600020905b8154815290600101906020018083116111d157829003601f168201915b5050505050905091509150915091565b828054600181600116156101000203166002900490600052602060002090601f016020900481019282601f1061123f57805160ff191683800117855561126d565b8280016001018555821561126d579182015b8281111561126c578251825591602001919060010190611251565b5b50905061127a919061127e565b5090565b6112a091905b8082111561129c576000816000905550600101611284565b5090565b9056fe5573657220646f6573206e6f7420657869737420696e207468652073797374656d436572746966696361746520776974682074686520676976656e20494420646f6573206e6f7420657869737420696e207468652073797374656da265627a7a7231582074e1663528d8801291f9e5b291468c6c4eb2d174337d49218ff5ae7c4e3d4a4264736f6c63430005100032",
  "source": "pragma solidity >=0.4.22;\r\nimport \"./Participants.sol\";\r\n\r\ncontract Certificates {\r\n    Participants public participants;\r\n    address public owner;\r\n    mapping(uint256 => Certificate) certificatesList;\r\n    uint256 public certificatesCount = 0;\r\n\r\n    struct Certificate {\r\n        uint256 id;\r\n        address recipientAddr;\r\n        string certificateHash;\r\n        string ipfsHash;\r\n        string encKey;\r\n        bool exists;\r\n    }\r\n\r\n    event certificateCreationEvent(\r\n        uint256 id,\r\n        address recipientAddr,\r\n        string certificateHash,\r\n        string ipfsHash,\r\n        string encKey\r\n    );\r\n\r\n    modifier onlyOwner {\r\n        require(msg.sender == owner);\r\n        _;\r\n    }\r\n\r\n    constructor(address participantsContractAddress) public {\r\n        participants = Participants(participantsContractAddress);\r\n        owner = msg.sender;\r\n    }\r\n\r\n    function changeParticipantsContractAddress(\r\n        address newParticipantsContractAddress\r\n    ) public onlyOwner returns (bool) {\r\n        participants = Participants(newParticipantsContractAddress);\r\n        return true;\r\n    }\r\n\r\n    function createCertificate(\r\n        address _recipientAddr,\r\n        string memory _certificateHash,\r\n        string memory _ipfsHash,\r\n        string memory _encKey\r\n    ) public {\r\n        require(\r\n            participants.checkIfUserExists(_recipientAddr) == true,\r\n            \"User does not exist in the system\"\r\n        );\r\n        require(\r\n            participants.getParticularUsersType(msg.sender) == 2 &&\r\n                participants.getParticularUsersType(_recipientAddr) == 3,\r\n            \"Permission denied\"\r\n        );\r\n        certificatesList[certificatesCount++] = Certificate(\r\n            certificatesCount,\r\n            _recipientAddr,\r\n            _certificateHash,\r\n            _ipfsHash,\r\n            _encKey,\r\n            true\r\n        );\r\n        emit certificateCreationEvent(\r\n            certificatesCount,\r\n            _recipientAddr,\r\n            _certificateHash,\r\n            _ipfsHash,\r\n            _encKey\r\n        );\r\n    }\r\n\r\n    // function getUserCertificates() public returns(uint, uint[] memory) {\r\n    //     require(participants.checkIfUserExists(msg.sender)==true, \"User does not exist in the system\");\r\n    //     uint[] memory certificatesId;\r\n    //     uint cnt=0;\r\n    //     for(uint i=0; i<certificatesCount; i++){\r\n    //         a = certificatesList[i].recipientAddr;\r\n    //         if(certificatesList[i].recipientAddr == msg.sender){\r\n\r\n    //             ++c;\r\n    //             certificatesId[cnt++]=certificatesList[i].id;\r\n    //         }\r\n    //     }\r\n    //     return (cnt, certificatesId);\r\n    // }\r\n\r\n    function getCertificateCount() public view returns (uint256) {\r\n        return certificatesCount;\r\n    }\r\n\r\n    function getParticularCertificate(uint256 _id)\r\n        public\r\n        view\r\n        returns (\r\n            address,\r\n            string memory,\r\n            string memory,\r\n            string memory\r\n        )\r\n    {\r\n        require(\r\n            certificatesList[_id].exists == true,\r\n            \"Certificate with the given ID does not exist in the system\"\r\n        );\r\n        return (\r\n            certificatesList[_id].recipientAddr,\r\n            certificatesList[_id].certificateHash,\r\n            certificatesList[_id].ipfsHash,\r\n            certificatesList[_id].encKey\r\n        );\r\n    }\r\n\r\n    function getParticularCertificateHash(uint256 _id)\r\n        public\r\n        view\r\n        returns (address, string memory)\r\n    {\r\n        require(\r\n            certificatesList[_id].exists == true,\r\n            \"Certificate with the given ID does not exist in the system\"\r\n        );\r\n        return (\r\n            certificatesList[_id].recipientAddr,\r\n            certificatesList[_id].certificateHash\r\n        );\r\n    }\r\n\r\n    // function getParticularInstitutionCertificates(string memory _institution) view public returns(uint[] memory) {\r\n    //     require(participants.checkIfInstitutionExists(_institution)==true, \"Given institution does not exist in the system\");uint[] memory certificatesId;\r\n    //     uint cnt=0;\r\n    //     uint[] memory certificatesId;\r\n    //     for(uint i=0; i<certificatesCount; i++){\r\n    //         if(keccak256(abi.encodePacked(participants.getParticularUsersInstitution(certificatesList[i].recipientAddr)))\r\n    //         == keccak256(abi.encodePacked(_institution))){\r\n    //             certificatesId[cnt++]=certificatesList[i].id;\r\n    //         }\r\n    //     }\r\n    //     return certificatesId;\r\n    // }\r\n}\r\n",
  "sourcePath": "C:/Users/smuth/Desktop/DAPP-FYP/contracts/Certificates.sol",
  "compiler": {
    "name": "solc",
    "version": "0.5.16+commit.9c3226ce.Emscripten.clang"
  },
  "schemaVersion": "3.3.2",
  "updatedAt": "2021-03-30T06:56:18.269Z",
  "networkType": "ethereum",
  "devdoc": {
    "methods": {}
  },
  "userdoc": {
    "methods": {}
  }
}