{
  "contractName": "Certificates",
  "abi": [
    {
      "inputs": [
        {
          "internalType": "address",
          "name": "participantsContractAddress",
          "type": "address"
        }
      ],
      "payable": false,
      "stateMutability": "nonpayable",
      "type": "constructor"
    },
    {
      "anonymous": false,
      "inputs": [
        {
          "indexed": false,
          "internalType": "uint256",
          "name": "id",
          "type": "uint256"
        },
        {
          "indexed": false,
          "internalType": "address",
          "name": "recipientAddr",
          "type": "address"
        },
        {
          "indexed": false,
          "internalType": "string",
          "name": "certificateHash",
          "type": "string"
        },
        {
          "indexed": false,
          "internalType": "string",
          "name": "ipfsHash",
          "type": "string"
        }
      ],
      "name": "certificateCreationEvent",
      "type": "event"
    },
    {
      "constant": true,
      "inputs": [],
      "name": "certificatesCount",
      "outputs": [
        {
          "internalType": "uint256",
          "name": "",
          "type": "uint256"
        }
      ],
      "payable": false,
      "stateMutability": "view",
      "type": "function"
    },
    {
      "constant": true,
      "inputs": [],
      "name": "owner",
      "outputs": [
        {
          "internalType": "address",
          "name": "",
          "type": "address"
        }
      ],
      "payable": false,
      "stateMutability": "view",
      "type": "function"
    },
    {
      "constant": false,
      "inputs": [
        {
          "internalType": "address",
          "name": "newParticipantsContractAddress",
          "type": "address"
        }
      ],
      "name": "changeParticipantsContractAddress",
      "outputs": [
        {
          "internalType": "bool",
          "name": "",
          "type": "bool"
        }
      ],
      "payable": false,
      "stateMutability": "nonpayable",
      "type": "function"
    },
    {
      "constant": false,
      "inputs": [
        {
          "internalType": "address",
          "name": "_recipientAddr",
          "type": "address"
        },
        {
          "internalType": "string",
          "name": "_certificateHash",
          "type": "string"
        },
        {
          "internalType": "string",
          "name": "_ipfsHash",
          "type": "string"
        }
      ],
      "name": "createCertificate",
      "outputs": [],
      "payable": false,
      "stateMutability": "nonpayable",
      "type": "function"
    },
    {
      "constant": true,
      "inputs": [],
      "name": "getCertificateCount",
      "outputs": [
        {
          "internalType": "uint256",
          "name": "",
          "type": "uint256"
        }
      ],
      "payable": false,
      "stateMutability": "view",
      "type": "function"
    },
    {
      "constant": true,
      "inputs": [
        {
          "internalType": "uint256",
          "name": "_id",
          "type": "uint256"
        }
      ],
      "name": "getParticularCertificate",
      "outputs": [
        {
          "internalType": "address",
          "name": "",
          "type": "address"
        },
        {
          "internalType": "string",
          "name": "",
          "type": "string"
        },
        {
          "internalType": "string",
          "name": "",
          "type": "string"
        }
      ],
      "payable": false,
      "stateMutability": "view",
      "type": "function"
    },
    {
      "constant": true,
      "inputs": [
        {
          "internalType": "uint256",
          "name": "_id",
          "type": "uint256"
        }
      ],
      "name": "getParticularCertificateHash",
      "outputs": [
        {
          "internalType": "address",
          "name": "",
          "type": "address"
        },
        {
          "internalType": "string",
          "name": "",
          "type": "string"
        }
      ],
      "payable": false,
      "stateMutability": "view",
      "type": "function"
    }
  ],
  "bytecode": "0x6080604052600060035534801561001557600080fd5b5060405161147e38038061147e8339818101604052602081101561003857600080fd5b8101908080519060200190929190505050806000806101000a81548173ffffffffffffffffffffffffffffffffffffffff021916908373ffffffffffffffffffffffffffffffffffffffff16021790555033600160006101000a81548173ffffffffffffffffffffffffffffffffffffffff021916908373ffffffffffffffffffffffffffffffffffffffff160217905550506113a4806100da6000396000f3fe608060405234801561001057600080fd5b506004361061007d5760003560e01c8063b34b46481161005b578063b34b464814610230578063c7a805a61461024e578063cd50a440146102aa578063f0e36115146103845761007d565b80630aef09ce146100825780638809f727146101c85780638da5cb5b146101e6575b600080fd5b6100ae6004803603602081101561009857600080fd5b81019080803590602001909291905050506104f6565b604051808473ffffffffffffffffffffffffffffffffffffffff1673ffffffffffffffffffffffffffffffffffffffff1681526020018060200180602001838103835285818151815260200191508051906020019080838360005b83811015610124578082015181840152602081019050610109565b50505050905090810190601f1680156101515780820380516001836020036101000a031916815260200191505b50838103825284818151815260200191508051906020019080838360005b8381101561018a57808201518184015260208101905061016f565b50505050905090810190601f1680156101b75780820380516001836020036101000a031916815260200191505b509550505050505060405180910390f35b6101d0610723565b6040518082815260200191505060405180910390f35b6101ee61072d565b604051808273ffffffffffffffffffffffffffffffffffffffff1673ffffffffffffffffffffffffffffffffffffffff16815260200191505060405180910390f35b610238610753565b6040518082815260200191505060405180910390f35b6102906004803603602081101561026457600080fd5b81019080803573ffffffffffffffffffffffffffffffffffffffff169060200190929190505050610759565b604051808215151515815260200191505060405180910390f35b6102d6600480360360208110156102c057600080fd5b81019080803590602001909291905050506107fe565b604051808373ffffffffffffffffffffffffffffffffffffffff1673ffffffffffffffffffffffffffffffffffffffff16815260200180602001828103825283818151815260200191508051906020019080838360005b8381101561034857808201518184015260208101905061032d565b50505050905090810190601f1680156103755780820380516001836020036101000a031916815260200191505b50935050505060405180910390f35b6104f46004803603606081101561039a57600080fd5b81019080803573ffffffffffffffffffffffffffffffffffffffff169060200190929190803590602001906401000000008111156103d757600080fd5b8201836020820111156103e957600080fd5b8035906020019184600183028401116401000000008311171561040b57600080fd5b91908080601f016020809104026020016040519081016040528093929190818152602001838380828437600081840152601f19601f8201169050808301925050505050505091929192908035906020019064010000000081111561046e57600080fd5b82018360208201111561048057600080fd5b803590602001918460018302840111640100000000831117156104a257600080fd5b91908080601f016020809104026020016040519081016040528093929190818152602001838380828437600081840152601f19601f820116905080830192505050505050509192919290505050610974565b005b6000606080600115156002600086815260200190815260200160002060040160009054906101000a900460ff1615151461057b576040517f08c379a000000000000000000000000000000000000000000000000000000000815260040180806020018281038252603a815260200180611336603a913960400191505060405180910390fd5b6002600085815260200190815260200160002060010160009054906101000a900473ffffffffffffffffffffffffffffffffffffffff166002600086815260200190815260200160002060020160026000878152602001908152602001600020600301818054600181600116156101000203166002900480601f0160208091040260200160405190810160405280929190818152602001828054600181600116156101000203166002900480156106735780601f1061064857610100808354040283529160200191610673565b820191906000526020600020905b81548152906001019060200180831161065657829003601f168201915b50505050509150808054600181600116156101000203166002900480601f01602080910402602001604051908101604052809291908181526020018280546001816001161561010002031660029004801561070f5780601f106106e45761010080835404028352916020019161070f565b820191906000526020600020905b8154815290600101906020018083116106f257829003601f168201915b505050505090509250925092509193909250565b6000600354905090565b600160009054906101000a900473ffffffffffffffffffffffffffffffffffffffff1681565b60035481565b6000600160009054906101000a900473ffffffffffffffffffffffffffffffffffffffff1673ffffffffffffffffffffffffffffffffffffffff163373ffffffffffffffffffffffffffffffffffffffff16146107b557600080fd5b816000806101000a81548173ffffffffffffffffffffffffffffffffffffffff021916908373ffffffffffffffffffffffffffffffffffffffff16021790555060019050919050565b60006060600115156002600085815260200190815260200160002060040160009054906101000a900460ff16151514610882576040517f08c379a000000000000000000000000000000000000000000000000000000000815260040180806020018281038252603a815260200180611336603a913960400191505060405180910390fd5b6002600084815260200190815260200160002060010160009054906101000a900473ffffffffffffffffffffffffffffffffffffffff1660026000858152602001908152602001600020600201808054600181600116156101000203166002900480601f0160208091040260200160405190810160405280929190818152602001828054600181600116156101000203166002900480156109645780601f1061093957610100808354040283529160200191610964565b820191906000526020600020905b81548152906001019060200180831161094757829003601f168201915b5050505050905091509150915091565b600115156000809054906101000a900473ffffffffffffffffffffffffffffffffffffffff1673ffffffffffffffffffffffffffffffffffffffff16639371de2b856040518263ffffffff1660e01b8152600401808273ffffffffffffffffffffffffffffffffffffffff1673ffffffffffffffffffffffffffffffffffffffff16815260200191505060206040518083038186803b158015610a1657600080fd5b505afa158015610a2a573d6000803e3d6000fd5b505050506040513d6020811015610a4057600080fd5b8101908080519060200190929190505050151514610aa9576040517f08c379a00000000000000000000000000000000000000000000000000000000081526004018080602001828103825260218152602001806113156021913960400191505060405180910390fd5b60026000809054906101000a900473ffffffffffffffffffffffffffffffffffffffff1673ffffffffffffffffffffffffffffffffffffffff1663256dced2336040518263ffffffff1660e01b8152600401808273ffffffffffffffffffffffffffffffffffffffff1673ffffffffffffffffffffffffffffffffffffffff16815260200191505060206040518083038186803b158015610b4957600080fd5b505afa158015610b5d573d6000803e3d6000fd5b505050506040513d6020811015610b7357600080fd5b8101908080519060200190929190505050148015610f9e57506000809054906101000a900473ffffffffffffffffffffffffffffffffffffffff1673ffffffffffffffffffffffffffffffffffffffff1663e476ff45846040518263ffffffff1660e01b8152600401808273ffffffffffffffffffffffffffffffffffffffff1673ffffffffffffffffffffffffffffffffffffffff16815260200191505060006040518083038186803b158015610c2a57600080fd5b505afa158015610c3e573d6000803e3d6000fd5b505050506040513d6000823e3d601f19601f820116820180604052506020811015610c6857600080fd5b8101908080516040519392919084640100000000821115610c8857600080fd5b83820191506020820185811115610c9e57600080fd5b8251866001820283011164010000000082111715610cbb57600080fd5b8083526020830192505050908051906020019080838360005b83811015610cef578082015181840152602081019050610cd4565b50505050905090810190601f168015610d1c5780820380516001836020036101000a031916815260200191505b506040525050506040516020018082805190602001908083835b60208310610d595780518252602082019150602081019050602083039250610d36565b6001836020036101000a038019825116818451168082178552505050505050905001915050604051602081830303815290604052805190602001206000809054906101000a900473ffffffffffffffffffffffffffffffffffffffff1673ffffffffffffffffffffffffffffffffffffffff1663e476ff45336040518263ffffffff1660e01b8152600401808273ffffffffffffffffffffffffffffffffffffffff1673ffffffffffffffffffffffffffffffffffffffff16815260200191505060006040518083038186803b158015610e3257600080fd5b505afa158015610e46573d6000803e3d6000fd5b505050506040513d6000823e3d601f19601f820116820180604052506020811015610e7057600080fd5b8101908080516040519392919084640100000000821115610e9057600080fd5b83820191506020820185811115610ea657600080fd5b8251866001820283011164010000000082111715610ec357600080fd5b8083526020830192505050908051906020019080838360005b83811015610ef7578082015181840152602081019050610edc565b50505050905090810190601f168015610f245780820380516001836020036101000a031916815260200191505b506040525050506040516020018082805190602001908083835b60208310610f615780518252602082019150602081019050602083039250610f3e565b6001836020036101000a03801982511681845116808217855250505050505090500191505060405160208183030381529060405280519060200120145b611010576040517f08c379a00000000000000000000000000000000000000000000000000000000081526004018080602001828103825260118152602001807f5065726d697373696f6e2064656e69656400000000000000000000000000000081525060200191505060405180910390fd5b6040518060a0016040528060035481526020018473ffffffffffffffffffffffffffffffffffffffff1681526020018381526020018281526020016001151581525060026000600360008154809291906001019190505581526020019081526020016000206000820151816000015560208201518160010160006101000a81548173ffffffffffffffffffffffffffffffffffffffff021916908373ffffffffffffffffffffffffffffffffffffffff16021790555060408201518160020190805190602001906110e292919061126f565b5060608201518160030190805190602001906110ff92919061126f565b5060808201518160040160006101000a81548160ff0219169083151502179055509050507fe2868246f63337ec0153fc26aec8b77c47f2a457d83939e8f6535d7d58696ab6600354848484604051808581526020018473ffffffffffffffffffffffffffffffffffffffff1673ffffffffffffffffffffffffffffffffffffffff1681526020018060200180602001838103835285818151815260200191508051906020019080838360005b838110156111c65780820151818401526020810190506111ab565b50505050905090810190601f1680156111f35780820380516001836020036101000a031916815260200191505b50838103825284818151815260200191508051906020019080838360005b8381101561122c578082015181840152602081019050611211565b50505050905090810190601f1680156112595780820380516001836020036101000a031916815260200191505b50965050505050505060405180910390a1505050565b828054600181600116156101000203166002900490600052602060002090601f016020900481019282601f106112b057805160ff19168380011785556112de565b828001600101855582156112de579182015b828111156112dd5782518255916020019190600101906112c2565b5b5090506112eb91906112ef565b5090565b61131191905b8082111561130d5760008160009055506001016112f5565b5090565b9056fe5573657220646f6573206e6f7420657869737420696e207468652073797374656d436572746966696361746520776974682074686520676976656e20494420646f6573206e6f7420657869737420696e207468652073797374656da265627a7a72315820471a2ef1c107e4a3d58fbacd6aa30d4ec50675463092d64c8b3d6639ca1f435164736f6c63430005100032",
  "source": "pragma solidity  >=0.4.22;\nimport \"./Participants.sol\";\n\ncontract Certificates {\n    \n    Participants participants;\n    address public owner;\n    mapping (uint => Certificate) certificatesList;\n    uint public certificatesCount = 0;\n    \n    struct Certificate {\n        uint id;\n        address recipientAddr;\n        string certificateHash;\n        string ipfsHash;\n        bool exists;\n    }\n    \n    event certificateCreationEvent\n    (\n        uint id,\n        address recipientAddr,\n        string certificateHash,\n        string ipfsHash\n    );\n    \n    modifier onlyOwner {\n      require(msg.sender == owner);\n      _;\n    }\n    \n    constructor(address participantsContractAddress) public {\n        participants = Participants(participantsContractAddress);\n        owner = msg.sender;\n    }\n    \n    function changeParticipantsContractAddress(address newParticipantsContractAddress) public onlyOwner returns(bool) {\n      participants = Participants(newParticipantsContractAddress);\n      return true;\n    }\n    \n    function createCertificate(address _recipientAddr, string memory _certificateHash, string memory _ipfsHash) public\n    {\n        require(participants.checkIfUserExists(_recipientAddr)==true , \"User does not exist in the system\");\n        require(participants.getParticularUsersType(msg.sender)==2 && \n        (keccak256(abi.encodePacked(participants.getParticularUsersInstitution(msg.sender))) == keccak256(abi.encodePacked(participants.getParticularUsersInstitution(_recipientAddr)))),\n        \"Permission denied\");\n        certificatesList[certificatesCount++] = Certificate(certificatesCount,_recipientAddr, _certificateHash, _ipfsHash,true);\n        emit certificateCreationEvent(certificatesCount,_recipientAddr, _certificateHash, _ipfsHash);\n    }\n    \n    \n    // function getUserCertificates() public returns(uint, uint[] memory) {\n    //     require(participants.checkIfUserExists(msg.sender)==true, \"User does not exist in the system\");\n    //     uint[] memory certificatesId;\n    //     uint cnt=0;\n    //     for(uint i=0; i<certificatesCount; i++){\n    //         a = certificatesList[i].recipientAddr;\n    //         if(certificatesList[i].recipientAddr == msg.sender){\n                \n    //             ++c;\n    //             certificatesId[cnt++]=certificatesList[i].id;\n    //         }\n    //     }\n    //     return (cnt, certificatesId);\n    // }\n    \n    function getCertificateCount() view public returns(uint){\n        return certificatesCount;\n    }\n    \n    function getParticularCertificate(uint _id) view public returns(address, string memory, string memory) {\n        require(certificatesList[_id].exists==true, \"Certificate with the given ID does not exist in the system\");\n        return (certificatesList[_id].recipientAddr, certificatesList[_id].certificateHash, certificatesList[_id].ipfsHash);\n    }\n    \n    function getParticularCertificateHash(uint _id) view public returns(address, string memory) {\n        require(certificatesList[_id].exists==true, \"Certificate with the given ID does not exist in the system\");\n        return (certificatesList[_id].recipientAddr, certificatesList[_id].certificateHash);\n    }\n    \n    // function getParticularInstitutionCertificates(string memory _institution) view public returns(uint[] memory) {\n    //     require(participants.checkIfInstitutionExists(_institution)==true, \"Given institution does not exist in the system\");uint[] memory certificatesId;\n    //     uint cnt=0;\n    //     uint[] memory certificatesId;\n    //     for(uint i=0; i<certificatesCount; i++){\n    //         if(keccak256(abi.encodePacked(participants.getParticularUsersInstitution(certificatesList[i].recipientAddr)))\n    //         == keccak256(abi.encodePacked(_institution))){\n    //             certificatesId[cnt++]=certificatesList[i].id;\n    //         }\n    //     }\n    //     return certificatesId;\n    // }\n}\n    \n",
  "sourcePath": "C:/Users/smuth/Desktop/certificate_verification_dapp/contracts/Certificates.sol",
  "compiler": {
    "name": "solc",
    "version": "0.5.16+commit.9c3226ce.Emscripten.clang"
  },
  "schemaVersion": "3.3.2",
  "updatedAt": "2021-01-17T15:54:46.234Z",
  "networkType": "ethereum",
  "devdoc": {
    "methods": {}
  },
  "userdoc": {
    "methods": {}
  }
}