{
  "contractName": "Certificates",
  "abi": [
    {
      "inputs": [
        {
          "internalType": "address",
          "name": "participantsContractAddress",
          "type": "address"
        }
      ],
      "payable": false,
      "stateMutability": "nonpayable",
      "type": "constructor"
    },
    {
      "anonymous": false,
      "inputs": [
        {
          "indexed": false,
          "internalType": "uint256",
          "name": "id",
          "type": "uint256"
        },
        {
          "indexed": false,
          "internalType": "address",
          "name": "recipientAddr",
          "type": "address"
        },
        {
          "indexed": false,
          "internalType": "string",
          "name": "certificateHash",
          "type": "string"
        },
        {
          "indexed": false,
          "internalType": "string",
          "name": "ipfsHash",
          "type": "string"
        },
        {
          "indexed": false,
          "internalType": "string",
          "name": "encKey",
          "type": "string"
        }
      ],
      "name": "certificateCreationEvent",
      "type": "event"
    },
    {
      "constant": true,
      "inputs": [],
      "name": "certificatesCount",
      "outputs": [
        {
          "internalType": "uint256",
          "name": "",
          "type": "uint256"
        }
      ],
      "payable": false,
      "stateMutability": "view",
      "type": "function"
    },
    {
      "constant": true,
      "inputs": [],
      "name": "owner",
      "outputs": [
        {
          "internalType": "address",
          "name": "",
          "type": "address"
        }
      ],
      "payable": false,
      "stateMutability": "view",
      "type": "function"
    },
    {
      "constant": true,
      "inputs": [],
      "name": "participants",
      "outputs": [
        {
          "internalType": "contract Participants",
          "name": "",
          "type": "address"
        }
      ],
      "payable": false,
      "stateMutability": "view",
      "type": "function"
    },
    {
      "constant": true,
      "inputs": [],
      "name": "totalCertificatesCount",
      "outputs": [
        {
          "internalType": "uint256",
          "name": "",
          "type": "uint256"
        }
      ],
      "payable": false,
      "stateMutability": "view",
      "type": "function"
    },
    {
      "constant": false,
      "inputs": [
        {
          "internalType": "address",
          "name": "newParticipantsContractAddress",
          "type": "address"
        }
      ],
      "name": "changeParticipantsContractAddress",
      "outputs": [
        {
          "internalType": "bool",
          "name": "",
          "type": "bool"
        }
      ],
      "payable": false,
      "stateMutability": "nonpayable",
      "type": "function"
    },
    {
      "constant": false,
      "inputs": [
        {
          "internalType": "address",
          "name": "_recipientAddr",
          "type": "address"
        },
        {
          "internalType": "string",
          "name": "_certificateHash",
          "type": "string"
        },
        {
          "internalType": "string",
          "name": "_ipfsHash",
          "type": "string"
        },
        {
          "internalType": "string",
          "name": "_encKey",
          "type": "string"
        }
      ],
      "name": "createCertificate",
      "outputs": [],
      "payable": false,
      "stateMutability": "nonpayable",
      "type": "function"
    },
    {
      "constant": true,
      "inputs": [],
      "name": "getCertificatesCount",
      "outputs": [
        {
          "internalType": "uint256",
          "name": "",
          "type": "uint256"
        }
      ],
      "payable": false,
      "stateMutability": "view",
      "type": "function"
    },
    {
      "constant": true,
      "inputs": [],
      "name": "getTotalCertificatesCount",
      "outputs": [
        {
          "internalType": "uint256",
          "name": "",
          "type": "uint256"
        }
      ],
      "payable": false,
      "stateMutability": "view",
      "type": "function"
    },
    {
      "constant": true,
      "inputs": [
        {
          "internalType": "uint256",
          "name": "_id",
          "type": "uint256"
        }
      ],
      "name": "getParticularCertificate",
      "outputs": [
        {
          "internalType": "address",
          "name": "",
          "type": "address"
        },
        {
          "internalType": "string",
          "name": "",
          "type": "string"
        },
        {
          "internalType": "string",
          "name": "",
          "type": "string"
        },
        {
          "internalType": "string",
          "name": "",
          "type": "string"
        }
      ],
      "payable": false,
      "stateMutability": "view",
      "type": "function"
    },
    {
      "constant": true,
      "inputs": [
        {
          "internalType": "uint256",
          "name": "_id",
          "type": "uint256"
        }
      ],
      "name": "getParticularCertificateRecipientAddress",
      "outputs": [
        {
          "internalType": "address",
          "name": "",
          "type": "address"
        }
      ],
      "payable": false,
      "stateMutability": "view",
      "type": "function"
    },
    {
      "constant": false,
      "inputs": [
        {
          "internalType": "uint256",
          "name": "_id",
          "type": "uint256"
        }
      ],
      "name": "revokeCertificate",
      "outputs": [],
      "payable": false,
      "stateMutability": "nonpayable",
      "type": "function"
    }
  ],
  "bytecode": "0x60806040526000600355600060045534801561001a57600080fd5b506040516115ce3803806115ce8339818101604052602081101561003d57600080fd5b8101908080519060200190929190505050806000806101000a81548173ffffffffffffffffffffffffffffffffffffffff021916908373ffffffffffffffffffffffffffffffffffffffff16021790555033600160006101000a81548173ffffffffffffffffffffffffffffffffffffffff021916908373ffffffffffffffffffffffffffffffffffffffff160217905550506114ef806100df6000396000f3fe608060405234801561001057600080fd5b50600436106100a95760003560e01c80638da5cb5b116100715780638da5cb5b146103645780638fb03a02146103ae578063a6d88017146103cc578063b34b4648146105d5578063b705eea4146105f3578063c7a805a614610611576100a9565b806306f5497e146100ae5780630aef09ce146100dc57806328f5739c1461028e5780636c4470fb146102ac5780637d7b3ace146102f6575b600080fd5b6100da600480360360208110156100c457600080fd5b810190808035906020019092919050505061066d565b005b610108600480360360208110156100f257600080fd5b81019080803590602001909291905050506108d8565b604051808573ffffffffffffffffffffffffffffffffffffffff1673ffffffffffffffffffffffffffffffffffffffff168152602001806020018060200180602001848103845287818151815260200191508051906020019080838360005b83811015610182578082015181840152602081019050610167565b50505050905090810190601f1680156101af5780820380516001836020036101000a031916815260200191505b50848103835286818151815260200191508051906020019080838360005b838110156101e85780820151818401526020810190506101cd565b50505050905090810190601f1680156102155780820380516001836020036101000a031916815260200191505b50848103825285818151815260200191508051906020019080838360005b8381101561024e578082015181840152602081019050610233565b50505050905090810190601f16801561027b5780820380516001836020036101000a031916815260200191505b5097505050505050505060405180910390f35b610296610b3b565b6040518082815260200191505060405180910390f35b6102b4610b41565b604051808273ffffffffffffffffffffffffffffffffffffffff1673ffffffffffffffffffffffffffffffffffffffff16815260200191505060405180910390f35b6103226004803603602081101561030c57600080fd5b8101908080359060200190929190505050610b66565b604051808273ffffffffffffffffffffffffffffffffffffffff1673ffffffffffffffffffffffffffffffffffffffff16815260200191505060405180910390f35b61036c610c26565b604051808273ffffffffffffffffffffffffffffffffffffffff1673ffffffffffffffffffffffffffffffffffffffff16815260200191505060405180910390f35b6103b6610c4c565b6040518082815260200191505060405180910390f35b6105d3600480360360808110156103e257600080fd5b81019080803573ffffffffffffffffffffffffffffffffffffffff1690602001909291908035906020019064010000000081111561041f57600080fd5b82018360208201111561043157600080fd5b8035906020019184600183028401116401000000008311171561045357600080fd5b91908080601f016020809104026020016040519081016040528093929190818152602001838380828437600081840152601f19601f820116905080830192505050505050509192919290803590602001906401000000008111156104b657600080fd5b8201836020820111156104c857600080fd5b803590602001918460018302840111640100000000831117156104ea57600080fd5b91908080601f016020809104026020016040519081016040528093929190818152602001838380828437600081840152601f19601f8201169050808301925050505050505091929192908035906020019064010000000081111561054d57600080fd5b82018360208201111561055f57600080fd5b8035906020019184600183028401116401000000008311171561058157600080fd5b91908080601f016020809104026020016040519081016040528093929190818152602001838380828437600081840152601f19601f820116905080830192505050505050509192919290505050610c56565b005b6105dd6112bd565b6040518082815260200191505060405180910390f35b6105fb6112c3565b6040518082815260200191505060405180910390f35b6106536004803603602081101561062757600080fd5b81019080803573ffffffffffffffffffffffffffffffffffffffff1690602001909291905050506112cd565b604051808215151515815260200191505060405180910390f35b600115156002600083815260200190815260200160002060050160009054906101000a900460ff161515146106ed576040517f08c379a000000000000000000000000000000000000000000000000000000000815260040180806020018281038252603a815260200180611481603a913960400191505060405180910390fd5b60026000809054906101000a900473ffffffffffffffffffffffffffffffffffffffff1673ffffffffffffffffffffffffffffffffffffffff1663256dced2336040518263ffffffff1660e01b8152600401808273ffffffffffffffffffffffffffffffffffffffff1673ffffffffffffffffffffffffffffffffffffffff16815260200191505060206040518083038186803b15801561078d57600080fd5b505afa1580156107a1573d6000803e3d6000fd5b505050506040513d60208110156107b757600080fd5b81019080805190602001909291905050501461083b576040517f08c379a00000000000000000000000000000000000000000000000000000000081526004018080602001828103825260118152602001807f5065726d697373696f6e2064656e69656400000000000000000000000000000081525060200191505060405180910390fd5b6003600081546001900391905081905550600260008281526020019081526020016000206000808201600090556001820160006101000a81549073ffffffffffffffffffffffffffffffffffffffff021916905560028201600061089f9190611372565b6003820160006108af9190611372565b6004820160006108bf9190611372565b6005820160006101000a81549060ff0219169055505050565b600060608060606002600086815260200190815260200160002060010160009054906101000a900473ffffffffffffffffffffffffffffffffffffffff16600260008781526020019081526020016000206002016002600088815260200190815260200160002060030160026000898152602001908152602001600020600401828054600181600116156101000203166002900480601f0160208091040260200160405190810160405280929190818152602001828054600181600116156101000203166002900480156109ed5780601f106109c2576101008083540402835291602001916109ed565b820191906000526020600020905b8154815290600101906020018083116109d057829003601f168201915b50505050509250818054600181600116156101000203166002900480601f016020809104026020016040519081016040528092919081815260200182805460018160011615610100020316600290048015610a895780601f10610a5e57610100808354040283529160200191610a89565b820191906000526020600020905b815481529060010190602001808311610a6c57829003601f168201915b50505050509150808054600181600116156101000203166002900480601f016020809104026020016040519081016040528092919081815260200182805460018160011615610100020316600290048015610b255780601f10610afa57610100808354040283529160200191610b25565b820191906000526020600020905b815481529060010190602001808311610b0857829003601f168201915b5050505050905093509350935093509193509193565b60045481565b6000809054906101000a900473ffffffffffffffffffffffffffffffffffffffff1681565b6000600115156002600084815260200190815260200160002060050160009054906101000a900460ff16151514610be8576040517f08c379a000000000000000000000000000000000000000000000000000000000815260040180806020018281038252603a815260200180611481603a913960400191505060405180910390fd5b6002600083815260200190815260200160002060010160009054906101000a900473ffffffffffffffffffffffffffffffffffffffff169050919050565b600160009054906101000a900473ffffffffffffffffffffffffffffffffffffffff1681565b6000600354905090565b600115156000809054906101000a900473ffffffffffffffffffffffffffffffffffffffff1673ffffffffffffffffffffffffffffffffffffffff16639371de2b866040518263ffffffff1660e01b8152600401808273ffffffffffffffffffffffffffffffffffffffff1673ffffffffffffffffffffffffffffffffffffffff16815260200191505060206040518083038186803b158015610cf857600080fd5b505afa158015610d0c573d6000803e3d6000fd5b505050506040513d6020811015610d2257600080fd5b8101908080519060200190929190505050151514610d8b576040517f08c379a00000000000000000000000000000000000000000000000000000000081526004018080602001828103825260218152602001806114606021913960400191505060405180910390fd5b60026000809054906101000a900473ffffffffffffffffffffffffffffffffffffffff1673ffffffffffffffffffffffffffffffffffffffff1663256dced2336040518263ffffffff1660e01b8152600401808273ffffffffffffffffffffffffffffffffffffffff1673ffffffffffffffffffffffffffffffffffffffff16815260200191505060206040518083038186803b158015610e2b57600080fd5b505afa158015610e3f573d6000803e3d6000fd5b505050506040513d6020811015610e5557600080fd5b8101908080519060200190929190505050148015610f4b575060036000809054906101000a900473ffffffffffffffffffffffffffffffffffffffff1673ffffffffffffffffffffffffffffffffffffffff1663256dced2866040518263ffffffff1660e01b8152600401808273ffffffffffffffffffffffffffffffffffffffff1673ffffffffffffffffffffffffffffffffffffffff16815260200191505060206040518083038186803b158015610f0e57600080fd5b505afa158015610f22573d6000803e3d6000fd5b505050506040513d6020811015610f3857600080fd5b8101908080519060200190929190505050145b610fbd576040517f08c379a00000000000000000000000000000000000000000000000000000000081526004018080602001828103825260118152602001807f5065726d697373696f6e2064656e69656400000000000000000000000000000081525060200191505060405180910390fd5b600360008154600101919050819055506040518060c0016040528060045481526020018573ffffffffffffffffffffffffffffffffffffffff1681526020018481526020018381526020018281526020016001151581525060026000600460008154809291906001019190505581526020019081526020016000206000820151816000015560208201518160010160006101000a81548173ffffffffffffffffffffffffffffffffffffffff021916908373ffffffffffffffffffffffffffffffffffffffff16021790555060408201518160020190805190602001906110a59291906113ba565b5060608201518160030190805190602001906110c29291906113ba565b5060808201518160040190805190602001906110df9291906113ba565b5060a08201518160050160006101000a81548160ff0219169083151502179055509050507fb6e5c25f42b87347c37285e3250ef625ba87d2deab893640cf0877311d8cf94d60035485858585604051808681526020018573ffffffffffffffffffffffffffffffffffffffff1673ffffffffffffffffffffffffffffffffffffffff168152602001806020018060200180602001848103845287818151815260200191508051906020019080838360005b838110156111ab578082015181840152602081019050611190565b50505050905090810190601f1680156111d85780820380516001836020036101000a031916815260200191505b50848103835286818151815260200191508051906020019080838360005b838110156112115780820151818401526020810190506111f6565b50505050905090810190601f16801561123e5780820380516001836020036101000a031916815260200191505b50848103825285818151815260200191508051906020019080838360005b8381101561127757808201518184015260208101905061125c565b50505050905090810190601f1680156112a45780820380516001836020036101000a031916815260200191505b509850505050505050505060405180910390a150505050565b60035481565b6000600454905090565b6000600160009054906101000a900473ffffffffffffffffffffffffffffffffffffffff1673ffffffffffffffffffffffffffffffffffffffff163373ffffffffffffffffffffffffffffffffffffffff161461132957600080fd5b816000806101000a81548173ffffffffffffffffffffffffffffffffffffffff021916908373ffffffffffffffffffffffffffffffffffffffff16021790555060019050919050565b50805460018160011615610100020316600290046000825580601f1061139857506113b7565b601f0160209004906000526020600020908101906113b6919061143a565b5b50565b828054600181600116156101000203166002900490600052602060002090601f016020900481019282601f106113fb57805160ff1916838001178555611429565b82800160010185558215611429579182015b8281111561142857825182559160200191906001019061140d565b5b509050611436919061143a565b5090565b61145c91905b80821115611458576000816000905550600101611440565b5090565b9056fe5573657220646f6573206e6f7420657869737420696e207468652073797374656d436572746966696361746520776974682074686520676976656e20494420646f6573206e6f7420657869737420696e207468652073797374656da265627a7a7231582066f1ca2bda1f59ed8a9ac1e835866bd4e6928d963034da2a61eb3c97d638fa7364736f6c63430005100032",
  "source": "pragma solidity >=0.4.22;\r\nimport \"./Participants.sol\";\r\n\r\ncontract Certificates {\r\n    Participants public participants;\r\n    address public owner;\r\n    mapping(uint256 => Certificate) certificatesList;\r\n    uint256 public certificatesCount = 0;\r\n    uint256 public totalCertificatesCount = 0;\r\n\r\n    struct Certificate {\r\n        uint256 id;\r\n        address recipientAddr;\r\n        string certificateHash;\r\n        string ipfsHash;\r\n        string encKey;\r\n        bool exists;\r\n    }\r\n\r\n    event certificateCreationEvent(\r\n        uint256 id,\r\n        address recipientAddr,\r\n        string certificateHash,\r\n        string ipfsHash,\r\n        string encKey\r\n    );\r\n\r\n    modifier onlyOwner {\r\n        require(msg.sender == owner);\r\n        _;\r\n    }\r\n\r\n    constructor(address participantsContractAddress) public {\r\n        participants = Participants(participantsContractAddress);\r\n        owner = msg.sender;\r\n    }\r\n\r\n    function changeParticipantsContractAddress(\r\n        address newParticipantsContractAddress\r\n    ) public onlyOwner returns (bool) {\r\n        participants = Participants(newParticipantsContractAddress);\r\n        return true;\r\n    }\r\n\r\n    function createCertificate(\r\n        address _recipientAddr,\r\n        string memory _certificateHash,\r\n        string memory _ipfsHash,\r\n        string memory _encKey\r\n    ) public {\r\n        require(\r\n            participants.checkIfUserExists(_recipientAddr) == true,\r\n            \"User does not exist in the system\"\r\n        );\r\n        require(\r\n            participants.getParticularUsersType(msg.sender) == 2 &&\r\n                participants.getParticularUsersType(_recipientAddr) == 3,\r\n            \"Permission denied\"\r\n        );\r\n        ++certificatesCount;\r\n        certificatesList[totalCertificatesCount++] = Certificate(\r\n            totalCertificatesCount,\r\n            _recipientAddr,\r\n            _certificateHash,\r\n            _ipfsHash,\r\n            _encKey,\r\n            true\r\n        );\r\n        emit certificateCreationEvent(\r\n            certificatesCount,\r\n            _recipientAddr,\r\n            _certificateHash,\r\n            _ipfsHash,\r\n            _encKey\r\n        );\r\n    }\r\n\r\n    // function getUserCertificates() public returns(uint, uint[] memory) {\r\n    //     require(participants.checkIfUserExists(msg.sender)==true, \"User does not exist in the system\");\r\n    //     uint[] memory certificatesId;\r\n    //     uint cnt=0;\r\n    //     for(uint i=0; i<certificatesCount; i++){\r\n    //         a = certificatesList[i].recipientAddr;\r\n    //         if(certificatesList[i].recipientAddr == msg.sender){\r\n\r\n    //             ++c;\r\n    //             certificatesId[cnt++]=certificatesList[i].id;\r\n    //         }\r\n    //     }\r\n    //     return (cnt, certificatesId);\r\n    // }\r\n\r\n    function getCertificatesCount() public view returns (uint256) {\r\n        return certificatesCount;\r\n    }\r\n    function getTotalCertificatesCount() public view returns (uint256) {\r\n        return totalCertificatesCount;\r\n    }\r\n\r\n    function getParticularCertificate(uint256 _id)\r\n        public\r\n        view\r\n        returns (\r\n            address,\r\n            string memory,\r\n            string memory,\r\n            string memory\r\n        )\r\n    {\r\n        /*require(\r\n            certificatesList[_id].exists == true,\r\n            \"Certificate with the given ID does not exist in the system\"\r\n        );*/\r\n        return (\r\n            certificatesList[_id].recipientAddr,\r\n            certificatesList[_id].certificateHash,\r\n            certificatesList[_id].ipfsHash,\r\n            certificatesList[_id].encKey\r\n        );\r\n    }\r\n\r\n    function getParticularCertificateRecipientAddress(uint256 _id)\r\n        public\r\n        view\r\n        returns (address)\r\n    {\r\n        require(\r\n            certificatesList[_id].exists == true,\r\n            \"Certificate with the given ID does not exist in the system\"\r\n        );\r\n        \r\n        return (\r\n            certificatesList[_id].recipientAddr            \r\n        );\r\n    }\r\n    \r\n    function revokeCertificate(uint256 _id)\r\n        public\r\n    {\r\n        require(\r\n            certificatesList[_id].exists == true,\r\n            \"Certificate with the given ID does not exist in the system\"\r\n        );\r\n        require(\r\n            participants.getParticularUsersType(msg.sender) == 2,\r\n            \"Permission denied\"\r\n        );\r\n        --certificatesCount;\r\n        delete certificatesList[_id];\r\n    }\r\n\r\n    // function getParticularInstitutionCertificates(string memory _institution) view public returns(uint[] memory) {\r\n    //     require(participants.checkIfInstitutionExists(_institution)==true, \"Given institution does not exist in the system\");uint[] memory certificatesId;\r\n    //     uint cnt=0;\r\n    //     uint[] memory certificatesId;\r\n    //     for(uint i=0; i<certificatesCount; i++){\r\n    //         if(keccak256(abi.encodePacked(participants.getParticularUsersInstitution(certificatesList[i].recipientAddr)))\r\n    //         == keccak256(abi.encodePacked(_institution))){\r\n    //             certificatesId[cnt++]=certificatesList[i].id;\r\n    //         }\r\n    //     }\r\n    //     return certificatesId;\r\n    // }\r\n}\r\n",
  "sourcePath": "E:/FYP/DAPP-FYP/contracts/Certificates.sol",
  "compiler": {
    "name": "solc",
    "version": "0.5.16+commit.9c3226ce.Emscripten.clang"
  },
  "schemaVersion": "3.3.2",
  "updatedAt": "2021-04-03T15:49:28.367Z",
  "networkType": "ethereum",
  "devdoc": {
    "methods": {}
  },
  "userdoc": {
    "methods": {}
  }
}