{
  "contractName": "Participants",
  "abi": [
    {
      "inputs": [],
      "payable": false,
      "stateMutability": "nonpayable",
      "type": "constructor"
    },
    {
      "anonymous": false,
      "inputs": [
        {
          "indexed": false,
          "internalType": "uint256",
          "name": "id",
          "type": "uint256"
        },
        {
          "indexed": false,
          "internalType": "string",
          "name": "name",
          "type": "string"
        },
        {
          "indexed": false,
          "internalType": "uint256",
          "name": "userType",
          "type": "uint256"
        },
        {
          "indexed": false,
          "internalType": "string",
          "name": "institution",
          "type": "string"
        }
      ],
      "name": "userRequestEvent",
      "type": "event"
    },
    {
      "constant": true,
      "inputs": [],
      "name": "institutionCount",
      "outputs": [
        {
          "internalType": "uint256",
          "name": "",
          "type": "uint256"
        }
      ],
      "payable": false,
      "stateMutability": "view",
      "type": "function"
    },
    {
      "constant": true,
      "inputs": [],
      "name": "requestsCount",
      "outputs": [
        {
          "internalType": "uint256",
          "name": "",
          "type": "uint256"
        }
      ],
      "payable": false,
      "stateMutability": "view",
      "type": "function"
    },
    {
      "constant": true,
      "inputs": [],
      "name": "usersCount",
      "outputs": [
        {
          "internalType": "uint256",
          "name": "",
          "type": "uint256"
        }
      ],
      "payable": false,
      "stateMutability": "view",
      "type": "function"
    },
    {
      "constant": false,
      "inputs": [
        {
          "internalType": "string",
          "name": "_name",
          "type": "string"
        },
        {
          "internalType": "uint256",
          "name": "_userType",
          "type": "uint256"
        },
        {
          "internalType": "string",
          "name": "_institution",
          "type": "string"
        }
      ],
      "name": "createUserRequest",
      "outputs": [],
      "payable": false,
      "stateMutability": "nonpayable",
      "type": "function"
    },
    {
      "constant": true,
      "inputs": [],
      "name": "getPendingRequest",
      "outputs": [
        {
          "internalType": "address[]",
          "name": "",
          "type": "address[]"
        }
      ],
      "payable": false,
      "stateMutability": "view",
      "type": "function"
    },
    {
      "constant": true,
      "inputs": [],
      "name": "getUsers",
      "outputs": [
        {
          "internalType": "address[]",
          "name": "",
          "type": "address[]"
        }
      ],
      "payable": false,
      "stateMutability": "view",
      "type": "function"
    },
    {
      "constant": true,
      "inputs": [
        {
          "internalType": "address",
          "name": "addr",
          "type": "address"
        }
      ],
      "name": "checkIfUserExists",
      "outputs": [
        {
          "internalType": "bool",
          "name": "",
          "type": "bool"
        }
      ],
      "payable": false,
      "stateMutability": "view",
      "type": "function"
    },
    {
      "constant": true,
      "inputs": [
        {
          "internalType": "address",
          "name": "addr",
          "type": "address"
        }
      ],
      "name": "getParticularUsersType",
      "outputs": [
        {
          "internalType": "uint256",
          "name": "",
          "type": "uint256"
        }
      ],
      "payable": false,
      "stateMutability": "view",
      "type": "function"
    },
    {
      "constant": true,
      "inputs": [
        {
          "internalType": "address",
          "name": "addr",
          "type": "address"
        }
      ],
      "name": "getParticularUsersInstitution",
      "outputs": [
        {
          "internalType": "string",
          "name": "",
          "type": "string"
        }
      ],
      "payable": false,
      "stateMutability": "view",
      "type": "function"
    },
    {
      "constant": true,
      "inputs": [
        {
          "internalType": "address",
          "name": "addr",
          "type": "address"
        }
      ],
      "name": "getParticularUser",
      "outputs": [
        {
          "internalType": "uint256",
          "name": "",
          "type": "uint256"
        },
        {
          "internalType": "string",
          "name": "",
          "type": "string"
        },
        {
          "internalType": "uint256",
          "name": "",
          "type": "uint256"
        },
        {
          "internalType": "string",
          "name": "",
          "type": "string"
        },
        {
          "internalType": "address",
          "name": "",
          "type": "address"
        }
      ],
      "payable": false,
      "stateMutability": "view",
      "type": "function"
    },
    {
      "constant": true,
      "inputs": [
        {
          "internalType": "address",
          "name": "addr",
          "type": "address"
        }
      ],
      "name": "getParticularRequest",
      "outputs": [
        {
          "internalType": "uint256",
          "name": "",
          "type": "uint256"
        },
        {
          "internalType": "string",
          "name": "",
          "type": "string"
        },
        {
          "internalType": "uint256",
          "name": "",
          "type": "uint256"
        },
        {
          "internalType": "string",
          "name": "",
          "type": "string"
        },
        {
          "internalType": "address",
          "name": "",
          "type": "address"
        }
      ],
      "payable": false,
      "stateMutability": "view",
      "type": "function"
    },
    {
      "constant": false,
      "inputs": [
        {
          "internalType": "address",
          "name": "addr",
          "type": "address"
        }
      ],
      "name": "approveRequest",
      "outputs": [],
      "payable": false,
      "stateMutability": "nonpayable",
      "type": "function"
    },
    {
      "constant": false,
      "inputs": [
        {
          "internalType": "address",
          "name": "addr",
          "type": "address"
        }
      ],
      "name": "declineRequest",
      "outputs": [],
      "payable": false,
      "stateMutability": "nonpayable",
      "type": "function"
    },
    {
      "constant": true,
      "inputs": [
        {
          "internalType": "uint256",
          "name": "i",
          "type": "uint256"
        }
      ],
      "name": "getInstitution",
      "outputs": [
        {
          "internalType": "string",
          "name": "",
          "type": "string"
        }
      ],
      "payable": false,
      "stateMutability": "view",
      "type": "function"
    },
    {
      "constant": true,
      "inputs": [],
      "name": "getInstitutionsCount",
      "outputs": [
        {
          "internalType": "uint256",
          "name": "",
          "type": "uint256"
        }
      ],
      "payable": false,
      "stateMutability": "view",
      "type": "function"
    },
    {
      "constant": true,
      "inputs": [
        {
          "internalType": "string",
          "name": "_institution",
          "type": "string"
        }
      ],
      "name": "checkIfInstitutionExists",
      "outputs": [
        {
          "internalType": "bool",
          "name": "",
          "type": "bool"
        }
      ],
      "payable": false,
      "stateMutability": "view",
      "type": "function"
    }
  ],
  "bytecode": "0x6080604052600060035560006004556000600555600060065560006007553480156200002a57600080fd5b5060083390806001815401808255809150509060018203906000526020600020016000909192909190916101000a81548173ffffffffffffffffffffffffffffffffffffffff021916908373ffffffffffffffffffffffffffffffffffffffff160217905550506040518060c001604052806103e881526020016040518060400160405280600a81526020017f6d61696e5f61646d696e000000000000000000000000000000000000000000008152508152602001600181526020016040518060400160405280600481526020017f4e6f6e650000000000000000000000000000000000000000000000000000000081525081526020013373ffffffffffffffffffffffffffffffffffffffff168152602001600115158152506000803373ffffffffffffffffffffffffffffffffffffffff1673ffffffffffffffffffffffffffffffffffffffff168152602001908152602001600020600082015181600001556020820151816001019080519060200190620001aa9291906200032d565b50604082015181600201556060820151816003019080519060200190620001d39291906200032d565b5060808201518160040160006101000a81548173ffffffffffffffffffffffffffffffffffffffff021916908373ffffffffffffffffffffffffffffffffffffffff16021790555060a08201518160040160146101000a81548160ff02191690831515021790555090505060036000815460010191905081905550600a8060018154018082558091505090600182039060005260206000200160006040518060400160405280600481526020017f4e6f6e650000000000000000000000000000000000000000000000000000000081525090919091509080519060200190620002be929190620003b4565b5050600760008154600101919050819055506001600260405180807f4e6f6e65000000000000000000000000000000000000000000000000000000008152506004019050908152602001604051809103902060006101000a81548160ff02191690831515021790555062000463565b828054600181600116156101000203166002900490600052602060002090601f016020900481019282601f106200037057805160ff1916838001178555620003a1565b82800160010185558215620003a1579182015b82811115620003a057825182559160200191906001019062000383565b5b509050620003b091906200043b565b5090565b828054600181600116156101000203166002900490600052602060002090601f016020900481019282601f10620003f757805160ff191683800117855562000428565b8280016001018555821562000428579182015b82811115620004275782518255916020019190600101906200040a565b5b5090506200043791906200043b565b5090565b6200046091905b808211156200045c57600081600090555060010162000442565b5090565b90565b612cb280620004736000396000f3fe608060405234801561001057600080fd5b50600436106100ff5760003560e01c80636df2820d11610097578063e476ff4511610066578063e476ff4514610811578063e8fc3ef8146108ce578063ef166d5a146108ec578063fbfa4b7f146109bf576100ff565b80636df2820d1461055357806390f4fe72146106af5780639371de2b1461070e578063c047b6541461076a576100ff565b8063256dced2116100d3578063256dced2146102095780633a97be57146102615780636ba13a82146103cb5780636c14298f146103e9576100ff565b8062ce8e3e14610104578063061dff9a146101635780631e27ac7d146101a75780631ea5a1f8146101c5575b600080fd5b61010c6109dd565b6040518080602001828103825283818151815260200191508051906020019060200280838360005b8381101561014f578082015181840152602081019050610134565b505050509050019250505060405180910390f35b6101a56004803603602081101561017957600080fd5b81019080803573ffffffffffffffffffffffffffffffffffffffff169060200190929190505050610a6b565b005b6101af611518565b6040518082815260200191505060405180910390f35b610207600480360360208110156101db57600080fd5b81019080803573ffffffffffffffffffffffffffffffffffffffff169060200190929190505050611522565b005b61024b6004803603602081101561021f57600080fd5b81019080803573ffffffffffffffffffffffffffffffffffffffff1690602001909291905050506119a4565b6040518082815260200191505060405180910390f35b6102a36004803603602081101561027757600080fd5b81019080803573ffffffffffffffffffffffffffffffffffffffff169060200190929190505050611ab0565b6040518086815260200180602001858152602001806020018473ffffffffffffffffffffffffffffffffffffffff1673ffffffffffffffffffffffffffffffffffffffff168152602001838103835287818151815260200191508051906020019080838360005b8381101561032557808201518184015260208101905061030a565b50505050905090810190601f1680156103525780820380516001836020036101000a031916815260200191505b50838103825285818151815260200191508051906020019080838360005b8381101561038b578082015181840152602081019050610370565b50505050905090810190601f1680156103b85780820380516001836020036101000a031916815260200191505b5097505050505050505060405180910390f35b6103d3611e34565b6040518082815260200191505060405180910390f35b61042b600480360360208110156103ff57600080fd5b81019080803573ffffffffffffffffffffffffffffffffffffffff169060200190929190505050611e3a565b6040518086815260200180602001858152602001806020018473ffffffffffffffffffffffffffffffffffffffff1673ffffffffffffffffffffffffffffffffffffffff168152602001838103835287818151815260200191508051906020019080838360005b838110156104ad578082015181840152602081019050610492565b50505050905090810190601f1680156104da5780820380516001836020036101000a031916815260200191505b50838103825285818151815260200191508051906020019080838360005b838110156105135780820151818401526020810190506104f8565b50505050905090810190601f1680156105405780820380516001836020036101000a031916815260200191505b5097505050505050505060405180910390f35b6106ad6004803603606081101561056957600080fd5b810190808035906020019064010000000081111561058657600080fd5b82018360208201111561059857600080fd5b803590602001918460018302840111640100000000831117156105ba57600080fd5b91908080601f016020809104026020016040519081016040528093929190818152602001838380828437600081840152601f19601f820116905080830192505050505050509192919290803590602001909291908035906020019064010000000081111561062757600080fd5b82018360208201111561063957600080fd5b8035906020019184600183028401116401000000008311171561065b57600080fd5b91908080601f016020809104026020016040519081016040528093929190818152602001838380828437600081840152601f19601f8201169050808301925050505050505091929192905050506121b8565b005b6106b76125a7565b6040518080602001828103825283818151815260200191508051906020019060200280838360005b838110156106fa5780820151818401526020810190506106df565b505050509050019250505060405180910390f35b6107506004803603602081101561072457600080fd5b81019080803573ffffffffffffffffffffffffffffffffffffffff169060200190929190505050612635565b604051808215151515815260200191505060405180910390f35b6107966004803603602081101561078057600080fd5b810190808035906020019092919050505061269e565b6040518080602001828103825283818151815260200191508051906020019080838360005b838110156107d65780820151818401526020810190506107bb565b50505050905090810190601f1680156108035780820380516001836020036101000a031916815260200191505b509250505060405180910390f35b6108536004803603602081101561082757600080fd5b81019080803573ffffffffffffffffffffffffffffffffffffffff169060200190929190505050612865565b6040518080602001828103825283818151815260200191508051906020019080838360005b83811015610893578082015181840152602081019050610878565b50505050905090810190601f1680156108c05780820380516001836020036101000a031916815260200191505b509250505060405180910390f35b6108d6612a09565b6040518082815260200191505060405180910390f35b6109a56004803603602081101561090257600080fd5b810190808035906020019064010000000081111561091f57600080fd5b82018360208201111561093157600080fd5b8035906020019184600183028401116401000000008311171561095357600080fd5b91908080601f016020809104026020016040519081016040528093929190818152602001838380828437600081840152601f19601f820116905080830192505050505050509192919290505050612a0f565b604051808215151515815260200191505060405180910390f35b6109c7612a8f565b6040518082815260200191505060405180910390f35b60606008805480602002602001604051908101604052809291908181526020018280548015610a6157602002820191906000526020600020905b8160009054906101000a900473ffffffffffffffffffffffffffffffffffffffff1673ffffffffffffffffffffffffffffffffffffffff1681526020019060010190808311610a17575b5050505050905090565b600160008273ffffffffffffffffffffffffffffffffffffffff1673ffffffffffffffffffffffffffffffffffffffff16815260200190815260200160002060040160149054906101000a900460ff16610b2d576040517f08c379a00000000000000000000000000000000000000000000000000000000081526004018080602001828103825260168152602001807f506572736f6e20646f6573206e6f742065786973742e0000000000000000000081525060200191505060405180910390fd5b60016000803373ffffffffffffffffffffffffffffffffffffffff1673ffffffffffffffffffffffffffffffffffffffff168152602001908152602001600020600201541480610d3c575060026000803373ffffffffffffffffffffffffffffffffffffffff1673ffffffffffffffffffffffffffffffffffffffff16815260200190815260200160002060020154148015610d3b57506000803373ffffffffffffffffffffffffffffffffffffffff1673ffffffffffffffffffffffffffffffffffffffff1681526020019081526020016000206003016040516020018082805460018160011615610100020316600290048015610c635780601f10610c41576101008083540402835291820191610c63565b820191906000526020600020905b815481529060010190602001808311610c4f575b505091505060405160208183030381529060405280519060200120600160008373ffffffffffffffffffffffffffffffffffffffff1673ffffffffffffffffffffffffffffffffffffffff1681526020019081526020016000206003016040516020018082805460018160011615610100020316600290048015610d1e5780601f10610cfc576101008083540402835291820191610d1e565b820191906000526020600020905b815481529060010190602001808311610d0a575b505091505060405160208183030381529060405280519060200120145b5b610dae576040517f08c379a000000000000000000000000000000000000000000000000000000000815260040180806020018281038252600d8152602001807f4163636573732064656e6965640000000000000000000000000000000000000081525060200191505060405180910390fd5b60006006600081546001019190508190556103e801905060036000815460010191905081905550610ddd612a95565b600160008473ffffffffffffffffffffffffffffffffffffffff1673ffffffffffffffffffffffffffffffffffffffff1681526020019081526020016000206040518060c001604052908160008201548152602001600182018054600181600116156101000203166002900480601f016020809104026020016040519081016040528092919081815260200182805460018160011615610100020316600290048015610eca5780601f10610e9f57610100808354040283529160200191610eca565b820191906000526020600020905b815481529060010190602001808311610ead57829003601f168201915b5050505050815260200160028201548152602001600382018054600181600116156101000203166002900480601f016020809104026020016040519081016040528092919081815260200182805460018160011615610100020316600290048015610f765780601f10610f4b57610100808354040283529160200191610f76565b820191906000526020600020905b815481529060010190602001808311610f5957829003601f168201915b505050505081526020016004820160009054906101000a900473ffffffffffffffffffffffffffffffffffffffff1673ffffffffffffffffffffffffffffffffffffffff1673ffffffffffffffffffffffffffffffffffffffff1681526020016004820160149054906101000a900460ff161515151581525050905081816000018181525050806000808573ffffffffffffffffffffffffffffffffffffffff1673ffffffffffffffffffffffffffffffffffffffff168152602001908152602001600020600082015181600001556020820151816001019080519060200190611061929190612ae3565b50604082015181600201556060820151816003019080519060200190611088929190612ae3565b5060808201518160040160006101000a81548173ffffffffffffffffffffffffffffffffffffffff021916908373ffffffffffffffffffffffffffffffffffffffff16021790555060a08201518160040160146101000a81548160ff02191690831515021790555090505060088390806001815401808255809150509060018203906000526020600020016000909192909190916101000a81548173ffffffffffffffffffffffffffffffffffffffff021916908373ffffffffffffffffffffffffffffffffffffffff16021790555050600960018060008673ffffffffffffffffffffffffffffffffffffffff1673ffffffffffffffffffffffffffffffffffffffff1681526020019081526020016000206000015403815481106111aa57fe5b9060005260206000200160006101000a81549073ffffffffffffffffffffffffffffffffffffffff0219169055600160008473ffffffffffffffffffffffffffffffffffffffff1673ffffffffffffffffffffffffffffffffffffffff16815260200190815260200160002060008082016000905560018201600061122f9190612b63565b60028201600090556003820160006112479190612b63565b6004820160006101000a81549073ffffffffffffffffffffffffffffffffffffffff02191690556004820160146101000a81549060ff02191690555050600460008154600190039190508190555060026000808573ffffffffffffffffffffffffffffffffffffffff1673ffffffffffffffffffffffffffffffffffffffff168152602001908152602001600020600201541480156113a857506000151560026000808673ffffffffffffffffffffffffffffffffffffffff1673ffffffffffffffffffffffffffffffffffffffff16815260200190815260200160002060030160405180828054600181600116156101000203166002900480156113835780601f10611361576101008083540402835291820191611383565b820191906000526020600020905b81548152906001019060200180831161136f575b5050915050908152602001604051809103902060009054906101000a900460ff161515145b1561151357600160026000808673ffffffffffffffffffffffffffffffffffffffff1673ffffffffffffffffffffffffffffffffffffffff168152602001908152602001600020600301604051808280546001816001161561010002031660029004801561144d5780601f1061142b57610100808354040283529182019161144d565b820191906000526020600020905b815481529060010190602001808311611439575b5050915050908152602001604051809103902060006101000a81548160ff021916908315150217905550600a6000808573ffffffffffffffffffffffffffffffffffffffff1673ffffffffffffffffffffffffffffffffffffffff1681526020019081526020016000206003019080600181540180825580915050906001820390600052602060002001600090919290919091509080546001816001161561010002031660029004611500929190612bab565b5050600760008154600101919050819055505b505050565b6000600754905090565b600160008273ffffffffffffffffffffffffffffffffffffffff1673ffffffffffffffffffffffffffffffffffffffff16815260200190815260200160002060040160149054906101000a900460ff166115e4576040517f08c379a00000000000000000000000000000000000000000000000000000000081526004018080602001828103825260168152602001807f506572736f6e20646f6573206e6f742065786973742e0000000000000000000081525060200191505060405180910390fd5b60016000803373ffffffffffffffffffffffffffffffffffffffff1673ffffffffffffffffffffffffffffffffffffffff1681526020019081526020016000206002015414806117f3575060026000803373ffffffffffffffffffffffffffffffffffffffff1673ffffffffffffffffffffffffffffffffffffffff168152602001908152602001600020600201541480156117f257506000803373ffffffffffffffffffffffffffffffffffffffff1673ffffffffffffffffffffffffffffffffffffffff168152602001908152602001600020600301604051602001808280546001816001161561010002031660029004801561171a5780601f106116f857610100808354040283529182019161171a565b820191906000526020600020905b815481529060010190602001808311611706575b505091505060405160208183030381529060405280519060200120600160008373ffffffffffffffffffffffffffffffffffffffff1673ffffffffffffffffffffffffffffffffffffffff16815260200190815260200160002060030160405160200180828054600181600116156101000203166002900480156117d55780601f106117b35761010080835404028352918201916117d5565b820191906000526020600020905b8154815290600101906020018083116117c1575b505091505060405160208183030381529060405280519060200120145b5b611865576040517f08c379a000000000000000000000000000000000000000000000000000000000815260040180806020018281038252600d8152602001807f4163636573732064656e6965640000000000000000000000000000000000000081525060200191505060405180910390fd5b600960018060008473ffffffffffffffffffffffffffffffffffffffff1673ffffffffffffffffffffffffffffffffffffffff1681526020019081526020016000206000015403815481106118b657fe5b9060005260206000200160006101000a81549073ffffffffffffffffffffffffffffffffffffffff0219169055600160008273ffffffffffffffffffffffffffffffffffffffff1673ffffffffffffffffffffffffffffffffffffffff16815260200190815260200160002060008082016000905560018201600061193b9190612b63565b60028201600090556003820160006119539190612b63565b6004820160006101000a81549073ffffffffffffffffffffffffffffffffffffffff02191690556004820160146101000a81549060ff02191690555050600460008154600190039190508190555050565b60008060008373ffffffffffffffffffffffffffffffffffffffff1673ffffffffffffffffffffffffffffffffffffffff16815260200190815260200160002060040160149054906101000a900460ff16611a67576040517f08c379a00000000000000000000000000000000000000000000000000000000081526004018080602001828103825260168152602001807f506572736f6e20646f6573206e6f742065786973742e0000000000000000000081525060200191505060405180910390fd5b6000808373ffffffffffffffffffffffffffffffffffffffff1673ffffffffffffffffffffffffffffffffffffffff168152602001908152602001600020600201549050919050565b60006060600060606000600160008773ffffffffffffffffffffffffffffffffffffffff1673ffffffffffffffffffffffffffffffffffffffff16815260200190815260200160002060040160149054906101000a900460ff16611b7c576040517f08c379a00000000000000000000000000000000000000000000000000000000081526004018080602001828103825260168152602001807f506572736f6e20646f6573206e6f742065786973742e0000000000000000000081525060200191505060405180910390fd5b600160008773ffffffffffffffffffffffffffffffffffffffff1673ffffffffffffffffffffffffffffffffffffffff16815260200190815260200160002060000154600160008873ffffffffffffffffffffffffffffffffffffffff1673ffffffffffffffffffffffffffffffffffffffff168152602001908152602001600020600101600160008973ffffffffffffffffffffffffffffffffffffffff1673ffffffffffffffffffffffffffffffffffffffff16815260200190815260200160002060020154600160008a73ffffffffffffffffffffffffffffffffffffffff1673ffffffffffffffffffffffffffffffffffffffff168152602001908152602001600020600301600160008b73ffffffffffffffffffffffffffffffffffffffff1673ffffffffffffffffffffffffffffffffffffffff16815260200190815260200160002060040160009054906101000a900473ffffffffffffffffffffffffffffffffffffffff16838054600181600116156101000203166002900480601f016020809104026020016040519081016040528092919081815260200182805460018160011615610100020316600290048015611d7e5780601f10611d5357610100808354040283529160200191611d7e565b820191906000526020600020905b815481529060010190602001808311611d6157829003601f168201915b50505050509350818054600181600116156101000203166002900480601f016020809104026020016040519081016040528092919081815260200182805460018160011615610100020316600290048015611e1a5780601f10611def57610100808354040283529160200191611e1a565b820191906000526020600020905b815481529060010190602001808311611dfd57829003601f168201915b505050505091509450945094509450945091939590929450565b60035481565b600060606000606060008060008773ffffffffffffffffffffffffffffffffffffffff1673ffffffffffffffffffffffffffffffffffffffff16815260200190815260200160002060040160149054906101000a900460ff16611f05576040517f08c379a00000000000000000000000000000000000000000000000000000000081526004018080602001828103825260168152602001807f506572736f6e20646f6573206e6f742065786973742e0000000000000000000081525060200191505060405180910390fd5b6000808773ffffffffffffffffffffffffffffffffffffffff1673ffffffffffffffffffffffffffffffffffffffff168152602001908152602001600020600001546000808873ffffffffffffffffffffffffffffffffffffffff1673ffffffffffffffffffffffffffffffffffffffff1681526020019081526020016000206001016000808973ffffffffffffffffffffffffffffffffffffffff1673ffffffffffffffffffffffffffffffffffffffff168152602001908152602001600020600201546000808a73ffffffffffffffffffffffffffffffffffffffff1673ffffffffffffffffffffffffffffffffffffffff1681526020019081526020016000206003016000808b73ffffffffffffffffffffffffffffffffffffffff1673ffffffffffffffffffffffffffffffffffffffff16815260200190815260200160002060040160009054906101000a900473ffffffffffffffffffffffffffffffffffffffff16838054600181600116156101000203166002900480601f0160208091040260200160405190810160405280929190818152602001828054600181600116156101000203166002900480156121025780601f106120d757610100808354040283529160200191612102565b820191906000526020600020905b8154815290600101906020018083116120e557829003601f168201915b50505050509350818054600181600116156101000203166002900480601f01602080910402602001604051908101604052809291908181526020018280546001816001161561010002031660029004801561219e5780601f106121735761010080835404028352916020019161219e565b820191906000526020600020905b81548152906001019060200180831161218157829003601f168201915b505050505091509450945094509450945091939590929450565b60001515600160003373ffffffffffffffffffffffffffffffffffffffff1673ffffffffffffffffffffffffffffffffffffffff16815260200190815260200160002060040160149054906101000a900460ff16151514801561226d5750600015156000803373ffffffffffffffffffffffffffffffffffffffff1673ffffffffffffffffffffffffffffffffffffffff16815260200190815260200160002060040160149054906101000a900460ff161515145b6122c2576040517f08c379a0000000000000000000000000000000000000000000000000000000008152600401808060200182810382526026815260200180612c586026913960400191505060405180910390fd5b60006005600081546001019190508190559050600460008154600101919050819055506040518060c001604052808281526020018581526020018481526020018381526020013373ffffffffffffffffffffffffffffffffffffffff16815260200160011515815250600160003373ffffffffffffffffffffffffffffffffffffffff1673ffffffffffffffffffffffffffffffffffffffff168152602001908152602001600020600082015181600001556020820151816001019080519060200190612390929190612ae3565b506040820151816002015560608201518160030190805190602001906123b7929190612ae3565b5060808201518160040160006101000a81548173ffffffffffffffffffffffffffffffffffffffff021916908373ffffffffffffffffffffffffffffffffffffffff16021790555060a08201518160040160146101000a81548160ff02191690831515021790555090505060093390806001815401808255809150509060018203906000526020600020016000909192909190916101000a81548173ffffffffffffffffffffffffffffffffffffffff021916908373ffffffffffffffffffffffffffffffffffffffff160217905550507f7882c0ecb03f29b503e235553ac12015cfe4430261ec58070bb5a4a02b6e885281858585604051808581526020018060200184815260200180602001838103835286818151815260200191508051906020019080838360005b838110156124fd5780820151818401526020810190506124e2565b50505050905090810190601f16801561252a5780820380516001836020036101000a031916815260200191505b50838103825284818151815260200191508051906020019080838360005b83811015612563578082015181840152602081019050612548565b50505050905090810190601f1680156125905780820380516001836020036101000a031916815260200191505b50965050505050505060405180910390a150505050565b6060600980548060200260200160405190810160405280929190818152602001828054801561262b57602002820191906000526020600020905b8160009054906101000a900473ffffffffffffffffffffffffffffffffffffffff1673ffffffffffffffffffffffffffffffffffffffff16815260200190600101908083116125e1575b5050505050905090565b60008060008373ffffffffffffffffffffffffffffffffffffffff1673ffffffffffffffffffffffffffffffffffffffff16815260200190815260200160002060040160149054906101000a900460ff16156126945760019050612699565b600090505b919050565b6060600115156002600a84815481106126b357fe5b9060005260206000200160405180828054600181600116156101000203166002900480156127185780601f106126f6576101008083540402835291820191612718565b820191906000526020600020905b815481529060010190602001808311612704575b5050915050908152602001604051809103902060009054906101000a900460ff161515146127ae576040517f08c379a000000000000000000000000000000000000000000000000000000000815260040180806020018281038252601a8152602001807f496e737469747574696f6e20646f6573206e6f7420657869737400000000000081525060200191505060405180910390fd5b600a82815481106127bb57fe5b906000526020600020018054600181600116156101000203166002900480601f0160208091040260200160405190810160405280929190818152602001828054600181600116156101000203166002900480156128595780601f1061282e57610100808354040283529160200191612859565b820191906000526020600020905b81548152906001019060200180831161283c57829003601f168201915b50505050509050919050565b60606000808373ffffffffffffffffffffffffffffffffffffffff1673ffffffffffffffffffffffffffffffffffffffff16815260200190815260200160002060040160149054906101000a900460ff16612928576040517f08c379a00000000000000000000000000000000000000000000000000000000081526004018080602001828103825260168152602001807f506572736f6e20646f6573206e6f742065786973742e0000000000000000000081525060200191505060405180910390fd5b6000808373ffffffffffffffffffffffffffffffffffffffff1673ffffffffffffffffffffffffffffffffffffffff1681526020019081526020016000206003018054600181600116156101000203166002900480601f0160208091040260200160405190810160405280929190818152602001828054600181600116156101000203166002900480156129fd5780601f106129d2576101008083540402835291602001916129fd565b820191906000526020600020905b8154815290600101906020018083116129e057829003601f168201915b50505050509050919050565b60075481565b60006002826040518082805190602001908083835b60208310612a475780518252602082019150602081019050602083039250612a24565b6001836020036101000a038019825116818451168082178552505050505050905001915050908152602001604051809103902060009054906101000a900460ff169050919050565b60045481565b6040518060c0016040528060008152602001606081526020016000815260200160608152602001600073ffffffffffffffffffffffffffffffffffffffff1681526020016000151581525090565b828054600181600116156101000203166002900490600052602060002090601f016020900481019282601f10612b2457805160ff1916838001178555612b52565b82800160010185558215612b52579182015b82811115612b51578251825591602001919060010190612b36565b5b509050612b5f9190612c32565b5090565b50805460018160011615610100020316600290046000825580601f10612b895750612ba8565b601f016020900490600052602060002090810190612ba79190612c32565b5b50565b828054600181600116156101000203166002900490600052602060002090601f016020900481019282601f10612be45780548555612c21565b82800160010185558215612c2157600052602060002091601f016020900482015b82811115612c20578254825591600101919060010190612c05565b5b509050612c2e9190612c32565b5090565b612c5491905b80821115612c50576000816000905550600101612c38565b5090565b9056fe5573657220616c726561647920696e2073797374656d206f7220726571756573742073656e74a265627a7a7231582097725660fca46b2691510496789e3b5025328ef7011ad7f924c2032221e6ed6064736f6c63430005100032",
  "source": "pragma solidity  >=0.4.22;\n\ncontract Participants {\n    \n    mapping (address => User) usersList;\n    mapping (address => User) requestsList;\n    mapping (string => bool) institutionsCheckList;\n    \n    uint public usersCount = 0;\n    uint public requestsCount = 0;\n    uint private requestsArrayCount = 0;\n    uint private usersArrayCount = 0;\n    uint public institutionCount = 0;\n    \n    struct User {\n        uint id;\n        string name;\n        uint userType; // 1 - AB, 2 - institution, 3 - edu-user\n        string institution;\n        address addr;\n        bool exists;\n    }\n    \n    address[] usersAddrList;\n    address[] requestsAddrList;\n    string[] institutionsList;\n    \n    event userRequestEvent\n    (\n        uint id,\n        string name,\n        uint userType,\n        string institution\n    );\n    \n    constructor() public\n    {\n        usersAddrList.push(msg.sender);\n        usersList[msg.sender] = User(1000, \"main_admin\", 1, \"None\", msg.sender, true);\n        ++usersCount;\n        institutionsList.push(\"None\");\n        ++institutionCount;\n        institutionsCheckList[\"None\"]=true;\n    }\n    \n    //storeDetails\n    function createUserRequest(string memory _name, uint _userType, string memory _institution) public\n    {\n        require(requestsList[msg.sender].exists==false && usersList[msg.sender].exists==false, \"User already in system or request sent\");\n        uint _id = ++requestsArrayCount;\n        ++requestsCount;\n        requestsList[msg.sender] = User(_id, _name, _userType, _institution, msg.sender, true);\n        requestsAddrList.push(msg.sender);\n        emit userRequestEvent(_id, _name, _userType, _institution);\n    }\n    \n    function getPendingRequest() view public returns(address[] memory)\n    {\n        return requestsAddrList;\n    }\n    \n    function getUsers() view public returns(address[] memory)\n    {\n        return usersAddrList;\n    }\n    \n    function checkIfUserExists(address addr) view public returns(bool)\n    {\n        if(usersList[addr].exists)\n            return true;\n        return false;\n    }\n    \n    function getParticularUsersType(address addr) view public returns(uint)\n    {\n        require(usersList[addr].exists, \"Person does not exist.\");\n        return (usersList[addr].userType);\n    }\n    \n    function getParticularUsersInstitution(address addr) view public returns(string memory)\n    {\n        require(usersList[addr].exists, \"Person does not exist.\");\n        return (usersList[addr].institution);\n    }\n    \n    function getParticularUser(address addr) view public returns(uint, string memory, uint, string memory, address)\n    {\n        require(usersList[addr].exists, \"Person does not exist.\");\n        return (usersList[addr].id, usersList[addr].name, usersList[addr].userType, usersList[addr].institution, usersList[addr].addr);\n    }\n    \n    function getParticularRequest(address addr) view public returns(uint, string memory, uint, string memory, address)\n    {\n        require(requestsList[addr].exists, \"Person does not exist.\");\n        return (requestsList[addr].id, requestsList[addr].name, requestsList[addr].userType, requestsList[addr].institution, requestsList[addr].addr);\n    }\n    \n    function approveRequest(address addr) public{\n        require(requestsList[addr].exists, \"Person does not exist.\");\n        //require(usersList[msg.sender].userType==1 ,\"Access denied\");\n        require((usersList[msg.sender].userType==1) || (usersList[msg.sender].userType==2 && (keccak256(abi.encodePacked(requestsList[addr].institution)) == keccak256(abi.encodePacked(usersList[msg.sender].institution)) )), \"Access denied\");\n        \n        // Generate unique id and assign to user\n        uint _uniqueId = 1000 + ++usersArrayCount;\n        ++usersCount;\n        User memory user = requestsList[addr];\n        user.id=_uniqueId;\n        // Add user to existing users array\n        usersList[addr] = user;\n        usersAddrList.push(addr);\n        // Remove user from user request array\n        delete requestsAddrList[requestsList[addr].id - 1];\n        delete requestsList[addr];\n        --requestsCount;\n        if(usersList[addr].userType == 2 && institutionsCheckList[usersList[addr].institution] == false){\n            institutionsCheckList[usersList[addr].institution] = true;\n            institutionsList.push(usersList[addr].institution);\n            ++institutionCount;\n        }\n    }\n    \n    function declineRequest(address addr) public {\n        require(requestsList[addr].exists, \"Person does not exist.\");\n        require((usersList[msg.sender].userType==1) || (usersList[msg.sender].userType==2 && (keccak256(abi.encodePacked(requestsList[addr].institution)) == keccak256(abi.encodePacked(usersList[msg.sender].institution)) )), \"Access denied\");\n        delete requestsAddrList[requestsList[addr].id - 1];\n        delete requestsList[addr];\n        --requestsCount;\n    }\n    \n    function getInstitution(uint i) view public returns(string memory) {\n        require(institutionsCheckList[institutionsList[i]] == true, \"Institution does not exist\");\n        return institutionsList[i];\n    }\n    \n    function getInstitutionsCount() view public returns(uint){\n        return institutionCount;\n    }\n    \n    function checkIfInstitutionExists(string memory _institution) view public returns(bool){\n        return institutionsCheckList[_institution];\n    }\n    \n}\n\n\n\n",
  "sourcePath": "C:\\Users\\smuth\\Desktop\\certificate_verification_dapp\\contracts\\Participants.sol",
  "compiler": {
    "name": "solc",
    "version": "0.5.16+commit.9c3226ce.Emscripten.clang"
  },
  "schemaVersion": "3.3.2",
  "updatedAt": "2021-01-17T15:54:46.226Z",
  "networkType": "ethereum",
  "devdoc": {
    "methods": {}
  },
  "userdoc": {
    "methods": {}
  }
}