{
  "contractName": "Participants",
  "abi": [
    {
      "inputs": [],
      "payable": false,
      "stateMutability": "nonpayable",
      "type": "constructor"
    },
    {
      "anonymous": false,
      "inputs": [
        {
          "indexed": false,
          "internalType": "uint256",
          "name": "id",
          "type": "uint256"
        },
        {
          "indexed": false,
          "internalType": "string",
          "name": "name",
          "type": "string"
        },
        {
          "indexed": false,
          "internalType": "uint256",
          "name": "userType",
          "type": "uint256"
        },
        {
          "indexed": false,
          "internalType": "string",
          "name": "institution",
          "type": "string"
        },
        {
          "indexed": false,
          "internalType": "address",
          "name": "addr",
          "type": "address"
        }
      ],
      "name": "userEvent",
      "type": "event"
    },
    {
      "constant": true,
      "inputs": [],
      "name": "institutionCount",
      "outputs": [
        {
          "internalType": "uint256",
          "name": "",
          "type": "uint256"
        }
      ],
      "payable": false,
      "stateMutability": "view",
      "type": "function"
    },
    {
      "constant": true,
      "inputs": [],
      "name": "requestsCount",
      "outputs": [
        {
          "internalType": "uint256",
          "name": "",
          "type": "uint256"
        }
      ],
      "payable": false,
      "stateMutability": "view",
      "type": "function"
    },
    {
      "constant": true,
      "inputs": [],
      "name": "usersCount",
      "outputs": [
        {
          "internalType": "uint256",
          "name": "",
          "type": "uint256"
        }
      ],
      "payable": false,
      "stateMutability": "view",
      "type": "function"
    },
    {
      "constant": false,
      "inputs": [
        {
          "internalType": "string",
          "name": "_name",
          "type": "string"
        },
        {
          "internalType": "uint256",
          "name": "_userType",
          "type": "uint256"
        },
        {
          "internalType": "string",
          "name": "_institution",
          "type": "string"
        }
      ],
      "name": "createUserRequest",
      "outputs": [],
      "payable": false,
      "stateMutability": "nonpayable",
      "type": "function"
    },
    {
      "constant": true,
      "inputs": [],
      "name": "getPendingRequest",
      "outputs": [
        {
          "internalType": "address[]",
          "name": "",
          "type": "address[]"
        }
      ],
      "payable": false,
      "stateMutability": "view",
      "type": "function"
    },
    {
      "constant": true,
      "inputs": [],
      "name": "getUsers",
      "outputs": [
        {
          "internalType": "address[]",
          "name": "",
          "type": "address[]"
        }
      ],
      "payable": false,
      "stateMutability": "view",
      "type": "function"
    },
    {
      "constant": true,
      "inputs": [
        {
          "internalType": "address",
          "name": "addr",
          "type": "address"
        }
      ],
      "name": "checkIfUserExists",
      "outputs": [
        {
          "internalType": "bool",
          "name": "",
          "type": "bool"
        }
      ],
      "payable": false,
      "stateMutability": "view",
      "type": "function"
    },
    {
      "constant": true,
      "inputs": [
        {
          "internalType": "address",
          "name": "addr",
          "type": "address"
        }
      ],
      "name": "getParticularUsersType",
      "outputs": [
        {
          "internalType": "uint256",
          "name": "",
          "type": "uint256"
        }
      ],
      "payable": false,
      "stateMutability": "view",
      "type": "function"
    },
    {
      "constant": true,
      "inputs": [
        {
          "internalType": "address",
          "name": "addr",
          "type": "address"
        }
      ],
      "name": "getParticularUsersInstitution",
      "outputs": [
        {
          "internalType": "string",
          "name": "",
          "type": "string"
        }
      ],
      "payable": false,
      "stateMutability": "view",
      "type": "function"
    },
    {
      "constant": true,
      "inputs": [
        {
          "internalType": "address",
          "name": "addr",
          "type": "address"
        }
      ],
      "name": "getParticularUser",
      "outputs": [
        {
          "internalType": "uint256",
          "name": "",
          "type": "uint256"
        },
        {
          "internalType": "string",
          "name": "",
          "type": "string"
        },
        {
          "internalType": "uint256",
          "name": "",
          "type": "uint256"
        },
        {
          "internalType": "string",
          "name": "",
          "type": "string"
        },
        {
          "internalType": "address",
          "name": "",
          "type": "address"
        }
      ],
      "payable": false,
      "stateMutability": "view",
      "type": "function"
    },
    {
      "constant": true,
      "inputs": [
        {
          "internalType": "address",
          "name": "addr",
          "type": "address"
        }
      ],
      "name": "getParticularRequest",
      "outputs": [
        {
          "internalType": "uint256",
          "name": "",
          "type": "uint256"
        },
        {
          "internalType": "string",
          "name": "",
          "type": "string"
        },
        {
          "internalType": "uint256",
          "name": "",
          "type": "uint256"
        },
        {
          "internalType": "string",
          "name": "",
          "type": "string"
        },
        {
          "internalType": "address",
          "name": "",
          "type": "address"
        }
      ],
      "payable": false,
      "stateMutability": "view",
      "type": "function"
    },
    {
      "constant": false,
      "inputs": [
        {
          "internalType": "address",
          "name": "addr",
          "type": "address"
        }
      ],
      "name": "approveRequest",
      "outputs": [],
      "payable": false,
      "stateMutability": "nonpayable",
      "type": "function"
    },
    {
      "constant": false,
      "inputs": [
        {
          "internalType": "address",
          "name": "addr",
          "type": "address"
        }
      ],
      "name": "declineRequest",
      "outputs": [],
      "payable": false,
      "stateMutability": "nonpayable",
      "type": "function"
    },
    {
      "constant": true,
      "inputs": [
        {
          "internalType": "uint256",
          "name": "i",
          "type": "uint256"
        }
      ],
      "name": "getInstitution",
      "outputs": [
        {
          "internalType": "string",
          "name": "",
          "type": "string"
        }
      ],
      "payable": false,
      "stateMutability": "view",
      "type": "function"
    },
    {
      "constant": true,
      "inputs": [],
      "name": "getInstitutionsCount",
      "outputs": [
        {
          "internalType": "uint256",
          "name": "",
          "type": "uint256"
        }
      ],
      "payable": false,
      "stateMutability": "view",
      "type": "function"
    },
    {
      "constant": true,
      "inputs": [
        {
          "internalType": "string",
          "name": "_institution",
          "type": "string"
        }
      ],
      "name": "checkIfInstitutionExists",
      "outputs": [
        {
          "internalType": "bool",
          "name": "",
          "type": "bool"
        }
      ],
      "payable": false,
      "stateMutability": "view",
      "type": "function"
    }
  ],
  "bytecode": "0x6080604052600060035560006004556000600555600060065560006007553480156200002a57600080fd5b5060083390806001815401808255809150509060018203906000526020600020016000909192909190916101000a81548173ffffffffffffffffffffffffffffffffffffffff021916908373ffffffffffffffffffffffffffffffffffffffff160217905550506040518060c001604052806103e881526020016040518060400160405280600a81526020017f6d61696e5f61646d696e000000000000000000000000000000000000000000008152508152602001600181526020016040518060400160405280600481526020017f4e6f6e650000000000000000000000000000000000000000000000000000000081525081526020013373ffffffffffffffffffffffffffffffffffffffff168152602001600115158152506000803373ffffffffffffffffffffffffffffffffffffffff1673ffffffffffffffffffffffffffffffffffffffff168152602001908152602001600020600082015181600001556020820151816001019080519060200190620001aa9291906200032d565b50604082015181600201556060820151816003019080519060200190620001d39291906200032d565b5060808201518160040160006101000a81548173ffffffffffffffffffffffffffffffffffffffff021916908373ffffffffffffffffffffffffffffffffffffffff16021790555060a08201518160040160146101000a81548160ff02191690831515021790555090505060036000815460010191905081905550600a8060018154018082558091505090600182039060005260206000200160006040518060400160405280600481526020017f4e6f6e650000000000000000000000000000000000000000000000000000000081525090919091509080519060200190620002be929190620003b4565b5050600760008154600101919050819055506001600260405180807f4e6f6e65000000000000000000000000000000000000000000000000000000008152506004019050908152602001604051809103902060006101000a81548160ff02191690831515021790555062000463565b828054600181600116156101000203166002900490600052602060002090601f016020900481019282601f106200037057805160ff1916838001178555620003a1565b82800160010185558215620003a1579182015b82811115620003a057825182559160200191906001019062000383565b5b509050620003b091906200043b565b5090565b828054600181600116156101000203166002900490600052602060002090601f016020900481019282601f10620003f757805160ff191683800117855562000428565b8280016001018555821562000428579182015b82811115620004275782518255916020019190600101906200040a565b5b5090506200043791906200043b565b5090565b6200046091905b808211156200045c57600081600090555060010162000442565b5090565b90565b6130ad80620004736000396000f3fe608060405234801561001057600080fd5b50600436106100ff5760003560e01c80636df2820d11610097578063e476ff4511610066578063e476ff4514610811578063e8fc3ef8146108ce578063ef166d5a146108ec578063fbfa4b7f146109bf576100ff565b80636df2820d1461055357806390f4fe72146106af5780639371de2b1461070e578063c047b6541461076a576100ff565b8063256dced2116100d3578063256dced2146102095780633a97be57146102615780636ba13a82146103cb5780636c14298f146103e9576100ff565b8062ce8e3e14610104578063061dff9a146101635780631e27ac7d146101a75780631ea5a1f8146101c5575b600080fd5b61010c6109dd565b6040518080602001828103825283818151815260200191508051906020019060200280838360005b8381101561014f578082015181840152602081019050610134565b505050509050019250505060405180910390f35b6101a56004803603602081101561017957600080fd5b81019080803573ffffffffffffffffffffffffffffffffffffffff169060200190929190505050610a6b565b005b6101af61179f565b6040518082815260200191505060405180910390f35b610207600480360360208110156101db57600080fd5b81019080803573ffffffffffffffffffffffffffffffffffffffff1690602001909291905050506117a9565b005b61024b6004803603602081101561021f57600080fd5b81019080803573ffffffffffffffffffffffffffffffffffffffff169060200190929190505050611c2b565b6040518082815260200191505060405180910390f35b6102a36004803603602081101561027757600080fd5b81019080803573ffffffffffffffffffffffffffffffffffffffff169060200190929190505050611d37565b6040518086815260200180602001858152602001806020018473ffffffffffffffffffffffffffffffffffffffff1673ffffffffffffffffffffffffffffffffffffffff168152602001838103835287818151815260200191508051906020019080838360005b8381101561032557808201518184015260208101905061030a565b50505050905090810190601f1680156103525780820380516001836020036101000a031916815260200191505b50838103825285818151815260200191508051906020019080838360005b8381101561038b578082015181840152602081019050610370565b50505050905090810190601f1680156103b85780820380516001836020036101000a031916815260200191505b5097505050505050505060405180910390f35b6103d36120bb565b6040518082815260200191505060405180910390f35b61042b600480360360208110156103ff57600080fd5b81019080803573ffffffffffffffffffffffffffffffffffffffff1690602001909291905050506120c1565b6040518086815260200180602001858152602001806020018473ffffffffffffffffffffffffffffffffffffffff1673ffffffffffffffffffffffffffffffffffffffff168152602001838103835287818151815260200191508051906020019080838360005b838110156104ad578082015181840152602081019050610492565b50505050905090810190601f1680156104da5780820380516001836020036101000a031916815260200191505b50838103825285818151815260200191508051906020019080838360005b838110156105135780820151818401526020810190506104f8565b50505050905090810190601f1680156105405780820380516001836020036101000a031916815260200191505b5097505050505050505060405180910390f35b6106ad6004803603606081101561056957600080fd5b810190808035906020019064010000000081111561058657600080fd5b82018360208201111561059857600080fd5b803590602001918460018302840111640100000000831117156105ba57600080fd5b91908080601f016020809104026020016040519081016040528093929190818152602001838380828437600081840152601f19601f820116905080830192505050505050509192919290803590602001909291908035906020019064010000000081111561062757600080fd5b82018360208201111561063957600080fd5b8035906020019184600183028401116401000000008311171561065b57600080fd5b91908080601f016020809104026020016040519081016040528093929190818152602001838380828437600081840152601f19601f82011690508083019250505050505050919291929050505061243f565b005b6106b76129a2565b6040518080602001828103825283818151815260200191508051906020019060200280838360005b838110156106fa5780820151818401526020810190506106df565b505050509050019250505060405180910390f35b6107506004803603602081101561072457600080fd5b81019080803573ffffffffffffffffffffffffffffffffffffffff169060200190929190505050612a30565b604051808215151515815260200191505060405180910390f35b6107966004803603602081101561078057600080fd5b8101908080359060200190929190505050612a99565b6040518080602001828103825283818151815260200191508051906020019080838360005b838110156107d65780820151818401526020810190506107bb565b50505050905090810190601f1680156108035780820380516001836020036101000a031916815260200191505b509250505060405180910390f35b6108536004803603602081101561082757600080fd5b81019080803573ffffffffffffffffffffffffffffffffffffffff169060200190929190505050612c60565b6040518080602001828103825283818151815260200191508051906020019080838360005b83811015610893578082015181840152602081019050610878565b50505050905090810190601f1680156108c05780820380516001836020036101000a031916815260200191505b509250505060405180910390f35b6108d6612e04565b6040518082815260200191505060405180910390f35b6109a56004803603602081101561090257600080fd5b810190808035906020019064010000000081111561091f57600080fd5b82018360208201111561093157600080fd5b8035906020019184600183028401116401000000008311171561095357600080fd5b91908080601f016020809104026020016040519081016040528093929190818152602001838380828437600081840152601f19601f820116905080830192505050505050509192919290505050612e0a565b604051808215151515815260200191505060405180910390f35b6109c7612e8a565b6040518082815260200191505060405180910390f35b60606008805480602002602001604051908101604052809291908181526020018280548015610a6157602002820191906000526020600020905b8160009054906101000a900473ffffffffffffffffffffffffffffffffffffffff1673ffffffffffffffffffffffffffffffffffffffff1681526020019060010190808311610a17575b5050505050905090565b600160008273ffffffffffffffffffffffffffffffffffffffff1673ffffffffffffffffffffffffffffffffffffffff16815260200190815260200160002060040160149054906101000a900460ff16610b2d576040517f08c379a00000000000000000000000000000000000000000000000000000000081526004018080602001828103825260168152602001807f506572736f6e20646f6573206e6f742065786973742e0000000000000000000081525060200191505060405180910390fd5b60016000803373ffffffffffffffffffffffffffffffffffffffff1673ffffffffffffffffffffffffffffffffffffffff168152602001908152602001600020600201541480610d3c575060026000803373ffffffffffffffffffffffffffffffffffffffff1673ffffffffffffffffffffffffffffffffffffffff16815260200190815260200160002060020154148015610d3b57506000803373ffffffffffffffffffffffffffffffffffffffff1673ffffffffffffffffffffffffffffffffffffffff1681526020019081526020016000206003016040516020018082805460018160011615610100020316600290048015610c635780601f10610c41576101008083540402835291820191610c63565b820191906000526020600020905b815481529060010190602001808311610c4f575b505091505060405160208183030381529060405280519060200120600160008373ffffffffffffffffffffffffffffffffffffffff1673ffffffffffffffffffffffffffffffffffffffff1681526020019081526020016000206003016040516020018082805460018160011615610100020316600290048015610d1e5780601f10610cfc576101008083540402835291820191610d1e565b820191906000526020600020905b815481529060010190602001808311610d0a575b505091505060405160208183030381529060405280519060200120145b5b610dae576040517f08c379a000000000000000000000000000000000000000000000000000000000815260040180806020018281038252600d8152602001807f4163636573732064656e6965640000000000000000000000000000000000000081525060200191505060405180910390fd5b60006006600081546001019190508190556103e801905060036000815460010191905081905550610ddd612e90565b600160008473ffffffffffffffffffffffffffffffffffffffff1673ffffffffffffffffffffffffffffffffffffffff1681526020019081526020016000206040518060c001604052908160008201548152602001600182018054600181600116156101000203166002900480601f016020809104026020016040519081016040528092919081815260200182805460018160011615610100020316600290048015610eca5780601f10610e9f57610100808354040283529160200191610eca565b820191906000526020600020905b815481529060010190602001808311610ead57829003601f168201915b5050505050815260200160028201548152602001600382018054600181600116156101000203166002900480601f016020809104026020016040519081016040528092919081815260200182805460018160011615610100020316600290048015610f765780601f10610f4b57610100808354040283529160200191610f76565b820191906000526020600020905b815481529060010190602001808311610f5957829003601f168201915b505050505081526020016004820160009054906101000a900473ffffffffffffffffffffffffffffffffffffffff1673ffffffffffffffffffffffffffffffffffffffff1673ffffffffffffffffffffffffffffffffffffffff1681526020016004820160149054906101000a900460ff161515151581525050905081816000018181525050806000808573ffffffffffffffffffffffffffffffffffffffff1673ffffffffffffffffffffffffffffffffffffffff168152602001908152602001600020600082015181600001556020820151816001019080519060200190611061929190612ede565b50604082015181600201556060820151816003019080519060200190611088929190612ede565b5060808201518160040160006101000a81548173ffffffffffffffffffffffffffffffffffffffff021916908373ffffffffffffffffffffffffffffffffffffffff16021790555060a08201518160040160146101000a81548160ff02191690831515021790555090505060088390806001815401808255809150509060018203906000526020600020016000909192909190916101000a81548173ffffffffffffffffffffffffffffffffffffffff021916908373ffffffffffffffffffffffffffffffffffffffff16021790555050600960018060008673ffffffffffffffffffffffffffffffffffffffff1673ffffffffffffffffffffffffffffffffffffffff1681526020019081526020016000206000015403815481106111aa57fe5b9060005260206000200160006101000a81549073ffffffffffffffffffffffffffffffffffffffff0219169055600160008473ffffffffffffffffffffffffffffffffffffffff1673ffffffffffffffffffffffffffffffffffffffff16815260200190815260200160002060008082016000905560018201600061122f9190612f5e565b60028201600090556003820160006112479190612f5e565b6004820160006101000a81549073ffffffffffffffffffffffffffffffffffffffff02191690556004820160146101000a81549060ff02191690555050600460008154600190039190508190555060026000808573ffffffffffffffffffffffffffffffffffffffff1673ffffffffffffffffffffffffffffffffffffffff16815260200190815260200160002060020154141561179a576000151560026000808673ffffffffffffffffffffffffffffffffffffffff1673ffffffffffffffffffffffffffffffffffffffff16815260200190815260200160002060030160405180828054600181600116156101000203166002900480156113815780601f1061135f576101008083540402835291820191611381565b820191906000526020600020905b81548152906001019060200180831161136d575b5050915050908152602001604051809103902060009054906101000a900460ff161515141561151057600160026000808673ffffffffffffffffffffffffffffffffffffffff1673ffffffffffffffffffffffffffffffffffffffff168152602001908152602001600020600301604051808280546001816001161561010002031660029004801561144a5780601f1061142857610100808354040283529182019161144a565b820191906000526020600020905b815481529060010190602001808311611436575b5050915050908152602001604051809103902060006101000a81548160ff021916908315150217905550600a6000808573ffffffffffffffffffffffffffffffffffffffff1673ffffffffffffffffffffffffffffffffffffffff16815260200190815260200160002060030190806001815401808255809150509060018203906000526020600020016000909192909190915090805460018160011615610100020316600290046114fd929190612fa6565b5050600760008154600101919050819055505b7f798938a50f8d2aa43b7d4f34c4d138ed9addaa374c21de0f645be92b50e177ac6000808573ffffffffffffffffffffffffffffffffffffffff1673ffffffffffffffffffffffffffffffffffffffff168152602001908152602001600020600001546000808673ffffffffffffffffffffffffffffffffffffffff1673ffffffffffffffffffffffffffffffffffffffff1681526020019081526020016000206001016000808773ffffffffffffffffffffffffffffffffffffffff1673ffffffffffffffffffffffffffffffffffffffff168152602001908152602001600020600201546000808873ffffffffffffffffffffffffffffffffffffffff1673ffffffffffffffffffffffffffffffffffffffff168152602001908152602001600020600301876040518086815260200180602001858152602001806020018473ffffffffffffffffffffffffffffffffffffffff1673ffffffffffffffffffffffffffffffffffffffff1681526020018381038352878181546001816001161561010002031660029004815260200191508054600181600116156101000203166002900480156117035780601f106116d857610100808354040283529160200191611703565b820191906000526020600020905b8154815290600101906020018083116116e657829003601f168201915b50508381038252858181546001816001161561010002031660029004815260200191508054600181600116156101000203166002900480156117865780601f1061175b57610100808354040283529160200191611786565b820191906000526020600020905b81548152906001019060200180831161176957829003601f168201915b505097505050505050505060405180910390a15b505050565b6000600754905090565b600160008273ffffffffffffffffffffffffffffffffffffffff1673ffffffffffffffffffffffffffffffffffffffff16815260200190815260200160002060040160149054906101000a900460ff1661186b576040517f08c379a00000000000000000000000000000000000000000000000000000000081526004018080602001828103825260168152602001807f506572736f6e20646f6573206e6f742065786973742e0000000000000000000081525060200191505060405180910390fd5b60016000803373ffffffffffffffffffffffffffffffffffffffff1673ffffffffffffffffffffffffffffffffffffffff168152602001908152602001600020600201541480611a7a575060026000803373ffffffffffffffffffffffffffffffffffffffff1673ffffffffffffffffffffffffffffffffffffffff16815260200190815260200160002060020154148015611a7957506000803373ffffffffffffffffffffffffffffffffffffffff1673ffffffffffffffffffffffffffffffffffffffff16815260200190815260200160002060030160405160200180828054600181600116156101000203166002900480156119a15780601f1061197f5761010080835404028352918201916119a1565b820191906000526020600020905b81548152906001019060200180831161198d575b505091505060405160208183030381529060405280519060200120600160008373ffffffffffffffffffffffffffffffffffffffff1673ffffffffffffffffffffffffffffffffffffffff1681526020019081526020016000206003016040516020018082805460018160011615610100020316600290048015611a5c5780601f10611a3a576101008083540402835291820191611a5c565b820191906000526020600020905b815481529060010190602001808311611a48575b505091505060405160208183030381529060405280519060200120145b5b611aec576040517f08c379a000000000000000000000000000000000000000000000000000000000815260040180806020018281038252600d8152602001807f4163636573732064656e6965640000000000000000000000000000000000000081525060200191505060405180910390fd5b600960018060008473ffffffffffffffffffffffffffffffffffffffff1673ffffffffffffffffffffffffffffffffffffffff168152602001908152602001600020600001540381548110611b3d57fe5b9060005260206000200160006101000a81549073ffffffffffffffffffffffffffffffffffffffff0219169055600160008273ffffffffffffffffffffffffffffffffffffffff1673ffffffffffffffffffffffffffffffffffffffff168152602001908152602001600020600080820160009055600182016000611bc29190612f5e565b6002820160009055600382016000611bda9190612f5e565b6004820160006101000a81549073ffffffffffffffffffffffffffffffffffffffff02191690556004820160146101000a81549060ff02191690555050600460008154600190039190508190555050565b60008060008373ffffffffffffffffffffffffffffffffffffffff1673ffffffffffffffffffffffffffffffffffffffff16815260200190815260200160002060040160149054906101000a900460ff16611cee576040517f08c379a00000000000000000000000000000000000000000000000000000000081526004018080602001828103825260168152602001807f506572736f6e20646f6573206e6f742065786973742e0000000000000000000081525060200191505060405180910390fd5b6000808373ffffffffffffffffffffffffffffffffffffffff1673ffffffffffffffffffffffffffffffffffffffff168152602001908152602001600020600201549050919050565b60006060600060606000600160008773ffffffffffffffffffffffffffffffffffffffff1673ffffffffffffffffffffffffffffffffffffffff16815260200190815260200160002060040160149054906101000a900460ff16611e03576040517f08c379a00000000000000000000000000000000000000000000000000000000081526004018080602001828103825260168152602001807f506572736f6e20646f6573206e6f742065786973742e0000000000000000000081525060200191505060405180910390fd5b600160008773ffffffffffffffffffffffffffffffffffffffff1673ffffffffffffffffffffffffffffffffffffffff16815260200190815260200160002060000154600160008873ffffffffffffffffffffffffffffffffffffffff1673ffffffffffffffffffffffffffffffffffffffff168152602001908152602001600020600101600160008973ffffffffffffffffffffffffffffffffffffffff1673ffffffffffffffffffffffffffffffffffffffff16815260200190815260200160002060020154600160008a73ffffffffffffffffffffffffffffffffffffffff1673ffffffffffffffffffffffffffffffffffffffff168152602001908152602001600020600301600160008b73ffffffffffffffffffffffffffffffffffffffff1673ffffffffffffffffffffffffffffffffffffffff16815260200190815260200160002060040160009054906101000a900473ffffffffffffffffffffffffffffffffffffffff16838054600181600116156101000203166002900480601f0160208091040260200160405190810160405280929190818152602001828054600181600116156101000203166002900480156120055780601f10611fda57610100808354040283529160200191612005565b820191906000526020600020905b815481529060010190602001808311611fe857829003601f168201915b50505050509350818054600181600116156101000203166002900480601f0160208091040260200160405190810160405280929190818152602001828054600181600116156101000203166002900480156120a15780601f10612076576101008083540402835291602001916120a1565b820191906000526020600020905b81548152906001019060200180831161208457829003601f168201915b505050505091509450945094509450945091939590929450565b60035481565b600060606000606060008060008773ffffffffffffffffffffffffffffffffffffffff1673ffffffffffffffffffffffffffffffffffffffff16815260200190815260200160002060040160149054906101000a900460ff1661218c576040517f08c379a00000000000000000000000000000000000000000000000000000000081526004018080602001828103825260168152602001807f506572736f6e20646f6573206e6f742065786973742e0000000000000000000081525060200191505060405180910390fd5b6000808773ffffffffffffffffffffffffffffffffffffffff1673ffffffffffffffffffffffffffffffffffffffff168152602001908152602001600020600001546000808873ffffffffffffffffffffffffffffffffffffffff1673ffffffffffffffffffffffffffffffffffffffff1681526020019081526020016000206001016000808973ffffffffffffffffffffffffffffffffffffffff1673ffffffffffffffffffffffffffffffffffffffff168152602001908152602001600020600201546000808a73ffffffffffffffffffffffffffffffffffffffff1673ffffffffffffffffffffffffffffffffffffffff1681526020019081526020016000206003016000808b73ffffffffffffffffffffffffffffffffffffffff1673ffffffffffffffffffffffffffffffffffffffff16815260200190815260200160002060040160009054906101000a900473ffffffffffffffffffffffffffffffffffffffff16838054600181600116156101000203166002900480601f0160208091040260200160405190810160405280929190818152602001828054600181600116156101000203166002900480156123895780601f1061235e57610100808354040283529160200191612389565b820191906000526020600020905b81548152906001019060200180831161236c57829003601f168201915b50505050509350818054600181600116156101000203166002900480601f0160208091040260200160405190810160405280929190818152602001828054600181600116156101000203166002900480156124255780601f106123fa57610100808354040283529160200191612425565b820191906000526020600020905b81548152906001019060200180831161240857829003601f168201915b505050505091509450945094509450945091939590929450565b60001515600160003373ffffffffffffffffffffffffffffffffffffffff1673ffffffffffffffffffffffffffffffffffffffff16815260200190815260200160002060040160149054906101000a900460ff1615151480156124f45750600015156000803373ffffffffffffffffffffffffffffffffffffffff1673ffffffffffffffffffffffffffffffffffffffff16815260200190815260200160002060040160149054906101000a900460ff161515145b612549576040517f08c379a00000000000000000000000000000000000000000000000000000000081526004018080602001828103825260268152602001806130536026913960400191505060405180910390fd5b60006005600081546001019190508190559050600460008154600101919050819055506040518060c001604052808281526020018581526020018481526020018381526020013373ffffffffffffffffffffffffffffffffffffffff16815260200160011515815250600160003373ffffffffffffffffffffffffffffffffffffffff1673ffffffffffffffffffffffffffffffffffffffff168152602001908152602001600020600082015181600001556020820151816001019080519060200190612617929190612ede565b5060408201518160020155606082015181600301908051906020019061263e929190612ede565b5060808201518160040160006101000a81548173ffffffffffffffffffffffffffffffffffffffff021916908373ffffffffffffffffffffffffffffffffffffffff16021790555060a08201518160040160146101000a81548160ff02191690831515021790555090505060093390806001815401808255809150509060018203906000526020600020016000909192909190916101000a81548173ffffffffffffffffffffffffffffffffffffffff021916908373ffffffffffffffffffffffffffffffffffffffff160217905550507f798938a50f8d2aa43b7d4f34c4d138ed9addaa374c21de0f645be92b50e177ac600160003373ffffffffffffffffffffffffffffffffffffffff1673ffffffffffffffffffffffffffffffffffffffff16815260200190815260200160002060000154600160003373ffffffffffffffffffffffffffffffffffffffff1673ffffffffffffffffffffffffffffffffffffffff168152602001908152602001600020600101600160003373ffffffffffffffffffffffffffffffffffffffff1673ffffffffffffffffffffffffffffffffffffffff16815260200190815260200160002060020154600160003373ffffffffffffffffffffffffffffffffffffffff1673ffffffffffffffffffffffffffffffffffffffff168152602001908152602001600020600301336040518086815260200180602001858152602001806020018473ffffffffffffffffffffffffffffffffffffffff1673ffffffffffffffffffffffffffffffffffffffff1681526020018381038352878181546001816001161561010002031660029004815260200191508054600181600116156101000203166002900480156129065780601f106128db57610100808354040283529160200191612906565b820191906000526020600020905b8154815290600101906020018083116128e957829003601f168201915b50508381038252858181546001816001161561010002031660029004815260200191508054600181600116156101000203166002900480156129895780601f1061295e57610100808354040283529160200191612989565b820191906000526020600020905b81548152906001019060200180831161296c57829003601f168201915b505097505050505050505060405180910390a150505050565b60606009805480602002602001604051908101604052809291908181526020018280548015612a2657602002820191906000526020600020905b8160009054906101000a900473ffffffffffffffffffffffffffffffffffffffff1673ffffffffffffffffffffffffffffffffffffffff16815260200190600101908083116129dc575b5050505050905090565b60008060008373ffffffffffffffffffffffffffffffffffffffff1673ffffffffffffffffffffffffffffffffffffffff16815260200190815260200160002060040160149054906101000a900460ff1615612a8f5760019050612a94565b600090505b919050565b6060600115156002600a8481548110612aae57fe5b906000526020600020016040518082805460018160011615610100020316600290048015612b135780601f10612af1576101008083540402835291820191612b13565b820191906000526020600020905b815481529060010190602001808311612aff575b5050915050908152602001604051809103902060009054906101000a900460ff16151514612ba9576040517f08c379a000000000000000000000000000000000000000000000000000000000815260040180806020018281038252601a8152602001807f496e737469747574696f6e20646f6573206e6f7420657869737400000000000081525060200191505060405180910390fd5b600a8281548110612bb657fe5b906000526020600020018054600181600116156101000203166002900480601f016020809104026020016040519081016040528092919081815260200182805460018160011615610100020316600290048015612c545780601f10612c2957610100808354040283529160200191612c54565b820191906000526020600020905b815481529060010190602001808311612c3757829003601f168201915b50505050509050919050565b60606000808373ffffffffffffffffffffffffffffffffffffffff1673ffffffffffffffffffffffffffffffffffffffff16815260200190815260200160002060040160149054906101000a900460ff16612d23576040517f08c379a00000000000000000000000000000000000000000000000000000000081526004018080602001828103825260168152602001807f506572736f6e20646f6573206e6f742065786973742e0000000000000000000081525060200191505060405180910390fd5b6000808373ffffffffffffffffffffffffffffffffffffffff1673ffffffffffffffffffffffffffffffffffffffff1681526020019081526020016000206003018054600181600116156101000203166002900480601f016020809104026020016040519081016040528092919081815260200182805460018160011615610100020316600290048015612df85780601f10612dcd57610100808354040283529160200191612df8565b820191906000526020600020905b815481529060010190602001808311612ddb57829003601f168201915b50505050509050919050565b60075481565b60006002826040518082805190602001908083835b60208310612e425780518252602082019150602081019050602083039250612e1f565b6001836020036101000a038019825116818451168082178552505050505050905001915050908152602001604051809103902060009054906101000a900460ff169050919050565b60045481565b6040518060c0016040528060008152602001606081526020016000815260200160608152602001600073ffffffffffffffffffffffffffffffffffffffff1681526020016000151581525090565b828054600181600116156101000203166002900490600052602060002090601f016020900481019282601f10612f1f57805160ff1916838001178555612f4d565b82800160010185558215612f4d579182015b82811115612f4c578251825591602001919060010190612f31565b5b509050612f5a919061302d565b5090565b50805460018160011615610100020316600290046000825580601f10612f845750612fa3565b601f016020900490600052602060002090810190612fa2919061302d565b5b50565b828054600181600116156101000203166002900490600052602060002090601f016020900481019282601f10612fdf578054855561301c565b8280016001018555821561301c57600052602060002091601f016020900482015b8281111561301b578254825591600101919060010190613000565b5b509050613029919061302d565b5090565b61304f91905b8082111561304b576000816000905550600101613033565b5090565b9056fe5573657220616c726561647920696e2073797374656d206f7220726571756573742073656e74a265627a7a72315820b9c8780c740bcbec303f40702a36831c30f3f6606370bf62027f53d473dae39164736f6c63430005100032",
  "source": "pragma solidity  >=0.4.22;\r\n\r\ncontract Participants {\r\n    \r\n    mapping (address => User) usersList;\r\n    mapping (address => User) requestsList;\r\n    mapping (string => bool) institutionsCheckList;\r\n    \r\n    uint public usersCount = 0;\r\n    uint public requestsCount = 0;\r\n    uint private requestsArrayCount = 0;\r\n    uint private usersArrayCount = 0;\r\n    uint public institutionCount = 0;\r\n    \r\n    struct User {\r\n        uint id;\r\n        string name;\r\n        uint userType; // 1 - AB, 2 - institution, 3 - edu-user\r\n        string institution;\r\n        address addr;\r\n        bool exists;\r\n    }\r\n    \r\n    address[] usersAddrList;\r\n    address[] requestsAddrList;\r\n    string[] institutionsList;\r\n    \r\n    event userEvent\r\n    (\r\n        uint id,\r\n        string name,\r\n        uint userType,\r\n        string institution,\r\n        address addr\r\n    );\r\n    \r\n    constructor() public\r\n    {\r\n        usersAddrList.push(msg.sender);\r\n        usersList[msg.sender] = User(1000, \"main_admin\", 1, \"None\", msg.sender, true);\r\n        ++usersCount;\r\n        institutionsList.push(\"None\");\r\n        ++institutionCount;\r\n        institutionsCheckList[\"None\"]=true;\r\n    }\r\n    \r\n    //storeDetails\r\n    function createUserRequest(string memory _name, uint _userType, string memory _institution) public\r\n    {\r\n        require(requestsList[msg.sender].exists==false && usersList[msg.sender].exists==false, \"User already in system or request sent\");\r\n        uint _id = ++requestsArrayCount;\r\n        ++requestsCount;\r\n        requestsList[msg.sender] = User(_id, _name, _userType, _institution, msg.sender, true);\r\n        requestsAddrList.push(msg.sender);\r\n        emit userEvent(requestsList[msg.sender].id, requestsList[msg.sender].name, requestsList[msg.sender].userType, requestsList[msg.sender].institution, msg.sender);\r\n    }\r\n    \r\n    function getPendingRequest() view public returns(address[] memory)\r\n    {\r\n        return requestsAddrList;\r\n    }\r\n    \r\n    function getUsers() view public returns(address[] memory)\r\n    {\r\n        return usersAddrList;\r\n    }\r\n    \r\n    function checkIfUserExists(address addr) view public returns(bool)\r\n    {\r\n        if(usersList[addr].exists)\r\n            return true;\r\n        return false;\r\n    }\r\n    \r\n    function getParticularUsersType(address addr) view public returns(uint)\r\n    {\r\n        require(usersList[addr].exists, \"Person does not exist.\");\r\n        return (usersList[addr].userType);\r\n    }\r\n    \r\n    function getParticularUsersInstitution(address addr) view public returns(string memory)\r\n    {\r\n        require(usersList[addr].exists, \"Person does not exist.\");\r\n        return (usersList[addr].institution);\r\n    }\r\n    \r\n    function getParticularUser(address addr) view public returns(uint, string memory, uint, string memory, address)\r\n    {\r\n        require(usersList[addr].exists, \"Person does not exist.\");\r\n        return (usersList[addr].id, usersList[addr].name, usersList[addr].userType, usersList[addr].institution, usersList[addr].addr);\r\n    }\r\n    \r\n    function getParticularRequest(address addr) view public returns(uint, string memory, uint, string memory, address)\r\n    {\r\n        require(requestsList[addr].exists, \"Person does not exist.\");\r\n        return (requestsList[addr].id, requestsList[addr].name, requestsList[addr].userType, requestsList[addr].institution, requestsList[addr].addr);\r\n    }\r\n    \r\n    function approveRequest(address addr) public{\r\n        require(requestsList[addr].exists, \"Person does not exist.\");\r\n        //require(usersList[msg.sender].userType==1 ,\"Access denied\");\r\n        require((usersList[msg.sender].userType==1) || (usersList[msg.sender].userType==2 && (keccak256(abi.encodePacked(requestsList[addr].institution)) == keccak256(abi.encodePacked(usersList[msg.sender].institution)) )), \"Access denied\");\r\n        \r\n        // Generate unique id and assign to user\r\n        uint _uniqueId = 1000 + ++usersArrayCount;\r\n        ++usersCount;\r\n        User memory user = requestsList[addr];\r\n        user.id=_uniqueId;\r\n        // Add user to existing users array\r\n        usersList[addr] = user;\r\n        usersAddrList.push(addr);\r\n        // Remove user from user request array\r\n        delete requestsAddrList[requestsList[addr].id - 1];\r\n        delete requestsList[addr];\r\n        --requestsCount;\r\n        if(usersList[addr].userType == 2){\r\n            if(institutionsCheckList[usersList[addr].institution] == false){\r\n                institutionsCheckList[usersList[addr].institution] = true;\r\n                institutionsList.push(usersList[addr].institution);\r\n                ++institutionCount;\r\n            }\r\n            emit userEvent(usersList[addr].id, usersList[addr].name, usersList[addr].userType, usersList[addr].institution, addr);\r\n        }\r\n        \r\n    }\r\n    \r\n    function declineRequest(address addr) public {\r\n        require(requestsList[addr].exists, \"Person does not exist.\");\r\n        require((usersList[msg.sender].userType==1) || (usersList[msg.sender].userType==2 && (keccak256(abi.encodePacked(requestsList[addr].institution)) == keccak256(abi.encodePacked(usersList[msg.sender].institution)) )), \"Access denied\");\r\n        delete requestsAddrList[requestsList[addr].id - 1];\r\n        delete requestsList[addr];\r\n        --requestsCount;\r\n    }\r\n    \r\n    function getInstitution(uint i) view public returns(string memory) {\r\n        require(institutionsCheckList[institutionsList[i]] == true, \"Institution does not exist\");\r\n        return institutionsList[i];\r\n    }\r\n    \r\n    function getInstitutionsCount() view public returns(uint){\r\n        return institutionCount;\r\n    }\r\n    \r\n    function checkIfInstitutionExists(string memory _institution) view public returns(bool){\r\n        return institutionsCheckList[_institution];\r\n    }\r\n    \r\n}\r\n\r\n\r\n\r\n",
  "sourcePath": "C:\\Users\\smuth\\Desktop\\DAPP-FYP\\contracts\\Participants.sol",
  "compiler": {
    "name": "solc",
    "version": "0.5.16+commit.9c3226ce.Emscripten.clang"
  },
  "schemaVersion": "3.3.2",
  "updatedAt": "2021-03-02T04:46:35.376Z",
  "networkType": "ethereum",
  "devdoc": {
    "methods": {}
  },
  "userdoc": {
    "methods": {}
  }
}