{
  "contractName": "Participants",
  "abi": [
    {
      "inputs": [],
      "payable": false,
      "stateMutability": "nonpayable",
      "type": "constructor"
    },
    {
      "anonymous": false,
      "inputs": [
        {
          "indexed": false,
          "internalType": "uint256",
          "name": "id",
          "type": "uint256"
        },
        {
          "indexed": false,
          "internalType": "string",
          "name": "name",
          "type": "string"
        },
        {
          "indexed": false,
          "internalType": "uint256",
          "name": "userType",
          "type": "uint256"
        },
        {
          "indexed": false,
          "internalType": "string",
          "name": "institution",
          "type": "string"
        }
      ],
      "name": "userRequestEvent",
      "type": "event"
    },
    {
      "constant": true,
      "inputs": [],
      "name": "institutionCount",
      "outputs": [
        {
          "internalType": "uint256",
          "name": "",
          "type": "uint256"
        }
      ],
      "payable": false,
      "stateMutability": "view",
      "type": "function"
    },
    {
      "constant": true,
      "inputs": [],
      "name": "requestsCount",
      "outputs": [
        {
          "internalType": "uint256",
          "name": "",
          "type": "uint256"
        }
      ],
      "payable": false,
      "stateMutability": "view",
      "type": "function"
    },
    {
      "constant": true,
      "inputs": [],
      "name": "usersCount",
      "outputs": [
        {
          "internalType": "uint256",
          "name": "",
          "type": "uint256"
        }
      ],
      "payable": false,
      "stateMutability": "view",
      "type": "function"
    },
    {
      "constant": false,
      "inputs": [
        {
          "internalType": "uint256",
          "name": "x",
          "type": "uint256"
        }
      ],
      "name": "set",
      "outputs": [],
      "payable": false,
      "stateMutability": "nonpayable",
      "type": "function"
    },
    {
      "constant": true,
      "inputs": [],
      "name": "get",
      "outputs": [
        {
          "internalType": "uint256",
          "name": "",
          "type": "uint256"
        }
      ],
      "payable": false,
      "stateMutability": "view",
      "type": "function"
    },
    {
      "constant": false,
      "inputs": [
        {
          "internalType": "string",
          "name": "_name",
          "type": "string"
        },
        {
          "internalType": "uint256",
          "name": "_userType",
          "type": "uint256"
        },
        {
          "internalType": "string",
          "name": "_institution",
          "type": "string"
        }
      ],
      "name": "createUserRequest",
      "outputs": [],
      "payable": false,
      "stateMutability": "nonpayable",
      "type": "function"
    },
    {
      "constant": true,
      "inputs": [],
      "name": "getPendingRequest",
      "outputs": [
        {
          "internalType": "address[]",
          "name": "",
          "type": "address[]"
        }
      ],
      "payable": false,
      "stateMutability": "view",
      "type": "function"
    },
    {
      "constant": true,
      "inputs": [],
      "name": "getUsers",
      "outputs": [
        {
          "internalType": "address[]",
          "name": "",
          "type": "address[]"
        }
      ],
      "payable": false,
      "stateMutability": "view",
      "type": "function"
    },
    {
      "constant": true,
      "inputs": [
        {
          "internalType": "address",
          "name": "addr",
          "type": "address"
        }
      ],
      "name": "getParticularUser",
      "outputs": [
        {
          "internalType": "uint256",
          "name": "",
          "type": "uint256"
        },
        {
          "internalType": "string",
          "name": "",
          "type": "string"
        },
        {
          "internalType": "uint256",
          "name": "",
          "type": "uint256"
        },
        {
          "internalType": "string",
          "name": "",
          "type": "string"
        },
        {
          "internalType": "address",
          "name": "",
          "type": "address"
        }
      ],
      "payable": false,
      "stateMutability": "view",
      "type": "function"
    },
    {
      "constant": true,
      "inputs": [
        {
          "internalType": "address",
          "name": "addr",
          "type": "address"
        }
      ],
      "name": "getParticularRequest",
      "outputs": [
        {
          "internalType": "uint256",
          "name": "",
          "type": "uint256"
        },
        {
          "internalType": "string",
          "name": "",
          "type": "string"
        },
        {
          "internalType": "uint256",
          "name": "",
          "type": "uint256"
        },
        {
          "internalType": "string",
          "name": "",
          "type": "string"
        },
        {
          "internalType": "address",
          "name": "",
          "type": "address"
        }
      ],
      "payable": false,
      "stateMutability": "view",
      "type": "function"
    },
    {
      "constant": false,
      "inputs": [
        {
          "internalType": "address",
          "name": "addr",
          "type": "address"
        }
      ],
      "name": "approveRequest",
      "outputs": [],
      "payable": false,
      "stateMutability": "nonpayable",
      "type": "function"
    },
    {
      "constant": false,
      "inputs": [
        {
          "internalType": "address",
          "name": "addr",
          "type": "address"
        }
      ],
      "name": "declineRequest",
      "outputs": [],
      "payable": false,
      "stateMutability": "nonpayable",
      "type": "function"
    },
    {
      "constant": true,
      "inputs": [
        {
          "internalType": "uint256",
          "name": "i",
          "type": "uint256"
        }
      ],
      "name": "getInstitution",
      "outputs": [
        {
          "internalType": "string",
          "name": "",
          "type": "string"
        }
      ],
      "payable": false,
      "stateMutability": "view",
      "type": "function"
    },
    {
      "constant": true,
      "inputs": [],
      "name": "getInstitutionsCount",
      "outputs": [
        {
          "internalType": "uint256",
          "name": "",
          "type": "uint256"
        }
      ],
      "payable": false,
      "stateMutability": "view",
      "type": "function"
    }
  ],
  "bytecode": "0x6080604052600060045560006005556000600655600060075560006008553480156200002a57600080fd5b5060093390806001815401808255809150509060018203906000526020600020016000909192909190916101000a81548173ffffffffffffffffffffffffffffffffffffffff021916908373ffffffffffffffffffffffffffffffffffffffff160217905550506040518060c001604052806103e881526020016040518060400160405280600a81526020017f6d61696e5f61646d696e000000000000000000000000000000000000000000008152508152602001600181526020016040518060400160405280600481526020017f4e6f6e650000000000000000000000000000000000000000000000000000000081525081526020013373ffffffffffffffffffffffffffffffffffffffff16815260200160011515815250600160003373ffffffffffffffffffffffffffffffffffffffff1673ffffffffffffffffffffffffffffffffffffffff168152602001908152602001600020600082015181600001556020820151816001019080519060200190620001ab9291906200032e565b50604082015181600201556060820151816003019080519060200190620001d49291906200032e565b5060808201518160040160006101000a81548173ffffffffffffffffffffffffffffffffffffffff021916908373ffffffffffffffffffffffffffffffffffffffff16021790555060a08201518160040160146101000a81548160ff02191690831515021790555090505060046000815460010191905081905550600b8060018154018082558091505090600182039060005260206000200160006040518060400160405280600481526020017f4e6f6e650000000000000000000000000000000000000000000000000000000081525090919091509080519060200190620002bf929190620003b5565b5050600860008154600101919050819055506001600360405180807f4e6f6e65000000000000000000000000000000000000000000000000000000008152506004019050908152602001604051809103902060006101000a81548160ff02191690831515021790555062000464565b828054600181600116156101000203166002900490600052602060002090601f016020900481019282601f106200037157805160ff1916838001178555620003a2565b82800160010185558215620003a2579182015b82811115620003a157825182559160200191906001019062000384565b5b509050620003b191906200043c565b5090565b828054600181600116156101000203166002900490600052602060002090601f016020900481019282601f10620003f857805160ff191683800117855562000429565b8280016001018555821562000429579182015b82811115620004285782518255916020019190600101906200040b565b5b5090506200043891906200043c565b5090565b6200046191905b808211156200045d57600081600090555060010162000443565b5090565b90565b61266080620004746000396000f3fe608060405234801561001057600080fd5b50600436106100e95760003560e01c80636c14298f1161008c57806390f4fe721161006657806390f4fe721461068d578063c047b654146106ec578063e8fc3ef814610793578063fbfa4b7f146107b1576100e9565b80636c14298f146103a95780636d4ce63c146105135780636df2820d14610531576100e9565b80631ea5a1f8116100c85780631ea5a1f8146101af5780633a97be57146101f357806360fe47b11461035d5780636ba13a821461038b576100e9565b8062ce8e3e146100ee578063061dff9a1461014d5780631e27ac7d14610191575b600080fd5b6100f66107cf565b6040518080602001828103825283818151815260200191508051906020019060200280838360005b8381101561013957808201518184015260208101905061011e565b505050509050019250505060405180910390f35b61018f6004803603602081101561016357600080fd5b81019080803573ffffffffffffffffffffffffffffffffffffffff16906020019092919050505061085d565b005b610199611312565b6040518082815260200191505060405180910390f35b6101f1600480360360208110156101c557600080fd5b81019080803573ffffffffffffffffffffffffffffffffffffffff16906020019092919050505061131c565b005b6102356004803603602081101561020957600080fd5b81019080803573ffffffffffffffffffffffffffffffffffffffff1690602001909291905050506117a1565b6040518086815260200180602001858152602001806020018473ffffffffffffffffffffffffffffffffffffffff1673ffffffffffffffffffffffffffffffffffffffff168152602001838103835287818151815260200191508051906020019080838360005b838110156102b757808201518184015260208101905061029c565b50505050905090810190601f1680156102e45780820380516001836020036101000a031916815260200191505b50838103825285818151815260200191508051906020019080838360005b8381101561031d578082015181840152602081019050610302565b50505050905090810190601f16801561034a5780820380516001836020036101000a031916815260200191505b5097505050505050505060405180910390f35b6103896004803603602081101561037357600080fd5b8101908080359060200190929190505050611abd565b005b610393611ac7565b6040518082815260200191505060405180910390f35b6103eb600480360360208110156103bf57600080fd5b81019080803573ffffffffffffffffffffffffffffffffffffffff169060200190929190505050611acd565b6040518086815260200180602001858152602001806020018473ffffffffffffffffffffffffffffffffffffffff1673ffffffffffffffffffffffffffffffffffffffff168152602001838103835287818151815260200191508051906020019080838360005b8381101561046d578082015181840152602081019050610452565b50505050905090810190601f16801561049a5780820380516001836020036101000a031916815260200191505b50838103825285818151815260200191508051906020019080838360005b838110156104d35780820151818401526020810190506104b8565b50505050905090810190601f1680156105005780820380516001836020036101000a031916815260200191505b5097505050505050505060405180910390f35b61051b611de9565b6040518082815260200191505060405180910390f35b61068b6004803603606081101561054757600080fd5b810190808035906020019064010000000081111561056457600080fd5b82018360208201111561057657600080fd5b8035906020019184600183028401116401000000008311171561059857600080fd5b91908080601f016020809104026020016040519081016040528093929190818152602001838380828437600081840152601f19601f820116905080830192505050505050509192919290803590602001909291908035906020019064010000000081111561060557600080fd5b82018360208201111561061757600080fd5b8035906020019184600183028401116401000000008311171561063957600080fd5b91908080601f016020809104026020016040519081016040528093929190818152602001838380828437600081840152601f19601f820116905080830192505050505050509192919290505050611df2565b005b6106956121e2565b6040518080602001828103825283818151815260200191508051906020019060200280838360005b838110156106d85780820151818401526020810190506106bd565b505050509050019250505060405180910390f35b6107186004803603602081101561070257600080fd5b8101908080359060200190929190505050612270565b6040518080602001828103825283818151815260200191508051906020019080838360005b8381101561075857808201518184015260208101905061073d565b50505050905090810190601f1680156107855780820380516001836020036101000a031916815260200191505b509250505060405180910390f35b61079b612437565b6040518082815260200191505060405180910390f35b6107b961243d565b6040518082815260200191505060405180910390f35b6060600980548060200260200160405190810160405280929190818152602001828054801561085357602002820191906000526020600020905b8160009054906101000a900473ffffffffffffffffffffffffffffffffffffffff1673ffffffffffffffffffffffffffffffffffffffff1681526020019060010190808311610809575b5050505050905090565b600260008273ffffffffffffffffffffffffffffffffffffffff1673ffffffffffffffffffffffffffffffffffffffff16815260200190815260200160002060040160149054906101000a900460ff1661091f576040517f08c379a00000000000000000000000000000000000000000000000000000000081526004018080602001828103825260168152602001807f506572736f6e20646f6573206e6f742065786973742e0000000000000000000081525060200191505060405180910390fd5b60018060003373ffffffffffffffffffffffffffffffffffffffff1673ffffffffffffffffffffffffffffffffffffffff168152602001908152602001600020600201541480610b3057506002600160003373ffffffffffffffffffffffffffffffffffffffff1673ffffffffffffffffffffffffffffffffffffffff16815260200190815260200160002060020154148015610b2f5750600160003373ffffffffffffffffffffffffffffffffffffffff1673ffffffffffffffffffffffffffffffffffffffff1681526020019081526020016000206003016040516020018082805460018160011615610100020316600290048015610a575780601f10610a35576101008083540402835291820191610a57565b820191906000526020600020905b815481529060010190602001808311610a43575b505091505060405160208183030381529060405280519060200120600260008373ffffffffffffffffffffffffffffffffffffffff1673ffffffffffffffffffffffffffffffffffffffff1681526020019081526020016000206003016040516020018082805460018160011615610100020316600290048015610b125780601f10610af0576101008083540402835291820191610b12565b820191906000526020600020905b815481529060010190602001808311610afe575b505091505060405160208183030381529060405280519060200120145b5b610ba2576040517f08c379a000000000000000000000000000000000000000000000000000000000815260040180806020018281038252600d8152602001807f4163636573732064656e6965640000000000000000000000000000000000000081525060200191505060405180910390fd5b60006007600081546001019190508190556103e801905060046000815460010191905081905550610bd1612443565b600260008473ffffffffffffffffffffffffffffffffffffffff1673ffffffffffffffffffffffffffffffffffffffff1681526020019081526020016000206040518060c001604052908160008201548152602001600182018054600181600116156101000203166002900480601f016020809104026020016040519081016040528092919081815260200182805460018160011615610100020316600290048015610cbe5780601f10610c9357610100808354040283529160200191610cbe565b820191906000526020600020905b815481529060010190602001808311610ca157829003601f168201915b5050505050815260200160028201548152602001600382018054600181600116156101000203166002900480601f016020809104026020016040519081016040528092919081815260200182805460018160011615610100020316600290048015610d6a5780601f10610d3f57610100808354040283529160200191610d6a565b820191906000526020600020905b815481529060010190602001808311610d4d57829003601f168201915b505050505081526020016004820160009054906101000a900473ffffffffffffffffffffffffffffffffffffffff1673ffffffffffffffffffffffffffffffffffffffff1673ffffffffffffffffffffffffffffffffffffffff1681526020016004820160149054906101000a900460ff16151515158152505090508181600001818152505080600160008573ffffffffffffffffffffffffffffffffffffffff1673ffffffffffffffffffffffffffffffffffffffff168152602001908152602001600020600082015181600001556020820151816001019080519060200190610e56929190612491565b50604082015181600201556060820151816003019080519060200190610e7d929190612491565b5060808201518160040160006101000a81548173ffffffffffffffffffffffffffffffffffffffff021916908373ffffffffffffffffffffffffffffffffffffffff16021790555060a08201518160040160146101000a81548160ff02191690831515021790555090505060098390806001815401808255809150509060018203906000526020600020016000909192909190916101000a81548173ffffffffffffffffffffffffffffffffffffffff021916908373ffffffffffffffffffffffffffffffffffffffff16021790555050600a6001600260008673ffffffffffffffffffffffffffffffffffffffff1673ffffffffffffffffffffffffffffffffffffffff168152602001908152602001600020600001540381548110610fa057fe5b9060005260206000200160006101000a81549073ffffffffffffffffffffffffffffffffffffffff0219169055600260008473ffffffffffffffffffffffffffffffffffffffff1673ffffffffffffffffffffffffffffffffffffffff1681526020019081526020016000206000808201600090556001820160006110259190612511565b600282016000905560038201600061103d9190612511565b6004820160006101000a81549073ffffffffffffffffffffffffffffffffffffffff02191690556004820160146101000a81549060ff0219169055505060056000815460019003919050819055506002600160008573ffffffffffffffffffffffffffffffffffffffff1673ffffffffffffffffffffffffffffffffffffffff168152602001908152602001600020600201541480156111a05750600015156003600160008673ffffffffffffffffffffffffffffffffffffffff1673ffffffffffffffffffffffffffffffffffffffff168152602001908152602001600020600301604051808280546001816001161561010002031660029004801561117b5780601f1061115957610100808354040283529182019161117b565b820191906000526020600020905b815481529060010190602001808311611167575b5050915050908152602001604051809103902060009054906101000a900460ff161515145b1561130d5760016003600160008673ffffffffffffffffffffffffffffffffffffffff1673ffffffffffffffffffffffffffffffffffffffff16815260200190815260200160002060030160405180828054600181600116156101000203166002900480156112465780601f10611224576101008083540402835291820191611246565b820191906000526020600020905b815481529060010190602001808311611232575b5050915050908152602001604051809103902060006101000a81548160ff021916908315150217905550600b600160008573ffffffffffffffffffffffffffffffffffffffff1673ffffffffffffffffffffffffffffffffffffffff16815260200190815260200160002060030190806001815401808255809150509060018203906000526020600020016000909192909190915090805460018160011615610100020316600290046112fa929190612559565b5050600860008154600101919050819055505b505050565b6000600854905090565b600260008273ffffffffffffffffffffffffffffffffffffffff1673ffffffffffffffffffffffffffffffffffffffff16815260200190815260200160002060040160149054906101000a900460ff166113de576040517f08c379a00000000000000000000000000000000000000000000000000000000081526004018080602001828103825260168152602001807f506572736f6e20646f6573206e6f742065786973742e0000000000000000000081525060200191505060405180910390fd5b60018060003373ffffffffffffffffffffffffffffffffffffffff1673ffffffffffffffffffffffffffffffffffffffff1681526020019081526020016000206002015414806115ef57506002600160003373ffffffffffffffffffffffffffffffffffffffff1673ffffffffffffffffffffffffffffffffffffffff168152602001908152602001600020600201541480156115ee5750600160003373ffffffffffffffffffffffffffffffffffffffff1673ffffffffffffffffffffffffffffffffffffffff16815260200190815260200160002060030160405160200180828054600181600116156101000203166002900480156115165780601f106114f4576101008083540402835291820191611516565b820191906000526020600020905b815481529060010190602001808311611502575b505091505060405160208183030381529060405280519060200120600260008373ffffffffffffffffffffffffffffffffffffffff1673ffffffffffffffffffffffffffffffffffffffff16815260200190815260200160002060030160405160200180828054600181600116156101000203166002900480156115d15780601f106115af5761010080835404028352918201916115d1565b820191906000526020600020905b8154815290600101906020018083116115bd575b505091505060405160208183030381529060405280519060200120145b5b611661576040517f08c379a000000000000000000000000000000000000000000000000000000000815260040180806020018281038252600d8152602001807f4163636573732064656e6965640000000000000000000000000000000000000081525060200191505060405180910390fd5b600a6001600260008473ffffffffffffffffffffffffffffffffffffffff1673ffffffffffffffffffffffffffffffffffffffff1681526020019081526020016000206000015403815481106116b357fe5b9060005260206000200160006101000a81549073ffffffffffffffffffffffffffffffffffffffff0219169055600260008273ffffffffffffffffffffffffffffffffffffffff1673ffffffffffffffffffffffffffffffffffffffff1681526020019081526020016000206000808201600090556001820160006117389190612511565b60028201600090556003820160006117509190612511565b6004820160006101000a81549073ffffffffffffffffffffffffffffffffffffffff02191690556004820160146101000a81549060ff02191690555050600560008154600190039190508190555050565b60006060600060606000600260008773ffffffffffffffffffffffffffffffffffffffff1673ffffffffffffffffffffffffffffffffffffffff16815260200190815260200160002060040160149054906101000a900460ff1661186d576040517f08c379a00000000000000000000000000000000000000000000000000000000081526004018080602001828103825260168152602001807f506572736f6e20646f6573206e6f742065786973742e0000000000000000000081525060200191505060405180910390fd5b611875612443565b600260008873ffffffffffffffffffffffffffffffffffffffff1673ffffffffffffffffffffffffffffffffffffffff1681526020019081526020016000206040518060c001604052908160008201548152602001600182018054600181600116156101000203166002900480601f0160208091040260200160405190810160405280929190818152602001828054600181600116156101000203166002900480156119625780601f1061193757610100808354040283529160200191611962565b820191906000526020600020905b81548152906001019060200180831161194557829003601f168201915b5050505050815260200160028201548152602001600382018054600181600116156101000203166002900480601f016020809104026020016040519081016040528092919081815260200182805460018160011615610100020316600290048015611a0e5780601f106119e357610100808354040283529160200191611a0e565b820191906000526020600020905b8154815290600101906020018083116119f157829003601f168201915b505050505081526020016004820160009054906101000a900473ffffffffffffffffffffffffffffffffffffffff1673ffffffffffffffffffffffffffffffffffffffff1673ffffffffffffffffffffffffffffffffffffffff1681526020016004820160149054906101000a900460ff161515151581525050905080600001518160200151826040015183606001518460800151839350819150955095509550955095505091939590929450565b8060008190555050565b60045481565b60006060600060606000600160008773ffffffffffffffffffffffffffffffffffffffff1673ffffffffffffffffffffffffffffffffffffffff16815260200190815260200160002060040160149054906101000a900460ff16611b99576040517f08c379a00000000000000000000000000000000000000000000000000000000081526004018080602001828103825260168152602001807f506572736f6e20646f6573206e6f742065786973742e0000000000000000000081525060200191505060405180910390fd5b611ba1612443565b600160008873ffffffffffffffffffffffffffffffffffffffff1673ffffffffffffffffffffffffffffffffffffffff1681526020019081526020016000206040518060c001604052908160008201548152602001600182018054600181600116156101000203166002900480601f016020809104026020016040519081016040528092919081815260200182805460018160011615610100020316600290048015611c8e5780601f10611c6357610100808354040283529160200191611c8e565b820191906000526020600020905b815481529060010190602001808311611c7157829003601f168201915b5050505050815260200160028201548152602001600382018054600181600116156101000203166002900480601f016020809104026020016040519081016040528092919081815260200182805460018160011615610100020316600290048015611d3a5780601f10611d0f57610100808354040283529160200191611d3a565b820191906000526020600020905b815481529060010190602001808311611d1d57829003601f168201915b505050505081526020016004820160009054906101000a900473ffffffffffffffffffffffffffffffffffffffff1673ffffffffffffffffffffffffffffffffffffffff1673ffffffffffffffffffffffffffffffffffffffff1681526020016004820160149054906101000a900460ff161515151581525050905080600001518160200151826040015183606001518460800151839350819150955095509550955095505091939590929450565b60008054905090565b60001515600260003373ffffffffffffffffffffffffffffffffffffffff1673ffffffffffffffffffffffffffffffffffffffff16815260200190815260200160002060040160149054906101000a900460ff161515148015611ea8575060001515600160003373ffffffffffffffffffffffffffffffffffffffff1673ffffffffffffffffffffffffffffffffffffffff16815260200190815260200160002060040160149054906101000a900460ff161515145b611efd576040517f08c379a00000000000000000000000000000000000000000000000000000000081526004018080602001828103825260268152602001806126066026913960400191505060405180910390fd5b60006006600081546001019190508190559050600560008154600101919050819055506040518060c001604052808281526020018581526020018481526020018381526020013373ffffffffffffffffffffffffffffffffffffffff16815260200160011515815250600260003373ffffffffffffffffffffffffffffffffffffffff1673ffffffffffffffffffffffffffffffffffffffff168152602001908152602001600020600082015181600001556020820151816001019080519060200190611fcb929190612491565b50604082015181600201556060820151816003019080519060200190611ff2929190612491565b5060808201518160040160006101000a81548173ffffffffffffffffffffffffffffffffffffffff021916908373ffffffffffffffffffffffffffffffffffffffff16021790555060a08201518160040160146101000a81548160ff021916908315150217905550905050600a3390806001815401808255809150509060018203906000526020600020016000909192909190916101000a81548173ffffffffffffffffffffffffffffffffffffffff021916908373ffffffffffffffffffffffffffffffffffffffff160217905550507f7882c0ecb03f29b503e235553ac12015cfe4430261ec58070bb5a4a02b6e885281858585604051808581526020018060200184815260200180602001838103835286818151815260200191508051906020019080838360005b8381101561213857808201518184015260208101905061211d565b50505050905090810190601f1680156121655780820380516001836020036101000a031916815260200191505b50838103825284818151815260200191508051906020019080838360005b8381101561219e578082015181840152602081019050612183565b50505050905090810190601f1680156121cb5780820380516001836020036101000a031916815260200191505b50965050505050505060405180910390a150505050565b6060600a80548060200260200160405190810160405280929190818152602001828054801561226657602002820191906000526020600020905b8160009054906101000a900473ffffffffffffffffffffffffffffffffffffffff1673ffffffffffffffffffffffffffffffffffffffff168152602001906001019080831161221c575b5050505050905090565b6060600115156003600b848154811061228557fe5b9060005260206000200160405180828054600181600116156101000203166002900480156122ea5780601f106122c85761010080835404028352918201916122ea565b820191906000526020600020905b8154815290600101906020018083116122d6575b5050915050908152602001604051809103902060009054906101000a900460ff16151514612380576040517f08c379a000000000000000000000000000000000000000000000000000000000815260040180806020018281038252601a8152602001807f496e737469747574696f6e20646f6573206e6f7420657869737400000000000081525060200191505060405180910390fd5b600b828154811061238d57fe5b906000526020600020018054600181600116156101000203166002900480601f01602080910402602001604051908101604052809291908181526020018280546001816001161561010002031660029004801561242b5780601f106124005761010080835404028352916020019161242b565b820191906000526020600020905b81548152906001019060200180831161240e57829003601f168201915b50505050509050919050565b60085481565b60055481565b6040518060c0016040528060008152602001606081526020016000815260200160608152602001600073ffffffffffffffffffffffffffffffffffffffff1681526020016000151581525090565b828054600181600116156101000203166002900490600052602060002090601f016020900481019282601f106124d257805160ff1916838001178555612500565b82800160010185558215612500579182015b828111156124ff5782518255916020019190600101906124e4565b5b50905061250d91906125e0565b5090565b50805460018160011615610100020316600290046000825580601f106125375750612556565b601f01602090049060005260206000209081019061255591906125e0565b5b50565b828054600181600116156101000203166002900490600052602060002090601f016020900481019282601f1061259257805485556125cf565b828001600101855582156125cf57600052602060002091601f016020900482015b828111156125ce5782548255916001019190600101906125b3565b5b5090506125dc91906125e0565b5090565b61260291905b808211156125fe5760008160009055506001016125e6565b5090565b9056fe5573657220616c726561647920696e2073797374656d206f7220726571756573742073656e74a265627a7a723158208dff36d4a98fbc69ea8238901320f40db25e24b46687dde790e99605f502a7ac64736f6c63430005100032",
  "source": "pragma solidity  >=0.4.22 <0.6.0;\n\ncontract Participants {\n\n    uint storedData;\n\n  function set(uint x) public {\n    storedData = x;\n  }\n\n  function get() public view returns (uint) {\n    return storedData;\n  }\n    \n    mapping (address => User) usersList;\n    mapping (address => User) requestsList;\n    mapping (string => bool) institutionsCheckList;\n    \n    uint public usersCount = 0;\n    uint public requestsCount = 0;\n    uint private requestsArrayCount = 0;\n    uint private usersArrayCount = 0;\n    uint public institutionCount = 0;\n    \n    struct User {\n        uint id;\n        string name;\n        uint userType; // 1 - AB, 2 - institution, 3 - edu-user\n        string institution;\n        address addr;\n        bool exists;\n    }\n    \n    address[] usersAddrList;\n    address[] requestsAddrList;\n    string[] institutionsList;\n    \n    event userRequestEvent\n    (\n        uint id,\n        string name,\n        uint userType,\n        string institution\n    );\n    \n    constructor() public\n    {\n        usersAddrList.push(msg.sender);\n        usersList[msg.sender] = User(1000, \"main_admin\", 1, \"None\", msg.sender, true);\n        ++usersCount;\n        institutionsList.push(\"None\");\n        ++institutionCount;\n        institutionsCheckList[\"None\"]=true;\n    }\n\n    //storeDetails\n    function createUserRequest(string memory _name, uint _userType, string memory _institution) public\n    {\n        require(requestsList[msg.sender].exists==false && usersList[msg.sender].exists==false, \"User already in system or request sent\");\n        uint _id = ++requestsArrayCount;\n        ++requestsCount;\n        requestsList[msg.sender] = User(_id, _name, _userType, _institution, msg.sender, true);\n        requestsAddrList.push(msg.sender);\n        emit userRequestEvent(_id, _name, _userType, _institution);\n    }\n    \n    function getPendingRequest() view public returns(address[] memory)\n    {\n        return requestsAddrList;\n    }\n    \n    function getUsers() view public returns(address[] memory)\n    {\n        return usersAddrList;\n    }\n    \n    function getParticularUser(address addr) view public returns(uint, string memory, uint, string memory, address)\n    {\n        require(usersList[addr].exists, \"Person does not exist.\");\n        User memory user = usersList[addr];\n        return (user.id, user.name, user.userType, user.institution, user.addr);\n    }\n    \n    function getParticularRequest(address addr) view public returns(uint, string memory, uint, string memory, address)\n    {\n        require(requestsList[addr].exists, \"Person does not exist.\");\n        User memory request = requestsList[addr];\n        return (request.id, request.name, request.userType, request.institution, request.addr);\n    }\n    \n    function approveRequest(address addr) public{\n        require(requestsList[addr].exists, \"Person does not exist.\");\n        //require(usersList[msg.sender].userType==1 ,\"Access denied\");\n        require((usersList[msg.sender].userType==1) || (usersList[msg.sender].userType==2 && (keccak256(abi.encodePacked(requestsList[addr].institution)) == keccak256(abi.encodePacked(usersList[msg.sender].institution)) )), \"Access denied\");\n        \n        // Generate unique id and assign to user\n        uint _uniqueId = 1000 + ++usersArrayCount;\n        ++usersCount;\n        User memory user = requestsList[addr];\n        user.id=_uniqueId;\n        // Add user to existing users array\n        usersList[addr] = user;\n        usersAddrList.push(addr);\n        // Remove user from user request array\n        delete requestsAddrList[requestsList[addr].id - 1];\n        delete requestsList[addr];\n        --requestsCount;\n        if(usersList[addr].userType == 2 && institutionsCheckList[usersList[addr].institution] == false){\n            institutionsCheckList[usersList[addr].institution] = true;\n            institutionsList.push(usersList[addr].institution);\n            ++institutionCount;\n        }\n    }\n    \n    function declineRequest(address addr) public {\n        require(requestsList[addr].exists, \"Person does not exist.\");\n        require((usersList[msg.sender].userType==1) || (usersList[msg.sender].userType==2 && (keccak256(abi.encodePacked(requestsList[addr].institution)) == keccak256(abi.encodePacked(usersList[msg.sender].institution)) )), \"Access denied\");\n        delete requestsAddrList[requestsList[addr].id - 1];\n        delete requestsList[addr];\n        --requestsCount;\n    }\n    \n    function getInstitution(uint i) view public returns(string memory) {\n        require(institutionsCheckList[institutionsList[i]] == true, \"Institution does not exist\");\n        return institutionsList[i];\n    }\n    \n    function getInstitutionsCount() view public returns(uint){\n        return institutionCount;\n    }\n    \n}\n\n",
  "sourcePath": "C:/Users/smuth/Desktop/certificate_verification_dapp/contracts/Participants.sol",
  "compiler": {
    "name": "solc",
    "version": "0.5.16+commit.9c3226ce.Emscripten.clang"
  },
  "schemaVersion": "3.3.2",
  "updatedAt": "2021-01-11T05:16:41.445Z",
  "networkType": "ethereum",
  "devdoc": {
    "methods": {}
  },
  "userdoc": {
    "methods": {}
  }
}