{
  "contractName": "Participants",
  "abi": [
    {
      "inputs": [],
      "payable": false,
      "stateMutability": "nonpayable",
      "type": "constructor"
    },
    {
      "anonymous": false,
      "inputs": [
        {
          "indexed": false,
          "internalType": "uint256",
          "name": "id",
          "type": "uint256"
        },
        {
          "indexed": false,
          "internalType": "string",
          "name": "name",
          "type": "string"
        },
        {
          "indexed": false,
          "internalType": "uint256",
          "name": "userType",
          "type": "uint256"
        },
        {
          "indexed": false,
          "internalType": "string",
          "name": "institution",
          "type": "string"
        }
      ],
      "name": "userRequestEvent",
      "type": "event"
    },
    {
      "constant": true,
      "inputs": [],
      "name": "institutionCount",
      "outputs": [
        {
          "internalType": "uint256",
          "name": "",
          "type": "uint256"
        }
      ],
      "payable": false,
      "stateMutability": "view",
      "type": "function"
    },
    {
      "constant": true,
      "inputs": [],
      "name": "requestsCount",
      "outputs": [
        {
          "internalType": "uint256",
          "name": "",
          "type": "uint256"
        }
      ],
      "payable": false,
      "stateMutability": "view",
      "type": "function"
    },
    {
      "constant": true,
      "inputs": [],
      "name": "usersCount",
      "outputs": [
        {
          "internalType": "uint256",
          "name": "",
          "type": "uint256"
        }
      ],
      "payable": false,
      "stateMutability": "view",
      "type": "function"
    },
    {
      "constant": false,
      "inputs": [
        {
          "internalType": "string",
          "name": "_name",
          "type": "string"
        },
        {
          "internalType": "uint256",
          "name": "_userType",
          "type": "uint256"
        },
        {
          "internalType": "string",
          "name": "_institution",
          "type": "string"
        }
      ],
      "name": "createUserRequest",
      "outputs": [],
      "payable": false,
      "stateMutability": "nonpayable",
      "type": "function"
    },
    {
      "constant": true,
      "inputs": [],
      "name": "getPendingRequest",
      "outputs": [
        {
          "internalType": "address[]",
          "name": "",
          "type": "address[]"
        }
      ],
      "payable": false,
      "stateMutability": "view",
      "type": "function"
    },
    {
      "constant": true,
      "inputs": [],
      "name": "getUsers",
      "outputs": [
        {
          "internalType": "address[]",
          "name": "",
          "type": "address[]"
        }
      ],
      "payable": false,
      "stateMutability": "view",
      "type": "function"
    },
    {
      "constant": true,
      "inputs": [
        {
          "internalType": "address",
          "name": "addr",
          "type": "address"
        }
      ],
      "name": "getParticularUser",
      "outputs": [
        {
          "internalType": "uint256",
          "name": "",
          "type": "uint256"
        },
        {
          "internalType": "string",
          "name": "",
          "type": "string"
        },
        {
          "internalType": "uint256",
          "name": "",
          "type": "uint256"
        },
        {
          "internalType": "string",
          "name": "",
          "type": "string"
        },
        {
          "internalType": "address",
          "name": "",
          "type": "address"
        }
      ],
      "payable": false,
      "stateMutability": "view",
      "type": "function"
    },
    {
      "constant": true,
      "inputs": [
        {
          "internalType": "address",
          "name": "addr",
          "type": "address"
        }
      ],
      "name": "getParticularRequest",
      "outputs": [
        {
          "internalType": "uint256",
          "name": "",
          "type": "uint256"
        },
        {
          "internalType": "string",
          "name": "",
          "type": "string"
        },
        {
          "internalType": "uint256",
          "name": "",
          "type": "uint256"
        },
        {
          "internalType": "string",
          "name": "",
          "type": "string"
        },
        {
          "internalType": "address",
          "name": "",
          "type": "address"
        }
      ],
      "payable": false,
      "stateMutability": "view",
      "type": "function"
    },
    {
      "constant": false,
      "inputs": [
        {
          "internalType": "address",
          "name": "addr",
          "type": "address"
        }
      ],
      "name": "approveRequest",
      "outputs": [],
      "payable": false,
      "stateMutability": "nonpayable",
      "type": "function"
    },
    {
      "constant": false,
      "inputs": [
        {
          "internalType": "address",
          "name": "addr",
          "type": "address"
        }
      ],
      "name": "declineRequest",
      "outputs": [],
      "payable": false,
      "stateMutability": "nonpayable",
      "type": "function"
    },
    {
      "constant": true,
      "inputs": [
        {
          "internalType": "uint256",
          "name": "i",
          "type": "uint256"
        }
      ],
      "name": "getInstitution",
      "outputs": [
        {
          "internalType": "string",
          "name": "",
          "type": "string"
        }
      ],
      "payable": false,
      "stateMutability": "view",
      "type": "function"
    },
    {
      "constant": true,
      "inputs": [],
      "name": "getInstitutionsCount",
      "outputs": [
        {
          "internalType": "uint256",
          "name": "",
          "type": "uint256"
        }
      ],
      "payable": false,
      "stateMutability": "view",
      "type": "function"
    }
  ],
  "bytecode": "0x6080604052600060035560006004556000600555600060065560006007553480156200002a57600080fd5b5060083390806001815401808255809150509060018203906000526020600020016000909192909190916101000a81548173ffffffffffffffffffffffffffffffffffffffff021916908373ffffffffffffffffffffffffffffffffffffffff160217905550506040518060c001604052806103e881526020016040518060400160405280600a81526020017f6d61696e5f61646d696e000000000000000000000000000000000000000000008152508152602001600181526020016040518060400160405280600481526020017f4e6f6e650000000000000000000000000000000000000000000000000000000081525081526020013373ffffffffffffffffffffffffffffffffffffffff168152602001600115158152506000803373ffffffffffffffffffffffffffffffffffffffff1673ffffffffffffffffffffffffffffffffffffffff168152602001908152602001600020600082015181600001556020820151816001019080519060200190620001aa9291906200032d565b50604082015181600201556060820151816003019080519060200190620001d39291906200032d565b5060808201518160040160006101000a81548173ffffffffffffffffffffffffffffffffffffffff021916908373ffffffffffffffffffffffffffffffffffffffff16021790555060a08201518160040160146101000a81548160ff02191690831515021790555090505060036000815460010191905081905550600a8060018154018082558091505090600182039060005260206000200160006040518060400160405280600481526020017f4e6f6e650000000000000000000000000000000000000000000000000000000081525090919091509080519060200190620002be929190620003b4565b5050600760008154600101919050819055506001600260405180807f4e6f6e65000000000000000000000000000000000000000000000000000000008152506004019050908152602001604051809103902060006101000a81548160ff02191690831515021790555062000463565b828054600181600116156101000203166002900490600052602060002090601f016020900481019282601f106200037057805160ff1916838001178555620003a1565b82800160010185558215620003a1579182015b82811115620003a057825182559160200191906001019062000383565b5b509050620003b091906200043b565b5090565b828054600181600116156101000203166002900490600052602060002090601f016020900481019282601f10620003f757805160ff191683800117855562000428565b8280016001018555821562000428579182015b82811115620004275782518255916020019190600101906200040a565b5b5090506200043791906200043b565b5090565b6200046091905b808211156200045c57600081600090555060010162000442565b5090565b90565b6125bd80620004736000396000f3fe608060405234801561001057600080fd5b50600436106100b35760003560e01c80636c14298f116100715780636c14298f146103455780636df2820d146104af57806390f4fe721461060b578063c047b6541461066a578063e8fc3ef814610711578063fbfa4b7f1461072f576100b3565b8062ce8e3e146100b8578063061dff9a146101175780631e27ac7d1461015b5780631ea5a1f8146101795780633a97be57146101bd5780636ba13a8214610327575b600080fd5b6100c061074d565b6040518080602001828103825283818151815260200191508051906020019060200280838360005b838110156101035780820151818401526020810190506100e8565b505050509050019250505060405180910390f35b6101596004803603602081101561012d57600080fd5b81019080803573ffffffffffffffffffffffffffffffffffffffff1690602001909291905050506107db565b005b610163611288565b6040518082815260200191505060405180910390f35b6101bb6004803603602081101561018f57600080fd5b81019080803573ffffffffffffffffffffffffffffffffffffffff169060200190929190505050611292565b005b6101ff600480360360208110156101d357600080fd5b81019080803573ffffffffffffffffffffffffffffffffffffffff169060200190929190505050611714565b6040518086815260200180602001858152602001806020018473ffffffffffffffffffffffffffffffffffffffff1673ffffffffffffffffffffffffffffffffffffffff168152602001838103835287818151815260200191508051906020019080838360005b83811015610281578082015181840152602081019050610266565b50505050905090810190601f1680156102ae5780820380516001836020036101000a031916815260200191505b50838103825285818151815260200191508051906020019080838360005b838110156102e75780820151818401526020810190506102cc565b50505050905090810190601f1680156103145780820380516001836020036101000a031916815260200191505b5097505050505050505060405180910390f35b61032f611a30565b6040518082815260200191505060405180910390f35b6103876004803603602081101561035b57600080fd5b81019080803573ffffffffffffffffffffffffffffffffffffffff169060200190929190505050611a36565b6040518086815260200180602001858152602001806020018473ffffffffffffffffffffffffffffffffffffffff1673ffffffffffffffffffffffffffffffffffffffff168152602001838103835287818151815260200191508051906020019080838360005b838110156104095780820151818401526020810190506103ee565b50505050905090810190601f1680156104365780820380516001836020036101000a031916815260200191505b50838103825285818151815260200191508051906020019080838360005b8381101561046f578082015181840152602081019050610454565b50505050905090810190601f16801561049c5780820380516001836020036101000a031916815260200191505b5097505050505050505060405180910390f35b610609600480360360608110156104c557600080fd5b81019080803590602001906401000000008111156104e257600080fd5b8201836020820111156104f457600080fd5b8035906020019184600183028401116401000000008311171561051657600080fd5b91908080601f016020809104026020016040519081016040528093929190818152602001838380828437600081840152601f19601f820116905080830192505050505050509192919290803590602001909291908035906020019064010000000081111561058357600080fd5b82018360208201111561059557600080fd5b803590602001918460018302840111640100000000831117156105b757600080fd5b91908080601f016020809104026020016040519081016040528093929190818152602001838380828437600081840152601f19601f820116905080830192505050505050509192919290505050611d50565b005b61061361213f565b6040518080602001828103825283818151815260200191508051906020019060200280838360005b8381101561065657808201518184015260208101905061063b565b505050509050019250505060405180910390f35b6106966004803603602081101561068057600080fd5b81019080803590602001909291905050506121cd565b6040518080602001828103825283818151815260200191508051906020019080838360005b838110156106d65780820151818401526020810190506106bb565b50505050905090810190601f1680156107035780820380516001836020036101000a031916815260200191505b509250505060405180910390f35b610719612394565b6040518082815260200191505060405180910390f35b61073761239a565b6040518082815260200191505060405180910390f35b606060088054806020026020016040519081016040528092919081815260200182805480156107d157602002820191906000526020600020905b8160009054906101000a900473ffffffffffffffffffffffffffffffffffffffff1673ffffffffffffffffffffffffffffffffffffffff1681526020019060010190808311610787575b5050505050905090565b600160008273ffffffffffffffffffffffffffffffffffffffff1673ffffffffffffffffffffffffffffffffffffffff16815260200190815260200160002060040160149054906101000a900460ff1661089d576040517f08c379a00000000000000000000000000000000000000000000000000000000081526004018080602001828103825260168152602001807f506572736f6e20646f6573206e6f742065786973742e0000000000000000000081525060200191505060405180910390fd5b60016000803373ffffffffffffffffffffffffffffffffffffffff1673ffffffffffffffffffffffffffffffffffffffff168152602001908152602001600020600201541480610aac575060026000803373ffffffffffffffffffffffffffffffffffffffff1673ffffffffffffffffffffffffffffffffffffffff16815260200190815260200160002060020154148015610aab57506000803373ffffffffffffffffffffffffffffffffffffffff1673ffffffffffffffffffffffffffffffffffffffff16815260200190815260200160002060030160405160200180828054600181600116156101000203166002900480156109d35780601f106109b15761010080835404028352918201916109d3565b820191906000526020600020905b8154815290600101906020018083116109bf575b505091505060405160208183030381529060405280519060200120600160008373ffffffffffffffffffffffffffffffffffffffff1673ffffffffffffffffffffffffffffffffffffffff1681526020019081526020016000206003016040516020018082805460018160011615610100020316600290048015610a8e5780601f10610a6c576101008083540402835291820191610a8e565b820191906000526020600020905b815481529060010190602001808311610a7a575b505091505060405160208183030381529060405280519060200120145b5b610b1e576040517f08c379a000000000000000000000000000000000000000000000000000000000815260040180806020018281038252600d8152602001807f4163636573732064656e6965640000000000000000000000000000000000000081525060200191505060405180910390fd5b60006006600081546001019190508190556103e801905060036000815460010191905081905550610b4d6123a0565b600160008473ffffffffffffffffffffffffffffffffffffffff1673ffffffffffffffffffffffffffffffffffffffff1681526020019081526020016000206040518060c001604052908160008201548152602001600182018054600181600116156101000203166002900480601f016020809104026020016040519081016040528092919081815260200182805460018160011615610100020316600290048015610c3a5780601f10610c0f57610100808354040283529160200191610c3a565b820191906000526020600020905b815481529060010190602001808311610c1d57829003601f168201915b5050505050815260200160028201548152602001600382018054600181600116156101000203166002900480601f016020809104026020016040519081016040528092919081815260200182805460018160011615610100020316600290048015610ce65780601f10610cbb57610100808354040283529160200191610ce6565b820191906000526020600020905b815481529060010190602001808311610cc957829003601f168201915b505050505081526020016004820160009054906101000a900473ffffffffffffffffffffffffffffffffffffffff1673ffffffffffffffffffffffffffffffffffffffff1673ffffffffffffffffffffffffffffffffffffffff1681526020016004820160149054906101000a900460ff161515151581525050905081816000018181525050806000808573ffffffffffffffffffffffffffffffffffffffff1673ffffffffffffffffffffffffffffffffffffffff168152602001908152602001600020600082015181600001556020820151816001019080519060200190610dd19291906123ee565b50604082015181600201556060820151816003019080519060200190610df89291906123ee565b5060808201518160040160006101000a81548173ffffffffffffffffffffffffffffffffffffffff021916908373ffffffffffffffffffffffffffffffffffffffff16021790555060a08201518160040160146101000a81548160ff02191690831515021790555090505060088390806001815401808255809150509060018203906000526020600020016000909192909190916101000a81548173ffffffffffffffffffffffffffffffffffffffff021916908373ffffffffffffffffffffffffffffffffffffffff16021790555050600960018060008673ffffffffffffffffffffffffffffffffffffffff1673ffffffffffffffffffffffffffffffffffffffff168152602001908152602001600020600001540381548110610f1a57fe5b9060005260206000200160006101000a81549073ffffffffffffffffffffffffffffffffffffffff0219169055600160008473ffffffffffffffffffffffffffffffffffffffff1673ffffffffffffffffffffffffffffffffffffffff168152602001908152602001600020600080820160009055600182016000610f9f919061246e565b6002820160009055600382016000610fb7919061246e565b6004820160006101000a81549073ffffffffffffffffffffffffffffffffffffffff02191690556004820160146101000a81549060ff02191690555050600460008154600190039190508190555060026000808573ffffffffffffffffffffffffffffffffffffffff1673ffffffffffffffffffffffffffffffffffffffff1681526020019081526020016000206002015414801561111857506000151560026000808673ffffffffffffffffffffffffffffffffffffffff1673ffffffffffffffffffffffffffffffffffffffff16815260200190815260200160002060030160405180828054600181600116156101000203166002900480156110f35780601f106110d15761010080835404028352918201916110f3565b820191906000526020600020905b8154815290600101906020018083116110df575b5050915050908152602001604051809103902060009054906101000a900460ff161515145b1561128357600160026000808673ffffffffffffffffffffffffffffffffffffffff1673ffffffffffffffffffffffffffffffffffffffff16815260200190815260200160002060030160405180828054600181600116156101000203166002900480156111bd5780601f1061119b5761010080835404028352918201916111bd565b820191906000526020600020905b8154815290600101906020018083116111a9575b5050915050908152602001604051809103902060006101000a81548160ff021916908315150217905550600a6000808573ffffffffffffffffffffffffffffffffffffffff1673ffffffffffffffffffffffffffffffffffffffff16815260200190815260200160002060030190806001815401808255809150509060018203906000526020600020016000909192909190915090805460018160011615610100020316600290046112709291906124b6565b5050600760008154600101919050819055505b505050565b6000600754905090565b600160008273ffffffffffffffffffffffffffffffffffffffff1673ffffffffffffffffffffffffffffffffffffffff16815260200190815260200160002060040160149054906101000a900460ff16611354576040517f08c379a00000000000000000000000000000000000000000000000000000000081526004018080602001828103825260168152602001807f506572736f6e20646f6573206e6f742065786973742e0000000000000000000081525060200191505060405180910390fd5b60016000803373ffffffffffffffffffffffffffffffffffffffff1673ffffffffffffffffffffffffffffffffffffffff168152602001908152602001600020600201541480611563575060026000803373ffffffffffffffffffffffffffffffffffffffff1673ffffffffffffffffffffffffffffffffffffffff1681526020019081526020016000206002015414801561156257506000803373ffffffffffffffffffffffffffffffffffffffff1673ffffffffffffffffffffffffffffffffffffffff168152602001908152602001600020600301604051602001808280546001816001161561010002031660029004801561148a5780601f1061146857610100808354040283529182019161148a565b820191906000526020600020905b815481529060010190602001808311611476575b505091505060405160208183030381529060405280519060200120600160008373ffffffffffffffffffffffffffffffffffffffff1673ffffffffffffffffffffffffffffffffffffffff16815260200190815260200160002060030160405160200180828054600181600116156101000203166002900480156115455780601f10611523576101008083540402835291820191611545565b820191906000526020600020905b815481529060010190602001808311611531575b505091505060405160208183030381529060405280519060200120145b5b6115d5576040517f08c379a000000000000000000000000000000000000000000000000000000000815260040180806020018281038252600d8152602001807f4163636573732064656e6965640000000000000000000000000000000000000081525060200191505060405180910390fd5b600960018060008473ffffffffffffffffffffffffffffffffffffffff1673ffffffffffffffffffffffffffffffffffffffff16815260200190815260200160002060000154038154811061162657fe5b9060005260206000200160006101000a81549073ffffffffffffffffffffffffffffffffffffffff0219169055600160008273ffffffffffffffffffffffffffffffffffffffff1673ffffffffffffffffffffffffffffffffffffffff1681526020019081526020016000206000808201600090556001820160006116ab919061246e565b60028201600090556003820160006116c3919061246e565b6004820160006101000a81549073ffffffffffffffffffffffffffffffffffffffff02191690556004820160146101000a81549060ff02191690555050600460008154600190039190508190555050565b60006060600060606000600160008773ffffffffffffffffffffffffffffffffffffffff1673ffffffffffffffffffffffffffffffffffffffff16815260200190815260200160002060040160149054906101000a900460ff166117e0576040517f08c379a00000000000000000000000000000000000000000000000000000000081526004018080602001828103825260168152602001807f506572736f6e20646f6573206e6f742065786973742e0000000000000000000081525060200191505060405180910390fd5b6117e86123a0565b600160008873ffffffffffffffffffffffffffffffffffffffff1673ffffffffffffffffffffffffffffffffffffffff1681526020019081526020016000206040518060c001604052908160008201548152602001600182018054600181600116156101000203166002900480601f0160208091040260200160405190810160405280929190818152602001828054600181600116156101000203166002900480156118d55780601f106118aa576101008083540402835291602001916118d5565b820191906000526020600020905b8154815290600101906020018083116118b857829003601f168201915b5050505050815260200160028201548152602001600382018054600181600116156101000203166002900480601f0160208091040260200160405190810160405280929190818152602001828054600181600116156101000203166002900480156119815780601f1061195657610100808354040283529160200191611981565b820191906000526020600020905b81548152906001019060200180831161196457829003601f168201915b505050505081526020016004820160009054906101000a900473ffffffffffffffffffffffffffffffffffffffff1673ffffffffffffffffffffffffffffffffffffffff1673ffffffffffffffffffffffffffffffffffffffff1681526020016004820160149054906101000a900460ff161515151581525050905080600001518160200151826040015183606001518460800151839350819150955095509550955095505091939590929450565b60035481565b600060606000606060008060008773ffffffffffffffffffffffffffffffffffffffff1673ffffffffffffffffffffffffffffffffffffffff16815260200190815260200160002060040160149054906101000a900460ff16611b01576040517f08c379a00000000000000000000000000000000000000000000000000000000081526004018080602001828103825260168152602001807f506572736f6e20646f6573206e6f742065786973742e0000000000000000000081525060200191505060405180910390fd5b611b096123a0565b6000808873ffffffffffffffffffffffffffffffffffffffff1673ffffffffffffffffffffffffffffffffffffffff1681526020019081526020016000206040518060c001604052908160008201548152602001600182018054600181600116156101000203166002900480601f016020809104026020016040519081016040528092919081815260200182805460018160011615610100020316600290048015611bf55780601f10611bca57610100808354040283529160200191611bf5565b820191906000526020600020905b815481529060010190602001808311611bd857829003601f168201915b5050505050815260200160028201548152602001600382018054600181600116156101000203166002900480601f016020809104026020016040519081016040528092919081815260200182805460018160011615610100020316600290048015611ca15780601f10611c7657610100808354040283529160200191611ca1565b820191906000526020600020905b815481529060010190602001808311611c8457829003601f168201915b505050505081526020016004820160009054906101000a900473ffffffffffffffffffffffffffffffffffffffff1673ffffffffffffffffffffffffffffffffffffffff1673ffffffffffffffffffffffffffffffffffffffff1681526020016004820160149054906101000a900460ff161515151581525050905080600001518160200151826040015183606001518460800151839350819150955095509550955095505091939590929450565b60001515600160003373ffffffffffffffffffffffffffffffffffffffff1673ffffffffffffffffffffffffffffffffffffffff16815260200190815260200160002060040160149054906101000a900460ff161515148015611e055750600015156000803373ffffffffffffffffffffffffffffffffffffffff1673ffffffffffffffffffffffffffffffffffffffff16815260200190815260200160002060040160149054906101000a900460ff161515145b611e5a576040517f08c379a00000000000000000000000000000000000000000000000000000000081526004018080602001828103825260268152602001806125636026913960400191505060405180910390fd5b60006005600081546001019190508190559050600460008154600101919050819055506040518060c001604052808281526020018581526020018481526020018381526020013373ffffffffffffffffffffffffffffffffffffffff16815260200160011515815250600160003373ffffffffffffffffffffffffffffffffffffffff1673ffffffffffffffffffffffffffffffffffffffff168152602001908152602001600020600082015181600001556020820151816001019080519060200190611f289291906123ee565b50604082015181600201556060820151816003019080519060200190611f4f9291906123ee565b5060808201518160040160006101000a81548173ffffffffffffffffffffffffffffffffffffffff021916908373ffffffffffffffffffffffffffffffffffffffff16021790555060a08201518160040160146101000a81548160ff02191690831515021790555090505060093390806001815401808255809150509060018203906000526020600020016000909192909190916101000a81548173ffffffffffffffffffffffffffffffffffffffff021916908373ffffffffffffffffffffffffffffffffffffffff160217905550507f7882c0ecb03f29b503e235553ac12015cfe4430261ec58070bb5a4a02b6e885281858585604051808581526020018060200184815260200180602001838103835286818151815260200191508051906020019080838360005b8381101561209557808201518184015260208101905061207a565b50505050905090810190601f1680156120c25780820380516001836020036101000a031916815260200191505b50838103825284818151815260200191508051906020019080838360005b838110156120fb5780820151818401526020810190506120e0565b50505050905090810190601f1680156121285780820380516001836020036101000a031916815260200191505b50965050505050505060405180910390a150505050565b606060098054806020026020016040519081016040528092919081815260200182805480156121c357602002820191906000526020600020905b8160009054906101000a900473ffffffffffffffffffffffffffffffffffffffff1673ffffffffffffffffffffffffffffffffffffffff1681526020019060010190808311612179575b5050505050905090565b6060600115156002600a84815481106121e257fe5b9060005260206000200160405180828054600181600116156101000203166002900480156122475780601f10612225576101008083540402835291820191612247565b820191906000526020600020905b815481529060010190602001808311612233575b5050915050908152602001604051809103902060009054906101000a900460ff161515146122dd576040517f08c379a000000000000000000000000000000000000000000000000000000000815260040180806020018281038252601a8152602001807f496e737469747574696f6e20646f6573206e6f7420657869737400000000000081525060200191505060405180910390fd5b600a82815481106122ea57fe5b906000526020600020018054600181600116156101000203166002900480601f0160208091040260200160405190810160405280929190818152602001828054600181600116156101000203166002900480156123885780601f1061235d57610100808354040283529160200191612388565b820191906000526020600020905b81548152906001019060200180831161236b57829003601f168201915b50505050509050919050565b60075481565b60045481565b6040518060c0016040528060008152602001606081526020016000815260200160608152602001600073ffffffffffffffffffffffffffffffffffffffff1681526020016000151581525090565b828054600181600116156101000203166002900490600052602060002090601f016020900481019282601f1061242f57805160ff191683800117855561245d565b8280016001018555821561245d579182015b8281111561245c578251825591602001919060010190612441565b5b50905061246a919061253d565b5090565b50805460018160011615610100020316600290046000825580601f1061249457506124b3565b601f0160209004906000526020600020908101906124b2919061253d565b5b50565b828054600181600116156101000203166002900490600052602060002090601f016020900481019282601f106124ef578054855561252c565b8280016001018555821561252c57600052602060002091601f016020900482015b8281111561252b578254825591600101919060010190612510565b5b509050612539919061253d565b5090565b61255f91905b8082111561255b576000816000905550600101612543565b5090565b9056fe5573657220616c726561647920696e2073797374656d206f7220726571756573742073656e74a265627a7a72315820adf36c40ff504de9a287cf3c1e12882fdc7a4f6ee65edcdd866d954842601eca64736f6c63430005100032",
  "source": "pragma solidity >=0.4.22 <0.6.0;\r\n\r\ncontract Participants {\r\n    mapping(address => User) usersList;\r\n    mapping(address => User) requestsList;\r\n    mapping(string => bool) institutionsCheckList;\r\n\r\n    uint256 public usersCount = 0;\r\n    uint256 public requestsCount = 0;\r\n    uint256 private requestsArrayCount = 0;\r\n    uint256 private usersArrayCount = 0;\r\n    uint256 public institutionCount = 0;\r\n\r\n    struct User {\r\n        uint256 id;\r\n        string name;\r\n        uint256 userType; // 1 - AB, 2 - institution, 3 - edu-user\r\n        string institution;\r\n        address addr;\r\n        bool exists;\r\n    }\r\n\r\n    address[] usersAddrList;\r\n    address[] requestsAddrList;\r\n    string[] institutionsList;\r\n\r\n    event userRequestEvent(\r\n        uint256 id,\r\n        string name,\r\n        uint256 userType,\r\n        string institution\r\n    );\r\n\r\n    constructor() public {\r\n        usersAddrList.push(msg.sender);\r\n        usersList[msg.sender] = User(\r\n            1000,\r\n            \"main_admin\",\r\n            1,\r\n            \"None\",\r\n            msg.sender,\r\n            true\r\n        );\r\n        ++usersCount;\r\n        institutionsList.push(\"None\");\r\n        ++institutionCount;\r\n        institutionsCheckList[\"None\"] = true;\r\n    }\r\n\r\n    //storeDetails\r\n    function createUserRequest(\r\n        string memory _name,\r\n        uint256 _userType,\r\n        string memory _institution\r\n    ) public {\r\n        require(\r\n            requestsList[msg.sender].exists == false &&\r\n                usersList[msg.sender].exists == false,\r\n            \"User already in system or request sent\"\r\n        );\r\n        uint256 _id = ++requestsArrayCount;\r\n        ++requestsCount;\r\n        requestsList[msg.sender] = User(\r\n            _id,\r\n            _name,\r\n            _userType,\r\n            _institution,\r\n            msg.sender,\r\n            true\r\n        );\r\n        requestsAddrList.push(msg.sender);\r\n        emit userRequestEvent(_id, _name, _userType, _institution);\r\n    }\r\n\r\n    function getPendingRequest() public view returns (address[] memory) {\r\n        return requestsAddrList;\r\n    }\r\n\r\n    function getUsers() public view returns (address[] memory) {\r\n        return usersAddrList;\r\n    }\r\n\r\n    function getParticularUser(address addr)\r\n        public\r\n        view\r\n        returns (\r\n            uint256,\r\n            string memory,\r\n            uint256,\r\n            string memory,\r\n            address\r\n        )\r\n    {\r\n        require(usersList[addr].exists, \"Person does not exist.\");\r\n        User memory user = usersList[addr];\r\n        return (user.id, user.name, user.userType, user.institution, user.addr);\r\n    }\r\n\r\n    function getParticularRequest(address addr)\r\n        public\r\n        view\r\n        returns (\r\n            uint256,\r\n            string memory,\r\n            uint256,\r\n            string memory,\r\n            address\r\n        )\r\n    {\r\n        require(requestsList[addr].exists, \"Person does not exist.\");\r\n        User memory request = requestsList[addr];\r\n        return (\r\n            request.id,\r\n            request.name,\r\n            request.userType,\r\n            request.institution,\r\n            request.addr\r\n        );\r\n    }\r\n\r\n    function approveRequest(address addr) public {\r\n        require(requestsList[addr].exists, \"Person does not exist.\");\r\n        //require(usersList[msg.sender].userType==1 ,\"Access denied\");\r\n        require(\r\n            (usersList[msg.sender].userType == 1) ||\r\n                (usersList[msg.sender].userType == 2 &&\r\n                    (keccak256(\r\n                        abi.encodePacked(requestsList[addr].institution)\r\n                    ) ==\r\n                        keccak256(\r\n                            abi.encodePacked(usersList[msg.sender].institution)\r\n                        ))),\r\n            \"Access denied\"\r\n        );\r\n\r\n        // Generate unique id and assign to user\r\n        uint256 _uniqueId = 1000 + ++usersArrayCount;\r\n        ++usersCount;\r\n        User memory user = requestsList[addr];\r\n        user.id = _uniqueId;\r\n        // Add user to existing users array\r\n        usersList[addr] = user;\r\n        usersAddrList.push(addr);\r\n        // Remove user from user request array\r\n        delete requestsAddrList[requestsList[addr].id - 1];\r\n        delete requestsList[addr];\r\n        --requestsCount;\r\n        if (\r\n            usersList[addr].userType == 2 &&\r\n            institutionsCheckList[usersList[addr].institution] == false\r\n        ) {\r\n            institutionsCheckList[usersList[addr].institution] = true;\r\n            institutionsList.push(usersList[addr].institution);\r\n            ++institutionCount;\r\n        }\r\n    }\r\n\r\n    function declineRequest(address addr) public {\r\n        require(requestsList[addr].exists, \"Person does not exist.\");\r\n        require(\r\n            (usersList[msg.sender].userType == 1) ||\r\n                (usersList[msg.sender].userType == 2 &&\r\n                    (keccak256(\r\n                        abi.encodePacked(requestsList[addr].institution)\r\n                    ) ==\r\n                        keccak256(\r\n                            abi.encodePacked(usersList[msg.sender].institution)\r\n                        ))),\r\n            \"Access denied\"\r\n        );\r\n        delete requestsAddrList[requestsList[addr].id - 1];\r\n        delete requestsList[addr];\r\n        --requestsCount;\r\n    }\r\n\r\n    function getInstitution(uint256 i) public view returns (string memory) {\r\n        require(\r\n            institutionsCheckList[institutionsList[i]] == true,\r\n            \"Institution does not exist\"\r\n        );\r\n        return institutionsList[i];\r\n    }\r\n\r\n    function getInstitutionsCount() public view returns (uint256) {\r\n        return institutionCount;\r\n    }\r\n}\r\n",
  "sourcePath": "C:/Users/WELCOME/Desktop/DAPP-FYP/contracts/Participants.sol",
  "compiler": {
    "name": "solc",
    "version": "0.5.16+commit.9c3226ce.Emscripten.clang"
  },
  "schemaVersion": "3.3.2",
  "updatedAt": "2021-01-15T13:40:32.862Z",
  "networkType": "ethereum",
  "devdoc": {
    "methods": {}
  },
  "userdoc": {
    "methods": {}
  }
}