{
  "contractName": "Participants",
  "abi": [
    {
      "inputs": [],
      "payable": false,
      "stateMutability": "nonpayable",
      "type": "constructor"
    },
    {
      "anonymous": false,
      "inputs": [
        {
          "indexed": false,
          "internalType": "uint256",
          "name": "id",
          "type": "uint256"
        },
        {
          "indexed": false,
          "internalType": "string",
          "name": "name",
          "type": "string"
        },
        {
          "indexed": false,
          "internalType": "uint256",
          "name": "userType",
          "type": "uint256"
        },
        {
          "indexed": false,
          "internalType": "string",
          "name": "institution",
          "type": "string"
        },
        {
          "indexed": false,
          "internalType": "address",
          "name": "addr",
          "type": "address"
        }
      ],
      "name": "userEvent",
      "type": "event"
    },
    {
      "constant": true,
      "inputs": [],
      "name": "institutionCount",
      "outputs": [
        {
          "internalType": "uint256",
          "name": "",
          "type": "uint256"
        }
      ],
      "payable": false,
      "stateMutability": "view",
      "type": "function"
    },
    {
      "constant": true,
      "inputs": [],
      "name": "requestsCount",
      "outputs": [
        {
          "internalType": "uint256",
          "name": "",
          "type": "uint256"
        }
      ],
      "payable": false,
      "stateMutability": "view",
      "type": "function"
    },
    {
      "constant": true,
      "inputs": [],
      "name": "usersCount",
      "outputs": [
        {
          "internalType": "uint256",
          "name": "",
          "type": "uint256"
        }
      ],
      "payable": false,
      "stateMutability": "view",
      "type": "function"
    },
    {
      "constant": false,
      "inputs": [
        {
          "internalType": "string",
          "name": "_name",
          "type": "string"
        },
        {
          "internalType": "uint256",
          "name": "_userType",
          "type": "uint256"
        },
        {
          "internalType": "string",
          "name": "_institution",
          "type": "string"
        }
      ],
      "name": "createUserRequest",
      "outputs": [],
      "payable": false,
      "stateMutability": "nonpayable",
      "type": "function"
    },
    {
      "constant": true,
      "inputs": [],
      "name": "getPendingRequestCount",
      "outputs": [
        {
          "internalType": "uint256",
          "name": "",
          "type": "uint256"
        }
      ],
      "payable": false,
      "stateMutability": "view",
      "type": "function"
    },
    {
      "constant": true,
      "inputs": [
        {
          "internalType": "uint256",
          "name": "i",
          "type": "uint256"
        }
      ],
      "name": "getRequestAddress",
      "outputs": [
        {
          "internalType": "address",
          "name": "",
          "type": "address"
        }
      ],
      "payable": false,
      "stateMutability": "view",
      "type": "function"
    },
    {
      "constant": true,
      "inputs": [],
      "name": "getUsersCount",
      "outputs": [
        {
          "internalType": "uint256",
          "name": "",
          "type": "uint256"
        }
      ],
      "payable": false,
      "stateMutability": "view",
      "type": "function"
    },
    {
      "constant": true,
      "inputs": [
        {
          "internalType": "uint256",
          "name": "i",
          "type": "uint256"
        }
      ],
      "name": "getUserAddress",
      "outputs": [
        {
          "internalType": "address",
          "name": "",
          "type": "address"
        }
      ],
      "payable": false,
      "stateMutability": "view",
      "type": "function"
    },
    {
      "constant": true,
      "inputs": [
        {
          "internalType": "address",
          "name": "addr",
          "type": "address"
        }
      ],
      "name": "checkIfUserExists",
      "outputs": [
        {
          "internalType": "bool",
          "name": "",
          "type": "bool"
        }
      ],
      "payable": false,
      "stateMutability": "view",
      "type": "function"
    },
    {
      "constant": false,
      "inputs": [
        {
          "internalType": "string",
          "name": "pubKey",
          "type": "string"
        }
      ],
      "name": "assignPublicKey",
      "outputs": [],
      "payable": false,
      "stateMutability": "nonpayable",
      "type": "function"
    },
    {
      "constant": true,
      "inputs": [
        {
          "internalType": "address",
          "name": "addr",
          "type": "address"
        }
      ],
      "name": "getPublicKey",
      "outputs": [
        {
          "internalType": "string",
          "name": "",
          "type": "string"
        }
      ],
      "payable": false,
      "stateMutability": "view",
      "type": "function"
    },
    {
      "constant": true,
      "inputs": [
        {
          "internalType": "address",
          "name": "addr",
          "type": "address"
        }
      ],
      "name": "getParticularUsersType",
      "outputs": [
        {
          "internalType": "uint256",
          "name": "",
          "type": "uint256"
        }
      ],
      "payable": false,
      "stateMutability": "view",
      "type": "function"
    },
    {
      "constant": true,
      "inputs": [
        {
          "internalType": "address",
          "name": "addr",
          "type": "address"
        }
      ],
      "name": "getParticularUsersInstitution",
      "outputs": [
        {
          "internalType": "string",
          "name": "",
          "type": "string"
        }
      ],
      "payable": false,
      "stateMutability": "view",
      "type": "function"
    },
    {
      "constant": true,
      "inputs": [
        {
          "internalType": "address",
          "name": "addr",
          "type": "address"
        }
      ],
      "name": "getParticularUser",
      "outputs": [
        {
          "internalType": "uint256",
          "name": "",
          "type": "uint256"
        },
        {
          "internalType": "string",
          "name": "",
          "type": "string"
        },
        {
          "internalType": "uint256",
          "name": "",
          "type": "uint256"
        },
        {
          "internalType": "string",
          "name": "",
          "type": "string"
        },
        {
          "internalType": "address",
          "name": "",
          "type": "address"
        }
      ],
      "payable": false,
      "stateMutability": "view",
      "type": "function"
    },
    {
      "constant": true,
      "inputs": [
        {
          "internalType": "address",
          "name": "addr",
          "type": "address"
        }
      ],
      "name": "getParticularRequest",
      "outputs": [
        {
          "internalType": "uint256",
          "name": "",
          "type": "uint256"
        },
        {
          "internalType": "string",
          "name": "",
          "type": "string"
        },
        {
          "internalType": "uint256",
          "name": "",
          "type": "uint256"
        },
        {
          "internalType": "string",
          "name": "",
          "type": "string"
        },
        {
          "internalType": "address",
          "name": "",
          "type": "address"
        }
      ],
      "payable": false,
      "stateMutability": "view",
      "type": "function"
    },
    {
      "constant": false,
      "inputs": [
        {
          "internalType": "address",
          "name": "addr",
          "type": "address"
        }
      ],
      "name": "approveRequest",
      "outputs": [],
      "payable": false,
      "stateMutability": "nonpayable",
      "type": "function"
    },
    {
      "constant": false,
      "inputs": [
        {
          "internalType": "address",
          "name": "addr",
          "type": "address"
        }
      ],
      "name": "declineRequest",
      "outputs": [],
      "payable": false,
      "stateMutability": "nonpayable",
      "type": "function"
    },
    {
      "constant": true,
      "inputs": [
        {
          "internalType": "uint256",
          "name": "i",
          "type": "uint256"
        }
      ],
      "name": "getInstitution",
      "outputs": [
        {
          "internalType": "string",
          "name": "",
          "type": "string"
        }
      ],
      "payable": false,
      "stateMutability": "view",
      "type": "function"
    },
    {
      "constant": true,
      "inputs": [],
      "name": "getInstitutionsCount",
      "outputs": [
        {
          "internalType": "uint256",
          "name": "",
          "type": "uint256"
        }
      ],
      "payable": false,
      "stateMutability": "view",
      "type": "function"
    },
    {
      "constant": true,
      "inputs": [
        {
          "internalType": "string",
          "name": "_institution",
          "type": "string"
        }
      ],
      "name": "checkIfInstitutionExists",
      "outputs": [
        {
          "internalType": "bool",
          "name": "",
          "type": "bool"
        }
      ],
      "payable": false,
      "stateMutability": "view",
      "type": "function"
    }
  ],
  "bytecode": "0x608060405260006005556000600655600060075560006008553480156200002557600080fd5b503360036000600554815260200190815260200160002060006101000a81548173ffffffffffffffffffffffffffffffffffffffff021916908373ffffffffffffffffffffffffffffffffffffffff1602179055506040518060e001604052806103e881526020016040518060400160405280600a81526020017f6d61696e5f61646d696e000000000000000000000000000000000000000000008152508152602001600181526020016040518060400160405280600481526020017f4e6f6e650000000000000000000000000000000000000000000000000000000081525081526020013373ffffffffffffffffffffffffffffffffffffffff168152602001604051806020016040528060008152508152602001600115158152506000803373ffffffffffffffffffffffffffffffffffffffff1673ffffffffffffffffffffffffffffffffffffffff168152602001908152602001600020600082015181600001556020820151816001019080519060200190620001a89291906200034a565b50604082015181600201556060820151816003019080519060200190620001d19291906200034a565b5060808201518160040160006101000a81548173ffffffffffffffffffffffffffffffffffffffff021916908373ffffffffffffffffffffffffffffffffffffffff16021790555060a0820151816005019080519060200190620002379291906200034a565b5060c08201518160060160006101000a81548160ff0219169083151502179055509050506005600081546001019190508190555060098060018154018082558091505090600182039060005260206000200160006040518060400160405280600481526020017f4e6f6e650000000000000000000000000000000000000000000000000000000081525090919091509080519060200190620002db929190620003d1565b5050600860008154600101919050819055506001600260405180807f4e6f6e65000000000000000000000000000000000000000000000000000000008152506004019050908152602001604051809103902060006101000a81548160ff02191690831515021790555062000480565b828054600181600116156101000203166002900490600052602060002090601f016020900481019282601f106200038d57805160ff1916838001178555620003be565b82800160010185558215620003be579182015b82811115620003bd578251825591602001919060010190620003a0565b5b509050620003cd919062000458565b5090565b828054600181600116156101000203166002900490600052602060002090601f016020900481019282601f106200041457805160ff191683800117855562000445565b8280016001018555821562000445579182015b828111156200044457825182559160200191906001019062000427565b5b50905062000454919062000458565b5090565b6200047d91905b80821115620004795760008160009055506001016200045f565b5090565b90565b6133a580620004906000396000f3fe608060405234801561001057600080fd5b506004361061012c5760003560e01c80639371de2b116100ad578063e74543b511610071578063e74543b5146109a4578063e8fc3ef814610a12578063ecf857ab14610a30578063ef166d5a14610aeb578063fbfa4b7f14610bbe5761012c565b80639371de2b146107a8578063a4a1e26314610804578063bc0ed30d14610822578063c047b65414610840578063e476ff45146108e75761012c565b80636ba13a82116100f45780636ba13a82146103995780636c14298f146103b75780636df2820d14610521578063857cdbb81461067d57806390d976e21461073a5761012c565b8063061dff9a146101315780631e27ac7d146101755780631ea5a1f814610193578063256dced2146101d75780633a97be571461022f575b600080fd5b6101736004803603602081101561014757600080fd5b81019080803573ffffffffffffffffffffffffffffffffffffffff169060200190929190505050610bdc565b005b61017d6119b3565b6040518082815260200191505060405180910390f35b6101d5600480360360208110156101a957600080fd5b81019080803573ffffffffffffffffffffffffffffffffffffffff1690602001909291905050506119bd565b005b610219600480360360208110156101ed57600080fd5b81019080803573ffffffffffffffffffffffffffffffffffffffff169060200190929190505050611e4b565b6040518082815260200191505060405180910390f35b6102716004803603602081101561024557600080fd5b81019080803573ffffffffffffffffffffffffffffffffffffffff169060200190929190505050611f57565b6040518086815260200180602001858152602001806020018473ffffffffffffffffffffffffffffffffffffffff1673ffffffffffffffffffffffffffffffffffffffff168152602001838103835287818151815260200191508051906020019080838360005b838110156102f35780820151818401526020810190506102d8565b50505050905090810190601f1680156103205780820380516001836020036101000a031916815260200191505b50838103825285818151815260200191508051906020019080838360005b8381101561035957808201518184015260208101905061033e565b50505050905090810190601f1680156103865780820380516001836020036101000a031916815260200191505b5097505050505050505060405180910390f35b6103a16122db565b6040518082815260200191505060405180910390f35b6103f9600480360360208110156103cd57600080fd5b81019080803573ffffffffffffffffffffffffffffffffffffffff1690602001909291905050506122e1565b6040518086815260200180602001858152602001806020018473ffffffffffffffffffffffffffffffffffffffff1673ffffffffffffffffffffffffffffffffffffffff168152602001838103835287818151815260200191508051906020019080838360005b8381101561047b578082015181840152602081019050610460565b50505050905090810190601f1680156104a85780820380516001836020036101000a031916815260200191505b50838103825285818151815260200191508051906020019080838360005b838110156104e15780820151818401526020810190506104c6565b50505050905090810190601f16801561050e5780820380516001836020036101000a031916815260200191505b5097505050505050505060405180910390f35b61067b6004803603606081101561053757600080fd5b810190808035906020019064010000000081111561055457600080fd5b82018360208201111561056657600080fd5b8035906020019184600183028401116401000000008311171561058857600080fd5b91908080601f016020809104026020016040519081016040528093929190818152602001838380828437600081840152601f19601f82011690508083019250505050505050919291929080359060200190929190803590602001906401000000008111156105f557600080fd5b82018360208201111561060757600080fd5b8035906020019184600183028401116401000000008311171561062957600080fd5b91908080601f016020809104026020016040519081016040528093929190818152602001838380828437600081840152601f19601f82011690508083019250505050505050919291929050505061265f565b005b6106bf6004803603602081101561069357600080fd5b81019080803573ffffffffffffffffffffffffffffffffffffffff169060200190929190505050612955565b6040518080602001828103825283818151815260200191508051906020019080838360005b838110156106ff5780820151818401526020810190506106e4565b50505050905090810190601f16801561072c5780820380516001836020036101000a031916815260200191505b509250505060405180910390f35b6107666004803603602081101561075057600080fd5b8101908080359060200190929190505050612af9565b604051808273ffffffffffffffffffffffffffffffffffffffff1673ffffffffffffffffffffffffffffffffffffffff16815260200191505060405180910390f35b6107ea600480360360208110156107be57600080fd5b81019080803573ffffffffffffffffffffffffffffffffffffffff169060200190929190505050612b36565b604051808215151515815260200191505060405180910390f35b61080c612b9f565b6040518082815260200191505060405180910390f35b61082a612ba9565b6040518082815260200191505060405180910390f35b61086c6004803603602081101561085657600080fd5b8101908080359060200190929190505050612bb3565b6040518080602001828103825283818151815260200191508051906020019080838360005b838110156108ac578082015181840152602081019050610891565b50505050905090810190601f1680156108d95780820380516001836020036101000a031916815260200191505b509250505060405180910390f35b610929600480360360208110156108fd57600080fd5b81019080803573ffffffffffffffffffffffffffffffffffffffff169060200190929190505050612d7a565b6040518080602001828103825283818151815260200191508051906020019080838360005b8381101561096957808201518184015260208101905061094e565b50505050905090810190601f1680156109965780820380516001836020036101000a031916815260200191505b509250505060405180910390f35b6109d0600480360360208110156109ba57600080fd5b8101908080359060200190929190505050612f1e565b604051808273ffffffffffffffffffffffffffffffffffffffff1673ffffffffffffffffffffffffffffffffffffffff16815260200191505060405180910390f35b610a1a612f5b565b6040518082815260200191505060405180910390f35b610ae960048036036020811015610a4657600080fd5b8101908080359060200190640100000000811115610a6357600080fd5b820183602082011115610a7557600080fd5b80359060200191846001830284011164010000000083111715610a9757600080fd5b91908080601f016020809104026020016040519081016040528093929190818152602001838380828437600081840152601f19601f820116905080830192505050505050509192919290505050612f61565b005b610ba460048036036020811015610b0157600080fd5b8101908080359060200190640100000000811115610b1e57600080fd5b820183602082011115610b3057600080fd5b80359060200191846001830284011164010000000083111715610b5257600080fd5b91908080601f016020809104026020016040519081016040528093929190818152602001838380828437600081840152601f19601f82011690508083019250505050505050919291929050505061307b565b604051808215151515815260200191505060405180910390f35b610bc66130fb565b6040518082815260200191505060405180910390f35b600160008273ffffffffffffffffffffffffffffffffffffffff1673ffffffffffffffffffffffffffffffffffffffff16815260200190815260200160002060060160009054906101000a900460ff16610c9e576040517f08c379a00000000000000000000000000000000000000000000000000000000081526004018080602001828103825260168152602001807f506572736f6e20646f6573206e6f742065786973742e0000000000000000000081525060200191505060405180910390fd5b60016000803373ffffffffffffffffffffffffffffffffffffffff1673ffffffffffffffffffffffffffffffffffffffff168152602001908152602001600020600201541480610ead575060026000803373ffffffffffffffffffffffffffffffffffffffff1673ffffffffffffffffffffffffffffffffffffffff16815260200190815260200160002060020154148015610eac57506000803373ffffffffffffffffffffffffffffffffffffffff1673ffffffffffffffffffffffffffffffffffffffff1681526020019081526020016000206003016040516020018082805460018160011615610100020316600290048015610dd45780601f10610db2576101008083540402835291820191610dd4565b820191906000526020600020905b815481529060010190602001808311610dc0575b505091505060405160208183030381529060405280519060200120600160008373ffffffffffffffffffffffffffffffffffffffff1673ffffffffffffffffffffffffffffffffffffffff1681526020019081526020016000206003016040516020018082805460018160011615610100020316600290048015610e8f5780601f10610e6d576101008083540402835291820191610e8f565b820191906000526020600020905b815481529060010190602001808311610e7b575b505091505060405160208183030381529060405280519060200120145b5b610f1f576040517f08c379a000000000000000000000000000000000000000000000000000000000815260040180806020018281038252600d8152602001807f4163636573732064656e6965640000000000000000000000000000000000000081525060200191505060405180910390fd5b610f27613101565b600160008373ffffffffffffffffffffffffffffffffffffffff1673ffffffffffffffffffffffffffffffffffffffff1681526020019081526020016000206040518060e001604052908160008201548152602001600182018054600181600116156101000203166002900480601f0160208091040260200160405190810160405280929190818152602001828054600181600116156101000203166002900480156110145780601f10610fe957610100808354040283529160200191611014565b820191906000526020600020905b815481529060010190602001808311610ff757829003601f168201915b5050505050815260200160028201548152602001600382018054600181600116156101000203166002900480601f0160208091040260200160405190810160405280929190818152602001828054600181600116156101000203166002900480156110c05780601f10611095576101008083540402835291602001916110c0565b820191906000526020600020905b8154815290600101906020018083116110a357829003601f168201915b505050505081526020016004820160009054906101000a900473ffffffffffffffffffffffffffffffffffffffff1673ffffffffffffffffffffffffffffffffffffffff1673ffffffffffffffffffffffffffffffffffffffff168152602001600582018054600181600116156101000203166002900480601f0160208091040260200160405190810160405280929190818152602001828054600181600116156101000203166002900480156111b85780601f1061118d576101008083540402835291602001916111b8565b820191906000526020600020905b81548152906001019060200180831161119b57829003601f168201915b505050505081526020016006820160009054906101000a900460ff16151515158152505090506005600081546001019190508190556103e801816000018181525050806000808473ffffffffffffffffffffffffffffffffffffffff1673ffffffffffffffffffffffffffffffffffffffff16815260200190815260200160002060008201518160000155602082015181600101908051906020019061125f929190613156565b50604082015181600201556060820151816003019080519060200190611286929190613156565b5060808201518160040160006101000a81548173ffffffffffffffffffffffffffffffffffffffff021916908373ffffffffffffffffffffffffffffffffffffffff16021790555060a08201518160050190805190602001906112ea929190613156565b5060c08201518160060160006101000a81548160ff0219169083151502179055509050508160036000600554815260200190815260200160002060006101000a81548173ffffffffffffffffffffffffffffffffffffffff021916908373ffffffffffffffffffffffffffffffffffffffff1602179055506004600060018060008673ffffffffffffffffffffffffffffffffffffffff1673ffffffffffffffffffffffffffffffffffffffff1681526020019081526020016000206000015403815260200190815260200160002060006101000a81549073ffffffffffffffffffffffffffffffffffffffff0219169055600160008373ffffffffffffffffffffffffffffffffffffffff1673ffffffffffffffffffffffffffffffffffffffff16815260200190815260200160002060008082016000905560018201600061143491906131d6565b600282016000905560038201600061144c91906131d6565b6004820160006101000a81549073ffffffffffffffffffffffffffffffffffffffff021916905560058201600061148391906131d6565b6006820160006101000a81549060ff02191690555050600660008154600190039190508190555060026000808473ffffffffffffffffffffffffffffffffffffffff1673ffffffffffffffffffffffffffffffffffffffff1681526020019081526020016000206002015414156119af576000151560026000808573ffffffffffffffffffffffffffffffffffffffff1673ffffffffffffffffffffffffffffffffffffffff16815260200190815260200160002060030160405180828054600181600116156101000203166002900480156115965780601f10611574576101008083540402835291820191611596565b820191906000526020600020905b815481529060010190602001808311611582575b5050915050908152602001604051809103902060009054906101000a900460ff161515141561172557600160026000808573ffffffffffffffffffffffffffffffffffffffff1673ffffffffffffffffffffffffffffffffffffffff168152602001908152602001600020600301604051808280546001816001161561010002031660029004801561165f5780601f1061163d57610100808354040283529182019161165f565b820191906000526020600020905b81548152906001019060200180831161164b575b5050915050908152602001604051809103902060006101000a81548160ff02191690831515021790555060096000808473ffffffffffffffffffffffffffffffffffffffff1673ffffffffffffffffffffffffffffffffffffffff168152602001908152602001600020600301908060018154018082558091505090600182039060005260206000200160009091929091909150908054600181600116156101000203166002900461171292919061321e565b5050600860008154600101919050819055505b7f798938a50f8d2aa43b7d4f34c4d138ed9addaa374c21de0f645be92b50e177ac6000808473ffffffffffffffffffffffffffffffffffffffff1673ffffffffffffffffffffffffffffffffffffffff168152602001908152602001600020600001546000808573ffffffffffffffffffffffffffffffffffffffff1673ffffffffffffffffffffffffffffffffffffffff1681526020019081526020016000206001016000808673ffffffffffffffffffffffffffffffffffffffff1673ffffffffffffffffffffffffffffffffffffffff168152602001908152602001600020600201546000808773ffffffffffffffffffffffffffffffffffffffff1673ffffffffffffffffffffffffffffffffffffffff168152602001908152602001600020600301866040518086815260200180602001858152602001806020018473ffffffffffffffffffffffffffffffffffffffff1673ffffffffffffffffffffffffffffffffffffffff1681526020018381038352878181546001816001161561010002031660029004815260200191508054600181600116156101000203166002900480156119185780601f106118ed57610100808354040283529160200191611918565b820191906000526020600020905b8154815290600101906020018083116118fb57829003601f168201915b505083810382528581815460018160011615610100020316600290048152602001915080546001816001161561010002031660029004801561199b5780601f106119705761010080835404028352916020019161199b565b820191906000526020600020905b81548152906001019060200180831161197e57829003601f168201915b505097505050505050505060405180910390a15b5050565b6000600854905090565b600160008273ffffffffffffffffffffffffffffffffffffffff1673ffffffffffffffffffffffffffffffffffffffff16815260200190815260200160002060060160009054906101000a900460ff16611a7f576040517f08c379a00000000000000000000000000000000000000000000000000000000081526004018080602001828103825260168152602001807f506572736f6e20646f6573206e6f742065786973742e0000000000000000000081525060200191505060405180910390fd5b60016000803373ffffffffffffffffffffffffffffffffffffffff1673ffffffffffffffffffffffffffffffffffffffff168152602001908152602001600020600201541480611c8e575060026000803373ffffffffffffffffffffffffffffffffffffffff1673ffffffffffffffffffffffffffffffffffffffff16815260200190815260200160002060020154148015611c8d57506000803373ffffffffffffffffffffffffffffffffffffffff1673ffffffffffffffffffffffffffffffffffffffff1681526020019081526020016000206003016040516020018082805460018160011615610100020316600290048015611bb55780601f10611b93576101008083540402835291820191611bb5565b820191906000526020600020905b815481529060010190602001808311611ba1575b505091505060405160208183030381529060405280519060200120600160008373ffffffffffffffffffffffffffffffffffffffff1673ffffffffffffffffffffffffffffffffffffffff1681526020019081526020016000206003016040516020018082805460018160011615610100020316600290048015611c705780601f10611c4e576101008083540402835291820191611c70565b820191906000526020600020905b815481529060010190602001808311611c5c575b505091505060405160208183030381529060405280519060200120145b5b611d00576040517f08c379a000000000000000000000000000000000000000000000000000000000815260040180806020018281038252600d8152602001807f4163636573732064656e6965640000000000000000000000000000000000000081525060200191505060405180910390fd5b6004600060018060008573ffffffffffffffffffffffffffffffffffffffff1673ffffffffffffffffffffffffffffffffffffffff1681526020019081526020016000206000015403815260200190815260200160002060006101000a81549073ffffffffffffffffffffffffffffffffffffffff0219169055600160008273ffffffffffffffffffffffffffffffffffffffff1673ffffffffffffffffffffffffffffffffffffffff168152602001908152602001600020600080820160009055600182016000611dd291906131d6565b6002820160009055600382016000611dea91906131d6565b6004820160006101000a81549073ffffffffffffffffffffffffffffffffffffffff0219169055600582016000611e2191906131d6565b6006820160006101000a81549060ff02191690555050600660008154600190039190508190555050565b60008060008373ffffffffffffffffffffffffffffffffffffffff1673ffffffffffffffffffffffffffffffffffffffff16815260200190815260200160002060060160009054906101000a900460ff16611f0e576040517f08c379a00000000000000000000000000000000000000000000000000000000081526004018080602001828103825260168152602001807f506572736f6e20646f6573206e6f742065786973742e0000000000000000000081525060200191505060405180910390fd5b6000808373ffffffffffffffffffffffffffffffffffffffff1673ffffffffffffffffffffffffffffffffffffffff168152602001908152602001600020600201549050919050565b60006060600060606000600160008773ffffffffffffffffffffffffffffffffffffffff1673ffffffffffffffffffffffffffffffffffffffff16815260200190815260200160002060060160009054906101000a900460ff16612023576040517f08c379a00000000000000000000000000000000000000000000000000000000081526004018080602001828103825260168152602001807f506572736f6e20646f6573206e6f742065786973742e0000000000000000000081525060200191505060405180910390fd5b600160008773ffffffffffffffffffffffffffffffffffffffff1673ffffffffffffffffffffffffffffffffffffffff16815260200190815260200160002060000154600160008873ffffffffffffffffffffffffffffffffffffffff1673ffffffffffffffffffffffffffffffffffffffff168152602001908152602001600020600101600160008973ffffffffffffffffffffffffffffffffffffffff1673ffffffffffffffffffffffffffffffffffffffff16815260200190815260200160002060020154600160008a73ffffffffffffffffffffffffffffffffffffffff1673ffffffffffffffffffffffffffffffffffffffff168152602001908152602001600020600301600160008b73ffffffffffffffffffffffffffffffffffffffff1673ffffffffffffffffffffffffffffffffffffffff16815260200190815260200160002060040160009054906101000a900473ffffffffffffffffffffffffffffffffffffffff16838054600181600116156101000203166002900480601f0160208091040260200160405190810160405280929190818152602001828054600181600116156101000203166002900480156122255780601f106121fa57610100808354040283529160200191612225565b820191906000526020600020905b81548152906001019060200180831161220857829003601f168201915b50505050509350818054600181600116156101000203166002900480601f0160208091040260200160405190810160405280929190818152602001828054600181600116156101000203166002900480156122c15780601f10612296576101008083540402835291602001916122c1565b820191906000526020600020905b8154815290600101906020018083116122a457829003601f168201915b505050505091509450945094509450945091939590929450565b60055481565b600060606000606060008060008773ffffffffffffffffffffffffffffffffffffffff1673ffffffffffffffffffffffffffffffffffffffff16815260200190815260200160002060060160009054906101000a900460ff166123ac576040517f08c379a00000000000000000000000000000000000000000000000000000000081526004018080602001828103825260168152602001807f506572736f6e20646f6573206e6f742065786973742e0000000000000000000081525060200191505060405180910390fd5b6000808773ffffffffffffffffffffffffffffffffffffffff1673ffffffffffffffffffffffffffffffffffffffff168152602001908152602001600020600001546000808873ffffffffffffffffffffffffffffffffffffffff1673ffffffffffffffffffffffffffffffffffffffff1681526020019081526020016000206001016000808973ffffffffffffffffffffffffffffffffffffffff1673ffffffffffffffffffffffffffffffffffffffff168152602001908152602001600020600201546000808a73ffffffffffffffffffffffffffffffffffffffff1673ffffffffffffffffffffffffffffffffffffffff1681526020019081526020016000206003016000808b73ffffffffffffffffffffffffffffffffffffffff1673ffffffffffffffffffffffffffffffffffffffff16815260200190815260200160002060040160009054906101000a900473ffffffffffffffffffffffffffffffffffffffff16838054600181600116156101000203166002900480601f0160208091040260200160405190810160405280929190818152602001828054600181600116156101000203166002900480156125a95780601f1061257e576101008083540402835291602001916125a9565b820191906000526020600020905b81548152906001019060200180831161258c57829003601f168201915b50505050509350818054600181600116156101000203166002900480601f0160208091040260200160405190810160405280929190818152602001828054600181600116156101000203166002900480156126455780601f1061261a57610100808354040283529160200191612645565b820191906000526020600020905b81548152906001019060200180831161262857829003601f168201915b505050505091509450945094509450945091939590929450565b60001515600160003373ffffffffffffffffffffffffffffffffffffffff1673ffffffffffffffffffffffffffffffffffffffff16815260200190815260200160002060060160009054906101000a900460ff1615151480156127145750600015156000803373ffffffffffffffffffffffffffffffffffffffff1673ffffffffffffffffffffffffffffffffffffffff16815260200190815260200160002060060160009054906101000a900460ff161515145b612769576040517f08c379a000000000000000000000000000000000000000000000000000000000815260040180806020018281038252602681526020018061334b6026913960400191505060405180910390fd5b60006007600081546001019190508190559050600660008154600101919050819055506040518060e001604052808281526020018581526020018481526020018381526020013373ffffffffffffffffffffffffffffffffffffffff16815260200160405180602001604052806000815250815260200160011515815250600160003373ffffffffffffffffffffffffffffffffffffffff1673ffffffffffffffffffffffffffffffffffffffff16815260200190815260200160002060008201518160000155602082015181600101908051906020019061284c929190613156565b50604082015181600201556060820151816003019080519060200190612873929190613156565b5060808201518160040160006101000a81548173ffffffffffffffffffffffffffffffffffffffff021916908373ffffffffffffffffffffffffffffffffffffffff16021790555060a08201518160050190805190602001906128d7929190613156565b5060c08201518160060160006101000a81548160ff0219169083151502179055509050503360046000600754815260200190815260200160002060006101000a81548173ffffffffffffffffffffffffffffffffffffffff021916908373ffffffffffffffffffffffffffffffffffffffff16021790555050505050565b60606000808373ffffffffffffffffffffffffffffffffffffffff1673ffffffffffffffffffffffffffffffffffffffff16815260200190815260200160002060060160009054906101000a900460ff16612a18576040517f08c379a00000000000000000000000000000000000000000000000000000000081526004018080602001828103825260168152602001807f506572736f6e20646f6573206e6f742065786973742e0000000000000000000081525060200191505060405180910390fd5b6000808373ffffffffffffffffffffffffffffffffffffffff1673ffffffffffffffffffffffffffffffffffffffff1681526020019081526020016000206005018054600181600116156101000203166002900480601f016020809104026020016040519081016040528092919081815260200182805460018160011615610100020316600290048015612aed5780601f10612ac257610100808354040283529160200191612aed565b820191906000526020600020905b815481529060010190602001808311612ad057829003601f168201915b50505050509050919050565b60006003600083815260200190815260200160002060009054906101000a900473ffffffffffffffffffffffffffffffffffffffff169050919050565b60008060008373ffffffffffffffffffffffffffffffffffffffff1673ffffffffffffffffffffffffffffffffffffffff16815260200190815260200160002060060160009054906101000a900460ff1615612b955760019050612b9a565b600090505b919050565b6000600554905090565b6000600654905090565b606060011515600260098481548110612bc857fe5b906000526020600020016040518082805460018160011615610100020316600290048015612c2d5780601f10612c0b576101008083540402835291820191612c2d565b820191906000526020600020905b815481529060010190602001808311612c19575b5050915050908152602001604051809103902060009054906101000a900460ff16151514612cc3576040517f08c379a000000000000000000000000000000000000000000000000000000000815260040180806020018281038252601a8152602001807f496e737469747574696f6e20646f6573206e6f7420657869737400000000000081525060200191505060405180910390fd5b60098281548110612cd057fe5b906000526020600020018054600181600116156101000203166002900480601f016020809104026020016040519081016040528092919081815260200182805460018160011615610100020316600290048015612d6e5780601f10612d4357610100808354040283529160200191612d6e565b820191906000526020600020905b815481529060010190602001808311612d5157829003601f168201915b50505050509050919050565b60606000808373ffffffffffffffffffffffffffffffffffffffff1673ffffffffffffffffffffffffffffffffffffffff16815260200190815260200160002060060160009054906101000a900460ff16612e3d576040517f08c379a00000000000000000000000000000000000000000000000000000000081526004018080602001828103825260168152602001807f506572736f6e20646f6573206e6f742065786973742e0000000000000000000081525060200191505060405180910390fd5b6000808373ffffffffffffffffffffffffffffffffffffffff1673ffffffffffffffffffffffffffffffffffffffff1681526020019081526020016000206003018054600181600116156101000203166002900480601f016020809104026020016040519081016040528092919081815260200182805460018160011615610100020316600290048015612f125780601f10612ee757610100808354040283529160200191612f12565b820191906000526020600020905b815481529060010190602001808311612ef557829003601f168201915b50505050509050919050565b60006004600083815260200190815260200160002060009054906101000a900473ffffffffffffffffffffffffffffffffffffffff169050919050565b60085481565b6000803373ffffffffffffffffffffffffffffffffffffffff1673ffffffffffffffffffffffffffffffffffffffff16815260200190815260200160002060060160009054906101000a900460ff16613022576040517f08c379a00000000000000000000000000000000000000000000000000000000081526004018080602001828103825260168152602001807f506572736f6e20646f6573206e6f742065786973742e0000000000000000000081525060200191505060405180910390fd5b806000803373ffffffffffffffffffffffffffffffffffffffff1673ffffffffffffffffffffffffffffffffffffffff16815260200190815260200160002060050190805190602001906130779291906132a5565b5050565b60006002826040518082805190602001908083835b602083106130b35780518252602082019150602081019050602083039250613090565b6001836020036101000a038019825116818451168082178552505050505050905001915050908152602001604051809103902060009054906101000a900460ff169050919050565b60065481565b6040518060e0016040528060008152602001606081526020016000815260200160608152602001600073ffffffffffffffffffffffffffffffffffffffff168152602001606081526020016000151581525090565b828054600181600116156101000203166002900490600052602060002090601f016020900481019282601f1061319757805160ff19168380011785556131c5565b828001600101855582156131c5579182015b828111156131c45782518255916020019190600101906131a9565b5b5090506131d29190613325565b5090565b50805460018160011615610100020316600290046000825580601f106131fc575061321b565b601f01602090049060005260206000209081019061321a9190613325565b5b50565b828054600181600116156101000203166002900490600052602060002090601f016020900481019282601f106132575780548555613294565b8280016001018555821561329457600052602060002091601f016020900482015b82811115613293578254825591600101919060010190613278565b5b5090506132a19190613325565b5090565b828054600181600116156101000203166002900490600052602060002090601f016020900481019282601f106132e657805160ff1916838001178555613314565b82800160010185558215613314579182015b828111156133135782518255916020019190600101906132f8565b5b5090506133219190613325565b5090565b61334791905b8082111561334357600081600090555060010161332b565b5090565b9056fe5573657220616c726561647920696e2073797374656d206f7220726571756573742073656e74a265627a7a723158209256955653ae9f47b87745fdddf1d1987271602496ec1f97689fe61adc3d7d0164736f6c63430005100032",
  "source": "pragma solidity  >=0.4.22;\r\n\r\ncontract Participants {\r\n    \r\n    mapping (address => User) usersList;\r\n    mapping (address => User) requestsList;\r\n    mapping (string => bool) institutionsCheckList;\r\n    mapping (uint => address) usersAddrList;\r\n    mapping (uint => address) requestsAddrList;\r\n\r\n    uint public usersCount = 0;\r\n    uint public requestsCount = 0;\r\n    uint private requestsArrayCount = 0;\r\n    uint public institutionCount = 0;\r\n    \r\n    struct User {\r\n        uint id;\r\n        string name;\r\n        uint userType; // 1 - AB, 2 - institution, 3 - edu-user\r\n        string institution;\r\n        address addr;\r\n        string publicKey;\r\n        bool exists;\r\n    }\r\n    \r\n    //address[] usersAddrList;\r\n    //address[] requestsAddrList;\r\n    string[] institutionsList;\r\n    \r\n    event userEvent\r\n    (\r\n        uint id,\r\n        string name,\r\n        uint userType,\r\n        string institution,\r\n        address addr\r\n    );\r\n    \r\n    constructor() public\r\n    {\r\n        usersAddrList[usersCount]= msg.sender;\r\n        usersList[msg.sender] = User(1000, \"main_admin\", 1, \"None\", msg.sender, \"\", true);\r\n        ++usersCount;\r\n        institutionsList.push(\"None\");\r\n        ++institutionCount;\r\n        institutionsCheckList[\"None\"]=true;\r\n    }\r\n    \r\n    //storeDetails\r\n    function createUserRequest(string memory _name, uint _userType, string memory _institution) public\r\n    {\r\n        require(requestsList[msg.sender].exists==false && usersList[msg.sender].exists==false, \"User already in system or request sent\");\r\n        uint _id = ++requestsArrayCount;\r\n        ++requestsCount;\r\n        requestsList[msg.sender] = User(_id, _name, _userType, _institution, msg.sender, \"\", true);\r\n        requestsAddrList[requestsArrayCount]= msg.sender;\r\n    }\r\n    \r\n    function getPendingRequestCount() view public returns(uint)\r\n    {\r\n        return requestsCount;\r\n    }\r\n\r\n    function getRequestAddress(uint i) view public returns(address)\r\n    {\r\n        return requestsAddrList[i];\r\n    }\r\n    \r\n    function getUsersCount() view public returns(uint)\r\n    {\r\n        return usersCount;\r\n    }\r\n\r\n    function getUserAddress(uint i) view public returns(address)\r\n    {\r\n        return usersAddrList[i];\r\n    }\r\n    \r\n    function checkIfUserExists(address addr) view public returns(bool)\r\n    {\r\n        if(usersList[addr].exists)\r\n            return true;\r\n        return false;\r\n    }\r\n\r\n    function assignPublicKey(string memory pubKey) public {\r\n        require(usersList[msg.sender].exists, \"Person does not exist.\");\r\n        usersList[msg.sender].publicKey = pubKey;\r\n    }\r\n\r\n    function getPublicKey(address addr) view public returns(string memory){\r\n        require(usersList[addr].exists, \"Person does not exist.\");\r\n        return (usersList[addr].publicKey);\r\n    }\r\n    \r\n    function getParticularUsersType(address addr) view public returns(uint)\r\n    {\r\n        require(usersList[addr].exists, \"Person does not exist.\");\r\n        return (usersList[addr].userType);\r\n    }\r\n    \r\n    function getParticularUsersInstitution(address addr) view public returns(string memory)\r\n    {\r\n        require(usersList[addr].exists, \"Person does not exist.\");\r\n        return (usersList[addr].institution);\r\n    }\r\n    \r\n    function getParticularUser(address addr) view public returns(uint, string memory, uint, string memory, address)\r\n    {\r\n        require(usersList[addr].exists, \"Person does not exist.\");\r\n        return (usersList[addr].id, usersList[addr].name, usersList[addr].userType, usersList[addr].institution, usersList[addr].addr);\r\n    }\r\n    \r\n    function getParticularRequest(address addr) view public returns(uint, string memory, uint, string memory, address)\r\n    {\r\n        require(requestsList[addr].exists, \"Person does not exist.\");\r\n        return (requestsList[addr].id, requestsList[addr].name, requestsList[addr].userType, requestsList[addr].institution, requestsList[addr].addr);\r\n    }\r\n    \r\n    function approveRequest(address addr) public{\r\n        require(requestsList[addr].exists, \"Person does not exist.\");\r\n        //require(usersList[msg.sender].userType==1 ,\"Access denied\");\r\n        require((usersList[msg.sender].userType==1) || (usersList[msg.sender].userType==2 && (keccak256(abi.encodePacked(requestsList[addr].institution)) == keccak256(abi.encodePacked(usersList[msg.sender].institution)) )), \"Access denied\");\r\n        \r\n        // Generate unique id and assign to user\r\n        User memory user = requestsList[addr];\r\n        user.id= 1000 + ++usersCount;\r\n        // Add user to existing users array\r\n        usersList[addr] = user;\r\n        usersAddrList[usersCount] = addr;\r\n        // Remove user from user request array\r\n        delete requestsAddrList[requestsList[addr].id - 1];\r\n        delete requestsList[addr];\r\n        --requestsCount;\r\n        if(usersList[addr].userType == 2){\r\n            if(institutionsCheckList[usersList[addr].institution] == false){\r\n                institutionsCheckList[usersList[addr].institution] = true;\r\n                institutionsList.push(usersList[addr].institution);\r\n                ++institutionCount;\r\n            }\r\n            emit userEvent(usersList[addr].id, usersList[addr].name, usersList[addr].userType, usersList[addr].institution, addr);\r\n        }\r\n        \r\n    }\r\n    \r\n    function declineRequest(address addr) public {\r\n        require(requestsList[addr].exists, \"Person does not exist.\");\r\n        require((usersList[msg.sender].userType==1) || (usersList[msg.sender].userType==2 && (keccak256(abi.encodePacked(requestsList[addr].institution)) == keccak256(abi.encodePacked(usersList[msg.sender].institution)) )), \"Access denied\");\r\n        delete requestsAddrList[requestsList[addr].id - 1];\r\n        delete requestsList[addr];\r\n        --requestsCount;\r\n    }\r\n    \r\n    function getInstitution(uint i) view public returns(string memory) {\r\n        require(institutionsCheckList[institutionsList[i]] == true, \"Institution does not exist\");\r\n        return institutionsList[i];\r\n    }\r\n    \r\n    function getInstitutionsCount() view public returns(uint){\r\n        return institutionCount;\r\n    }\r\n    \r\n    function checkIfInstitutionExists(string memory _institution) view public returns(bool){\r\n        return institutionsCheckList[_institution];\r\n    }\r\n    \r\n}",
  "sourcePath": "C:\\Users\\WELCOME\\Desktop\\DAPP-FYP\\contracts\\Participants.sol",
  "compiler": {
    "name": "solc",
    "version": "0.5.16+commit.9c3226ce.Emscripten.clang"
  },
  "schemaVersion": "3.3.2",
  "updatedAt": "2021-02-27T06:39:02.166Z",
  "networkType": "ethereum",
  "devdoc": {
    "methods": {}
  },
  "userdoc": {
    "methods": {}
  }
}